:020000041000EA
:1000000000B5324B212058609868022188439860DF
:10001000D860186158612E4B002199600221596106
:100020000121F02299502B49196001219960352056
:1000300000F044F80222904214D00621196600F024
:1000400034F8196E01211966002018661A6600F04E
:100050002CF8196E196E196E052000F02FF8012189
:100060000842F9D1002199601B49196000215960AB
:100070001A491B48016001219960EB211966A021F2
:10008000196600F012F800219960164914480160C1
:100090000121996001BC002800D000471248134993
:1000A000086003C880F30888084703B5996A0420EC
:1000B0000142FBD001200142F8D103BD02B5186610
:1000C0001866FFF7F2FF186E186E02BD00000240BE
:1000D000000000180000070000035F00212200005C
:1000E000F4000018222000A00001001008ED00E03C
:1000F00000000000000000000000000074B24E7A12
:1001000000200420F7010010C3010010C5010010F9
:10011000C1010010C1010010C1010010C101001097
:10012000C1010010C1010010C1010010C701001081
:10013000C1010010C1010010C9010010CB01001065
:10014000CD010010CD010010CD010010CD01001037
:10015000CD010010CD010010CD010010CD01001027
:10016000CD010010CD010010CD010010CD01001017
:10017000CD010010CD010010CD010010CD01001007
:10018000CD010010CD010010CD010010CD010010F7
:10019000CD010010CD010010CD010010CD010010E7
:1001A000CD010010CD010010CD010010CD010010D7
:1001B000CD010010CD010010CD010010CD010010C7
:1001C00000BE00BE00BE00BE00BE00BEEFF3058054
:1001D000103800BEF2EB8871485500106C550010C5
:1001E0003402001090A31AE700201F49086006C8D7
:1001F00081F3088810471D48006800282FD10DA4FE
:100200000ECC002902D000F012F8F9E71849194A7B
:10021000002000E001C19142FCD1174988471749ED
:1002200088471749884700BEFDE701C901C29A42C5
:10023000FBD370476C550010C00000205C2E0020DE
:100240000883001000000420000004200883001030
:10025000001004200010042000000000704709482E
:1002600001F0B0FE0047000008ED00E0000000D003
:10027000602E0020943B00203D1E0010090300105A
:10028000311F00105756000006005250ABB36053A8
:100290002453001006005250861C030234530010F1
:1002A000060052505422A29D4053001005005250A7
:1002B000DE65F46808830010F8B5C04606480749B3
:1002C000091A8B10C90FC91810B5491003D0044B77
:1002D000002B00D0984710BD5C2E00205C2E002023
:1002E00000000000054B10B5002B03D00449054861
:1002F00000E000BFFFF7E2FF10BDC04600000000B5
:100300003C3B0020E051001070B590B004F0ACFE12
:10031000002002F0D5FD1E4C1E4E1F4D0120002175
:10032000404202F047FE01F00FF800292BD0FA22DC
:100330000023920001F0B6FE23683268C01A904292
:100340001BD39B182878236004F0A6FE01222B788B
:10035000002053402B7003F0D7FB0028DED0694605
:100360004022002003F0E0FB69460200002003F079
:1003700051FC002003F012FCD0E7002003F0C4FB86
:100380000028CBD0EBE7FA21890001F04DFED3E73E
:100390006C3B0020500D0020913B0020FA22024BC4
:1003A00092001A607047C046500D0020FA22014B9F
:1003B0001A607047500D0020014B024A1A607047C6
:1003C000500D0020C4090000FA22024B92001A606E
:1003D0007047C046500D00207047C0467047C04669
:1003E00000487047245200100048704738520010EF
:1003F00070B5002826D0052831D81A4B8000C65881
:10040000300004F053FEC0B2011C1F2815D8C9B239
:10041000002821D00023144DAA1CF05C0133DCB26B
:1004200010800232A142F8D8C0230131C9B249007C
:100430009B000B4328002B8070BD1F21C9B20028F0
:10044000E8D109E0074B084D19680222A81C02F008
:10045000F3F8C1239B00EDE7044B034DEAE70020CE
:10046000EAE7C046540D0020C0320020020300001D
:10047000F0B5C64600B588B08C4602A998460B0078
:100480000E4C170024CC24C31D000D4C45CC45C395
:10049000227860461A700B4B0722019302F0CCF8C9
:1004A00029000C22380002F0C7F80322404601A9B7
:1004B00002F0C2F808B080BCB846F0BDE0510010B0
:1004C0009C520010312E3000074B10B51B780400F1
:1004D0000120002B00D110BD00233A220221200070
:1004E00003F046FE0020F6E78F3B002010230B6050
:1004F000F133FF3313807047002B01D0002A01D065
:1005000001207047014B01321A70F9E78F3B002040
:10051000180010B50F2908D8054B49028918C918C9
:10052000029A02F089F8029810BD01204042FBE7D0
:100530006C0D002001207047080010B519000F282D
:1005400008D8064B40028018C018029A02F074F8CE
:10055000029810BD01204042FBE7C0466C0D002010
:1005600010B500232022052103F002FE01204042A5
:1005700010BDC046094A10B5944640248300634428
:100580001A68C00062408034144080225201134334
:100590001C60034B9C466044416010BD04C0014098
:1005A000004001400123D0228340120693629361F0
:1005B000094A40219446830063441A68C0004A40B7
:1005C000803111408022520113431960034B9C4635
:1005D000052360444360704704C00140004001406F
:1005E000024B18688007C00F7047C04600C0064025
:1005F00070B5EFF3108C72B60D4D2B68002BFCD04C
:10060000BFF35F8F0724CB08C618C05C01230C40E2
:10061000A3401C000440034207D118433070BFF3CD
:100620005F8F2C608CF3108870BD100001F084FC8B
:100630002C0100D0F8B54746CE46884680B5EFF38A
:10064000108C72B6214D2C68002CFCD0BFF35F8F4C
:100650009A422CD8D4080727055D061901241740B3
:10066000BC402C421FD007210127894609E0D4084D
:10067000055D06194C4639001440A1400C00294282
:1006800011D001329342F2D201204042BFF35F8F7A
:1006900000220E4B1A608CF3108800280FDBC0BCC0
:1006A000B946B046F8BD254310003570EEE7BFF3FC
:1006B0005F8F00232B608CF310880120404243465B
:1006C000002BECD0089801F037FCC0462C0100D07C
:1006D0000021044B044ABFF35F8F02C39342FAD157
:1006E0007047C046000100D0800100D0044A107855
:1006F000431CDBB2172B00D9102313707047C04680
:100700006C2D002010B5064B064C82B00100009302
:1007100018221F232000FFF78DFF02B010BDC04636
:10072000AC520010BC36002001238340002904D0C5
:10073000034A1360034A13607047034A1360FBE7E0
:1007400080E200E000E100E080E100E0024B1030D8
:100750009B688000C058704700ED00E070B50D0048
:10076000EFF3108672B60F4A1368002BFCD0BFF36C
:100770005F8F0D4B10309B6884001B590B4A9342CE
:1007800003D09D4201D001F0EFFB074B9B681D5148
:10079000BFF35F8FBFF35F8F0022024B1A6086F3B7
:1007A000108870BD240100D000ED00E0CD010010E4
:1007B000F0B557464E46DE464546E0B585B00600E4
:1007C00001911700EFF3108B72B6664A1368002B85
:1007D000FCD0BFF35F8F0025634B5D579A46002D19
:1007E00000DAA2E06B00614C02935B199B00984613
:1007F000A146C1444B4652469B79103613705C4B60
:10080000B2009B68009299580B1B2F2B34D9594B7F
:10081000994200D0A2E0029B42469C46564B65445A
:10082000AD006353554B0232A218043B9B1A1B05C3
:10083000534A5B0D651913436B80524B0121AB800A
:10084000FF23AB71019BEF71AB604B460B4319006B
:10085000474B009A9B689950BFF35F8FBFF35F8F40
:100860000022404B1A608BF3108805B0F0BCBB46E9
:10087000B246A946A046F0BD01200A008243D379C2
:10088000BB422FD845464E4613003F491B1B5B41D8
:100890005943090D384B6353384B02356519043BF6
:1008A0005B1B1B05364D5B0D2B4373800426B44642
:1008B000E044131F44441B1B1B055B0D1D434B46AB
:1008C000997101999D8099604946DF712F4B0143D1
:1008D0001360BDE75800C01880002018C679BE42DA
:1008E00029D902000623D356002BF3DA101D8246C5
:1008F000274803900426504676424E44361A300567
:10090000400D844666461E48957106439680029ABD
:1009100094466544AA00A4181C4AA3712260019B56
:10092000039AE771A280A36092E701F01DFB002506
:1009300053465D5756E7101D8246908840050015C6
:1009400084464046D444664604302018301AE026D7
:100950000005400D360230430390CBE701F004FB65
:1009600059E7C046240100D0903B0020702D0020A4
:1009700000ED00E0CD01001000A1FFFFA02D002040
:1009800000E0FFFF01BDFFFFAAAA00000148804769
:1009900001BD0000F0B5DE4657464E464546E0B57F
:1009A0000C0083B0EFF3108972B6584A1368002B1D
:1009B000FCD0BFF35F8F564B9A68030010339F0043
:1009C000D559544A9046954232D0A54243D0524E12
:1009D000AA1B2F2A2CD801228240924651464F4A08
:1009E00012681140019151464D4A1160BFF35F8F6B
:1009F000EFF305829346002A33D101232A009A435C
:100A000093689C4208D177E04B005B189B00F31879
:100A10009968A1422AD01A00062151560029F3DA1A
:100A2000019B002B19D052463E4B1A603B4B1A607B
:100A3000374B9B68DD51BFF35F8FBFF35F8F0022A1
:100A4000324B1A6089F3108803B0F0BCBB46B24643
:100A5000A946A046F0BD1500EAE75246304B1A60A1
:100A6000E6E79342C9D001F07FFAC6E7062159565E
:100A7000002921DB4A005018800034188046A06805
:100A80009860E079D871062020569871002824DB00
:100A9000A488F01A6405241544440019E0240005D4
:100AA000400D2402204398801F4B52181878920062
:100AB000B21890711970B3E7594600290FD1FF3170
:100AC00091711A49918018490A789A71184A9B1BAA
:100AD0005B415A43120D0A70A2E71648E3E7164A33
:100AE0001649D21A083A5002400D01439980144920
:100AF00052080A43DA8093E7062151561300002971
:100B0000B8DA5A46002AEAD14546DCE7240100D08B
:100B100000ED00E0CD010010702D002000E100E0AC
:100B200080E100E080E200E0903B002001BDFFFF9B
:100B3000AAAA000001BD0000AA2D002000F0FFFFBE
:100B400000F8FFFF70B5EFF3058101240443EFF3D4
:100B5000108C72B6214A1368002BFCD0BFF35F8F54
:100B60001F4B05001F4AED1A6D416A43120D1E4DC1
:100B70008900AE6852B27658A6421CD0062159565A
:100B800091421CD012215956914222D01E21595611
:100B9000914220D02A2159560324914210D0134B60
:100BA00019781A708171BFF35F8F00220B4B1A60A6
:100BB0008CF3108870BDAB680D4C5C50EFE70024DF
:100BC0006100091989005B18FF2199710949998011
:100BD000E5E70124F4E70224F2E7C046240100D04F
:100BE000702D0020AAAA000000ED00E0903B00203C
:100BF000CD01001001BDFFFF054B064A1360064AF8
:100C0000136053609360D3601361536193617047C5
:100C10008080808000E400E004E400E0024B9C4619
:100C200061448900016070474000003410B5040041
:100C3000FFF75CFD01002000FFF7F0FFFF232371A9
:100C4000BFF35F8F10BDC04610B50400FFF74EFD27
:100C500001002000FFF7E2FFFF23A380BFF35F8FB7
:100C600010BDC04610B504000120FFF74BFD044B3A
:100C70009C46604480002060BFF35F8F10BDC0467B
:100C80004000003483680B4810B5844661446244D8
:100C90001201090159189B185C684A6801209442A6
:100CA00001D802D00020C0B210BD1A680B689A4269
:100CB000F9D8F7E7FFFFFF0F0A4B1968EFF3108031
:100CC00072B60A68002AFCD0BFF35F8F1B68BFF3BF
:100CD0005F8F00221A6080F3108840BF002000213F
:100CE0007047C046683B0020F8B5574645464E461B
:100CF000DE46E0B599460CAB1C780DAB1B780700BF
:100D000090469A460568002C44D1AC7B002C3BD021
:100D1000660029683619033E89194B78AB73002B9E
:100D200000D1EB7300238B704B700B702E4BE218CD
:100D3000BB6812019B1842461A604A465A600A9ADA
:100D40009A600B9ADA6000238B704B700B706B7B90
:100D50009B46002B32D022005946A8686B68984702
:100D600000281DD05B46584629685B005B448E19FD
:100D7000033BB070CA18CB5C002B00D073705B468D
:100D800014706B735C451AD0F0BCBB46B246A946E2
:100D9000A046F8BD660029683619033E8919C5E7E3
:100DA0005B465B002A685B44033BD3189C70911937
:100DB000925D002A00D05A705B460B706C734246FD
:100DC0004B46387D00F03AFB051E02D05346002BFF
:100DD00004D00E9B002BD7D01D70D5E721003868BA
:100DE00000F056FDF5E7C046FFFFFF0FF0B5DE4609
:100DF00057464E4645460023E0B58BB00893694BF5
:100E00008200D45800239B46099000F09DFA626846
:100E100006000F00EFF3108572B61368002BFCD0AC
:100E2000BFF35F8F23689C465B7B9946002B00D104
:100E300068E0A2685C4B90464B441B0198444346D3
:100E40001A685B6810001900801BB941002900DC9A
:100E500062E0099800F0F2FA00230022984600238D
:100E60000692079300239A466368BFF35F8F5A4642
:100E70001A6085F310885346002B08D10028C4D18E
:100E80000BB0F0BCBB46B246A946A046F0BD089BDD
:100E9000414618024B461843D047626806000F00CF
:100EA000EFF3108572B61368002BFCD0BFF35F8F91
:100EB000002F4FDB33003B4302D02369002B65D169
:100EC0002368D97B002906D01A68480041185218B7
:100ED0004946033A51709A7B002A01D14A469A73D7
:100EE0004A46DA734B46E168013BCA5C0132CA5498
:100EF0005B4623616368BFF35F8F5A461A6085F3D0
:100F0000108882E700230022984600230692079368
:100F1000002300209A46A7E7002902D1002800D02C
:100F200097E70021604600F031FC43461A685B6891
:100F30000692079343469B689A464346DB68984669
:100F4000E3684B44013B1B7808931B020343236176
:100F5000002089E72369002BB2D0069A079B8021E5
:100F6000921BBB4109068B4202D301220F4B524216
:100F7000594604910121039149460291414601914C
:100F8000514620000091FFF7AFFEB1E700F0DCF919
:100F900032003B0012184B41802109068B42E7D3F7
:100FA000E3E7C046543B0020FFFFFF0FFFFFFF7F3A
:100FB00010B5144C6368002B04D00A211248FFF7C7
:100FC0002DFE10BD2300114A1021206800F0F2FA16
:100FD000032000F0ADF9032000F09AFA03200C4939
:100FE00000F0E6F9FFF782FB0A4B9C4603232375CA
:100FF000D0231B061B6860446375074B800060604C
:10100000DC60DAE7B82D0020683B0020850C00107A
:10101000ED0D001040000034543B0020F0B5574661
:101020004E46DE464546E0B585B0019310AB1B78D1
:101030000700039300239A46994600927A68EFF3DB
:10104000108B72B61368002BFCD0BFF35F8F3D6826
:10105000AC7B002C00D17CE066002B683619033E87
:101060009B195A78AA73002A00D1EA734A4AA11838
:10107000BA680901521800980199106051600E99E0
:1010800091600F99D1604A469A705A701A706B7BC2
:101090009846002B00D16CE022004146A8686B689E
:1010A0009847002857D04346404629685B00434490
:1010B0008E19033BB070CA18CB5C002B00D0737044
:1010C000434614706B73444554D0FB681B19013BB5
:1010D00018787B68BFF35F8F4A461A608BF31088DD
:1010E000002C56D05346002B08D10002204305B0F7
:1010F000F0BCBB46B246A946A046F0BD039B002B00
:1011000045D00E9B00200F999847030004000D0066
:101110000B433CD0002911DA009A019B121BAB4112
:101120000092019380221206934204D301231B4CA8
:101130005B4200930194039B9A467FE700F004F919
:10114000802224184D411206009401959542F2D355
:10115000ECE70020BDE743465B002A684344033BBD
:10116000D3189C709119925D002A00D05A704346A2
:101170000B706C73387D009A019B00F05FF982461A
:101180000028A2D02100386800F082FB9DE70020F3
:10119000ADE701204042AAE7FFFFFF0FFFFFFF7FFF
:1011A000F0B5EFF30583CE46474680B505000C0049
:1011B00085B0002B12D02C4A0020536A9C4203D8E1
:1011C000926A0130AA4204D305B0C0BCB946B04609
:1011D000F0BDE31A5A1E9341D8B2F5E7234E0293AD
:1011E0000193234B0200009330000B00FFF716FF22
:1011F000031EE0DD20BF7168EFF3108772B60A6846
:10120000002AFCD0BFF35F8FDAB294463068427B8D
:1012100062451CD0FF2201681A4089465100884669
:1012200049469044414403398978002912D0F16835
:101230001B0A8A18013A1278DBB29A420FD07368FF
:10124000BFF35F8F00221A6087F31088B3E7FF2295
:101250001A40ECE732699342F1D13161EFE7614620
:1012600000F016FBEBE7C04600400540B82D00201B
:10127000B90C0010F0B5EFF30582D6464F4646464E
:101280001000C0B51038EFF3108872B6214C2368F7
:10129000002BFCD0BFF35F8F0123190081401E4D4E
:1012A0001F006963AA461D4D29601D4D2E78AC466E
:1012B0003500C5402F402B4209D1BFF35F8F276017
:1012C00088F31088E0BCBA46B146A846F0BD534644
:1012D0005F6A144B8500EB589F420ED36246124B57
:1012E0008E43EB581670BFF35F8F0022226088F3A5
:1012F0001088002BE6D09847E4E70C4B92009C4600
:10130000624413681360BFF35F8F0023236088F388
:101310001088D7E7280100D0004005403C70054008
:10132000923B0020703B0020A4360020D03F0540B7
:1013300010B5034B01001800024AFFF759F910BD20
:101340008E3B0020C8520010034B596A0A00986A6D
:10135000596A8A42FAD170470040054070B50400CE
:101360000D00124A536A1900966A536A8B42FAD1E9
:101370003000190024184D41AB4211D80ED02B007B
:101380000A494A6A9A42FCD307D1084A02E0516AE4
:10139000994202D1916AA142F9D370BDA642EED919
:1013A000012301246442E5175B42E9E70040054060
:1013B00070B504000D00EFF3108672B61A4A136878
:1013C000002BFCD0BFF35F8F002D1BD02000FFF758
:1013D000BDF9164981420AD02000FFF7BFF901216B
:1013E0002000FFF7A1F90123A340114A1360114B1C
:1013F000A400E550BFF35F8F00220B4B1A6086F309
:10140000108870BD0121A1400A4BA200D5500A4BA3
:1014100020001A788A4305491A70FFF7BBFA0021A9
:101420002000FFF781F9E5E7280100D075120010D0
:1014300038600540A4360020923B0020F0B54F46AE
:10144000D6464646C0B507002C4C616A0D00A66A18
:10145000616AA942FAD18B4208D805D00120E0BCCC
:10146000BA46B146A846F0BDB242F7D9EFF3108AAA
:1014700072B6234801680029FCD0BFF35F8F0125B5
:10148000BD4020491D4C8846097889462943C9B288
:101490008C46414660460870391D890065630A51D3
:1014A0001949B8004350216A0020294219D0616AC5
:1014B0000800A66A616A8142FAD18B4219D801D12B
:1014C000B24216D8CC4516D00C4B1F221D625D636C
:1014D00001233A4093400D4A0120136043464A4697
:1014E0001A70BFF35F8F0022054B1A608AF31088D1
:1014F000B5E70020F5E70120F3E7C04600400540CE
:10150000280100D0923B0020703B002080E200E0E8
:10151000EFF3108C72B60A490B68002BFCD0BFF3B6
:101520005F8F01238340074A0748136202789A437A
:101530000270BFF35F8F00230B608CF3108870473D
:10154000280100D000400540923B002070B5050006
:1015500014001600002915D00C00002A12D0806853
:101560006B689847296800280ED073009B196200A9
:10157000033B1219CB18033A9C7088188A5C002A26
:1015800015D10670200070BD63001B197200033B6B
:101590009219CB18033A9E7088188A5C002A02D1EF
:1015A00004703400EEE75A7004703400EAE75A70B1
:1015B0000670E7E730B583600023CCB24373013394
:1015C000047342608373C4730D000068012C06D954
:1015D000421C0133DBB2137003329C42F9D1FF216C
:1015E00029404B005B18C01800230338437030BDFE
:1015F000F8B505000C1E07D0630001681B19033BFA
:10160000CB185A78002A01D12000F8BD500080186C
:101610000338091800204F784870210058702800BE
:10162000FFF794FF390006002800FFF7E1FF0400F0
:10163000002EE9D0002826D031002200A8686B686F
:101640009847296800280FD063001B197200033BDC
:101650009219CB18033A9E7088188A5C002A00D031
:101660005A7004703400CFE773009B196200033B8B
:101670001219CB18033A9C7088188A5C002A00D093
:101680005A700670C0E73400BEE7C046F0B5574652
:101690004546DE464E46E0B50D006B0001685B191D
:1016A000DF1E0400C85D83B00192CA19002850D023
:1016B00043001B18033BCB185E78B446002E1AD1AA
:1016C000019E002E42D0E67B002E04D073009B19B1
:1016D000CB18033B5D70A37B002B00D1A573E57392
:1016E00000282FD10023537003B0F0BCBB46B24694
:1016F000A946A046F0BD72006244033A8A185178A8
:10170000884600215170894659703200010020003E
:10171000FFF71CFF43468246002B07D05B00216881
:101720004344033BCB185A78002A16D1424651460F
:101730002000FFF70BFF2168019BCA19002BC2D1C3
:101740000028CFD043001B18033BCB180021997011
:10175000C8E7019B002BB6D1C4E7500080180338BE
:10176000091848788346484648705870414620001A
:10177000FFF7ECFE594680462000FFF739FF41464F
:1017800002002000FFF7E2FE8046CFE7F0B55746A3
:101790004546DE464E46E0B583B00191457B0400E8
:1017A0006B0000685B19DF1EC15DC219002952D0B1
:1017B0004B005B18033BC3185E78B446002E1CD167
:1017C000019E002E44D0E67B002E04D073009B19AE
:1017D000C318033B5D70A37B002B00D1A573E57399
:1017E000002931D1002328005370617303B0F0BC8D
:1017F000BB46B246A946A046F0BD72006244033A19
:10180000821850788046002050708146587032000F
:101810002000FFF79BFE43468246002B07D05B006B
:1018200021684344033BCB185A78002A17D142461B
:1018300051462000FFF78AFE019B01002068C21973
:10184000002BC0D10029CDD04B005B18033BC3183F
:1018500000209870C6E7019B002BB4D1C2E750006E
:1018600080180338091848788346484648705870ED
:1018700041462000FFF76AFE594680462000FFF7E8
:10188000B7FE414602002000FFF760FE8046CEE72B
:1018900070B5040000292CD0437B8B422ED0056804
:1018A00048004018033828188278002A21D05300B5
:1018B0009B18033BEA5CEE188A4202D11BE0002A27
:1018C00008D053009B18033BEB185A788A42F6D194
:1018D00042785A7000230122837043702000FFF782
:1018E000D5FE617B02002000FFF730FE607301200F
:1018F00000E0002070BD43783370EBE7012219004F
:10190000FFF7C4FE60730120F4E7C046F8B5CE4689
:101910004746040080B506200E0000F01DFA051EA3
:1019200051D0524B5249E21853425A418023DB03B3
:101930009C4692054F4B62441A604F4B1A60100050
:101940008B689843FBD1494B4C4AE31859424B41B1
:1019500080215B0049009952062000F0FDF931001A
:10196000C00000F061FBC30932D140220121904642
:101970006162A362256BEB0736D427008026E36AF9
:1019800000232C3776013E4333600620256300F0A8
:10199000E3F94146800000F047FB236B05009846C1
:1019A000DB073BD46023E26A5A400E3313403360B6
:1019B00043462363802310229B013B431A60304B34
:1019C00023630323A3642800C0BCB946B046F8BD16
:1019D0002C4A93423FD900232B492C4A6162A362CF
:1019E000256B9046EB07C8D52200C02330329B01FF
:1019F0001343234A06201A60666AA36AB601F618E2
:101A000000F0AAF9224900F00FFBB60201003000F5
:101A100000F00AFB0021FFF7A1FCAEE72200C02383
:101A200030329B011343164A06201A60636AA26A89
:101A30009B019946914400F08FF94B4614499B0253
:101A4000994600F0F1FA0100484600F0EDFA002155
:101A5000FFF784FCA6E77F22990188460240013205
:101A6000520819009044130082E7C0460080FCBF72
:101A700000C0004000E0004000F00040803B00203B
:101A800001030000FEFF0000FFFF0000C0FF3F0059
:101A90004E0E000010B50C2082B000F0B3F9FEF736
:101AA0009FFD00280ED08A4B8A4A1A605A609A60BD
:101AB000DA601A615A619A61DA611A62864A5A6278
:101AC00002B010BD854CA06700F0A4F90122844B40
:101AD0001A60636C012BFCD10322824B1A607F4A8F
:101AE000936B012BFCD1013301217F4A7F48009386
:101AF000043300F037F905237D4A009301217D4826
:101B000000F030F97C4B5A68FF2A02D8802252003C
:101B10005A608022734B6E4C12011A6021690029B1
:101B200007D0606900F080FA013043001B18033BC6
:101B3000FDD2E022704B714819680A40026002220F
:101B40001968514001320A40042102609A6811422A
:101B5000FCD080216A4A09011160802252005A603B
:101B6000684B2361684B5968FF2900D85A600322EB
:101B700001215B4B1A60644A93681942FCD0E02350
:101B80001068034061480360126803234A40022141
:101B900013405D4A036093681942FCD080215C4B7E
:101BA0000901196080215B4B4900516063615A4B08
:101BB0005A68FF2A00D859608022584B12011A60D7
:101BC000E169002907D0606900F02EFA0130430076
:101BD0001B18033BFDD2E0234F4A11680B405049CC
:101BE0000B6080214F4B090119608021394B49005E
:101BF0005160E3614C4B5A68FF2A00D8596080223B
:101C00004A4B12011A60216A002907D0606900F06E
:101C10000BFA013043001B18033BFDD2E023424A7C
:101C200011680B4042490B608021424B0901196049
:101C300080235B0053608022264BD20223623E4BFE
:101C40005968914200D25A6080223C4B12011A60BE
:101C5000616A002907D0606900F0E6F901304300AD
:101C60001B18033BFDD2E023334A11680B40344973
:101C70000B608021334B090119608023DB02536024
:101C8000154B6362304B5A68FF2A02D880225200FB
:101C90005A6080222D4B12011A60A169002907D0D9
:101CA000606900F0C1F9013043001B18033BFDD20D
:101CB000E023254A11680B4025490B608021254B04
:101CC0000901196080235B005360124BA361F7E6A2
:101CD000C0360020006CDC021BB700000080004012
:101CE0003CB0004030B00040002F685900800240F6
:101CF000008C864700C00240308000403090004099
:101D000030A00040001BB7003C8000403C900040E9
:101D10003CA00040405973075480004054B000403C
:101D20005490004054A000406080004060B00040EB
:101D30006090004060A000406C8000406CB00040AB
:101D40006C9000406CA000404880004048B00040CB
:101D50004890004048A00040014B8000C0587047A8
:101D6000C0360020F8B5040021481D0017000E0001
:101D700000F05AF90100380000F056F9069B2904DA
:101D80001B0319432368002B20DB1A4B1A4DE21862
:101D900053425A4180235B019C461203174B624415
:101DA0001A60174B1A601700AB689F43FBD1C02223
:101DB000231D92011A4321232660A060136023682B
:101DC000002BFCDA0823E1601360F8BD3F23226892
:101DD0001340B342D9D1A3681B051B0D8342D4D154
:101DE000EE22E368D20213408B42CED1EDE7C0462B
:101DF000001BB7000040FDBF00C0004000E00040F5
:101E000000F000408023024A9B000343D3627047E6
:101E100000800540AA23064A1B0113602F230549B1
:101E2000D360054B19605368002BFCDA7047C0463D
:101E30000040024000B0FA00006002402C4B2D4AE6
:101E400070B51A602C4A2D4B2D491A6014008B680E
:101E50009C43FBD12B4D2C4EB54208D2013E761B44
:101E6000B60808CD984723000134B342F9D1FFF7F3
:101E700011FE264A214B1A60214A9368DB43DB019D
:101E8000DD09002BF9D14022214B224C224E9A67CA
:101E90005A671A67DA66B44208D223682000002B1A
:101EA00020D00834FEF7D0FEB442F6D31B4C1C4EB3
:101EB000C022B168200000F0BFFBB460FEF708FC50
:101EC000FEF79AFEFFF774F8164C174EB44208D28C
:101ED000013E361BB60808CC98472B0001359E42C0
:101EE000F9D170BD0834FEF7A1FEB442D5D3DDE7C9
:101EF00000E00040BFCDFBFEFE7F3C0000F0004054
:101F000000C00040482E0020582E0020FFFFFF0197
:101F100000F00140402E0020482E0020000000204C
:101F200000ED00E0582E00205C2E002000BEFDE7F2
:101F300010B5FFF7FBFFC0460FB400B5084883B0EB
:101F400000F0AEFC049B002B07D005A918000191FE
:101F500000F018F8034800F0A3FC0120FFF7E6FFAB
:101F6000EC520010FC52001010B50148FFF7E4FFDE
:101F70000053001010B5002800D110BD00F044FC43
:101F8000FBE7C04610B5094A0300146884B0002C72
:101F900008D0012200910648524203A9A04701201F
:101FA00004B010BD00F07CFC0020F9E7343B0020B9
:101FB000751F001001480421014B1847E02D002037
:101FC000E51F0010142310B50100188804331B8886
:101FD000984710BD162310B50100188802331B88DE
:101FE000984710BDF8B54746CE4680B50F1E19D0AC
:101FF00014239946043304000025012698464B46D5
:102000001888434621681B88984701C4431E98419D
:10201000013540420640AF42F1D13000C0BCB94664
:10202000B046F8BD0126F8E7114A936F9B0813D21A
:1020300010665166002905D0FFE7FFE7FFE7516F03
:10204000106F704704B5002801D00020C04303F092
:102050006FF8002104BDC046F0B5146E556E576F81
:10206000166FFFF7E5FF1466556657671667F0BDF4
:10207000000000D094464A4A926F9208624601D20C
:1020800028E0C046F0B5464E346E756E776F366FF9
:1020900000F020F89446424A146655665767166762
:1020A0006246F0BD94463E4A926F9208624601D263
:1020B00054E0C046F0B53A4E346E756E776F366FA9
:1020C00000F04CF89446364A146655665767166712
:1020D0006246F0BD002B24DB11D000293EDA00B5AA
:1020E000C943404200D1013100F038F8C9434042B1
:1020F00000D10131DB43524200D1013300BD002A3F
:10210000EBD1002801D1002905D00020C90FC90753
:1021100001D1C043410800B503F002F800220023BA
:1021200000BD00B500290ADBDB43524200D1013378
:1021300000F014F8C943404200D1013100BDC94349
:10214000404200D10131DB43524200D1013300F063
:1021500005F8DB43524200D1013300BD002923D1F1
:10216000002B18D1002A0CD0BC460D4F38667A6679
:1021700000210023FFE7FFE7FFE77A6F386F67462C
:102180007047002801D00748010000B502F0C8FFE1
:102190000022002300BD02000B0000200021704738
:1021A000000000D0FFFFFFFF002B00D0BFE0130CAA
:1021B00028D1002AE7D080B4114F39667A66FFE74C
:1021C000FFE730B4040C7B6F396F1B0423433B667D
:1021D0007A66FFE7FFE7FFE7C04684B27B6F3D6F9B
:1021E0001B0423433B667A66FFE7FFE7C0460023F4
:1021F0002C042D0C7A6F386F00196941B0BC704700
:10220000000000D0F0B594460025140E01D1120252
:102210000835140F01D112010435940F01D1920039
:102220000235D40F01D152000135D40B0134254FB2
:102230007C66254C3C660E0C93B2FFE7FFE7FFE798
:102240003C6F6643360C7703BE467343DF0B5B047B
:10225000C01AB941130C7343DB18C91ACE08664380
:10226000360CB64493B273431F0F1B01C01AB94119
:10227000130C73431F0B1B05C01AB941860D8F0247
:102280003E436643360C092D24DB520A7243801A02
:102290007703460A6643360C16235B1BDE40DF409D
:1022A000BF1964466643821B70460435063301003D
:1022B000D940A840C01900D30131A24206D2002360
:1022C000F0BD0000000000D0FFFFFFFF121B013037
:1022D000F3D3F1E709277F1BFE406446A2B27243A5
:1022E000801A00D20139220C7243130C1204821A94
:1022F00099410B007046043513370100F940A8409E
:10230000801900D30131002B02D1A2420AD2F0BDC4
:10231000013000D30131121BFAD2013BF8D1A242A5
:1023200000D2F0BD013000D30131121BF7E7F0B548
:102330001C0C00D080E00CB400251C0A04D11B0248
:10234000160E3343120208351C0B04D11B01160F65
:102350003343120104359C0B04D19B00960F334389
:1023600092000235DC0B02D192185B4101351C0052
:10237000971864410134464F7C66464C3C660E0C0F
:10238000FFE7FFE7FFE7C0463C6F6643360C770385
:10239000BE4697B27743C01B00D20139C01B00D2A2
:1023A00001399FB27743C91BC91B170C77437E04C1
:1023B000FF0B801BB941CE086643360C0C2D33DB76
:1023C000B644120B1F053A431B0B97B27743C01B51
:1023D00000D201399FB27743C91B170C77433E04E3
:1023E0003F0C801BB941860D8F023E43664329276F
:1023F0007F1BFE400C3D7746AF40BF1930BCA2B2F8
:10240000ABB272437343801A9941220C7243130C8E
:102410001204801A994102000B000137001BA941E8
:10242000F9D2781E0021F0BD0C277F1BFE407746B5
:102430007F0BAF40FF19E0E700245D1C07D0144F6D
:102440007D663966FFE7FFE7FFE7FFE73C6F95B280
:102450009EB265436643401BB141150C1E0C65439B
:10246000664336042F0C3E432D04401BB141994274
:1024700004D202000B0020000021F0BD01D19042E7
:10248000F7D3801A994101349942F2D3F6E700005C
:10249000000000D0FFFFFFFF132370B51D78012D52
:1024A00015D010DD1C48FFF795FD1C4C0100802263
:1024B000200000F0C1F8022D06D01948FFF782FD78
:1024C000184B186070BD154C174BA364F5E7164BFD
:1024D000124C23606360A360E36023616361A361C6
:1024E000E36123626362A362E36223636363A363C2
:1024F000E36323646364A364E36423656365A365A2
:10250000E36523666366A366E36623676367A36781
:10251000E367A364D1E7C04653440000602F002066
:102520004C330000643B00202D25001007B56046A9
:1025300001880A0A0230DF2AFAD1C9B2820804D31C
:10254000028840880004104300E00068014A5050AF
:10255000039007BD602F002051434343C9188C46A8
:10256000110C83B24B4310B4040C614392B280B29D
:10257000504362431C041B0C001910BC5941130446
:10258000120CC0185141614470470000132310B56C
:1025900012481C78FFF71EFD0100012C0AD003DD54
:1025A00080220F4800F048F80E48FFF70BFD0E4B55
:1025B000186010BD0A4C5422200000F03DF80B4B6F
:1025C0006365A365E36523666366A366E3662367C5
:1025D0006367A367E3672362E361E5E753460000AF
:1025E000603000204C330000643B0020F1250010D7
:1025F00007B5604601880A0A0230DF2AFAD1C9B25B
:10260000820804D3028840880004104300E0006878
:10261000014A5050039007BD60300020014804215A
:10262000014B1847F02D0020E51F0010014B1B68DF
:1026300018470000F02D0020014B5B681847000090
:10264000F02D0020030010B5080011001B6898470A
:1026500010BDC046F0B546464F46D646C0B5437D90
:1026600080460E001700002B46D0002A3FDD4B1E8F
:102670009946244B0125002400209A460DE04B4644
:102680001B5D0D3B5A425341325DDBB20A2A0BD02F
:102690002B00013401359F421ADD002CEFD1434657
:1026A000325D1B7D0A2AF3D1002BF1D1A04204DA5E
:1026B0004346211A1B6830189847434650461B680A
:1026C00002219847013428002B0001359F42E4DCA9
:1026D000874204DD4346391A1B6830189847F619BB
:1026E000013E33780D3B5A42534142461375E0BCDC
:1026F000BA46B146A846F0BD0368110030009847BD
:10270000F5E7C04670530010F0B5DE4657464E461A
:102710004546E0B585B017001C0006000D00FEF729
:1027200013FE0023314A12184B41802109068B42C7
:1027300002D301222E4B52422E4908008A4602F053
:1027400017FD01906B1C03D1300002F0AFFC0500B7
:10275000002C25D1284B9846284B1C68002C15D0FE
:10276000002F20D1264F02E02469002C0ED02368D0
:10277000002BF9D03B68002B01D0A342F4D12000FC
:102780002A003100C0472469002CF0D1019B002BA6
:1027900027D105B0F0BCBB46B246A946A046F0BD65
:1027A000184B9846D8E7164B994602ABDF1D0A2313
:1027B0009B4602E02469002CE8D02368002BF9D066
:1027C0004B461B68002B01D0A342F3D12A003100F5
:1027D0002000C0475B460122390020003B70C04703
:1027E000E8E7504602F094FCD3E7C04640420F00B1
:1027F000FFFFFF7F402E00205526001028370020C5
:102800003037002045260010F0B5CE46474680B54B
:1028100083B06B460600DD1D2870FEF795FD002392
:102820001A4A12184B41802109068B4202D3012219
:10283000174B524217490800884602F099FC164B84
:1028400081461C68002C14D0144F02E02469002C2F
:102850000FD02368002BF9D03B68002B01D0A34296
:10286000F4D1200001222900FFF7F4FE2469002C96
:10287000EFD14B46002B05D1300003B0C0BCB946A8
:10288000B046F0BD404602F043FCF5E740420F0081
:10289000FFFFFF7F402E0020283700203037002028
:1028A00070B5040002F002FC0023010005000122C3
:1028B0002000FFF729FF084B1C68002C06D0636836
:1028C000002B05D098472469002CF8D1280070BD52
:1028D0002469002CF3D1F9E7283700200A4A13684D
:1028E000002B05D10CE01A001B691032002B07D019
:1028F0009842F8D1002902D1036913600161704741
:102900000029FCD01060FAE728370020F0B50D1E32
:1029100015DD0E4B0E491A680E4B0D27D3185C427D
:1029200063415B005E5E202145190478A64207D012
:1029300093691942FCD101301460A842F5D1F0BD71
:1029400093691942FCD11760F2E7C046883B00202A
:10295000803B00200080FCBF30B50500002925DD4C
:10296000002010241B4B013D1A6893691C4218D1AA
:10297000013093691C42FCD113682B548142F4D17D
:10298000154B1B68002B0BD0502338219363536BDE
:102990003432194080235B0113431960002815D09D
:1029A00030BD0D4B1B68002BEED1F7E70A4B1B68BF
:1029B000002B0BD050223821064B1B689A635A6BB0
:1029C00034331140802252011343196003204042E6
:1029D000E6E7C046883B0020B4360020064B10B521
:1029E0001B68002B06D00021044A12689163044A38
:1029F0001068984710BDC046B4360020883B0020C0
:102A0000B83600201D4BF0B51A68C64698461C4BD8
:102A10000E00D31859424B411A4F14331C000500C5
:102A200000B53B68002807D0002B11D0164B3D6045
:102A30001E6080BCB846F0BD002BF7D0906300212B
:102A40002000FDF771FE20001049FDF7A3FFEDE720
:102A500020000E49FDF782FE01212000FDF764FEF3
:102A60004346502238211B689A635A6B3433114015
:102A70008022520113431960D8E7C046883B0020EA
:102A80000080FCBFB4360020B8360020DD290010DD
:102A900070B50C4E0D001C003060002A03DB0221D3
:102AA0001000FDF767FD002C03DB02212000FDF77D
:102AB00061FD29003068FEF729FF01210248FFF778
:102AC0000DFF70BD883B0020002E002010B50121B5
:102AD0000520FDF729FE10BD10B500220021024897
:102AE00000F05AF910BDC046543700208022024B36
:102AF0005202DA647047C04600201150F0B5C64655
:102B000000B5060000F022F90C231B4DFF22AB6735
:102B100005201A49FDF74CFE40239846184C4022E8
:102B200000212000FFF782FD434601272383212156
:102B30000023144A6770A260136063545F3161849C
:102B400041462187053963540F4A10496360E260AA
:102B5000A1620B606362E26202F032FB80239B059C
:102B60002F64EB6490230A4A3000EA50FFF7BEFF5F
:102B700080BCB846F0BDC0460000115025030020BF
:102B80003437002084001050000110508000105095
:102B900010D001000B785B0602D14B78052B00D0DA
:102BA00070478A78014B1A60FAE7C046000011505E
:102BB000F0B5C64600B5CC7888780A794B797F2184
:102BC000A40701401B02C50913434F00A20F1400C4
:102BD000324E7A195201B21890700120684050703C
:102BE00000205B055B0DD0701383D4768046CA004D
:102BF000012D33D02A488446880162448446B44477
:102C00006046826040461060002933D0254AC900E2
:102C100090466246414451603F223F339343022C29
:102C200000D15B0020487A1901685201B218D160C6
:102C30001E4ACB18036051405A40802388465B01EE
:102C40009A4228D84346A4061C4380237F197F015B
:102C5000F61972681B062343136011E0144884467A
:102C6000880162448446B4446046826240461060F3
:102C7000002909D100236D0175196B600D4BEB60C4
:102C8000012080BCB846F0BD084AC90090466246A3
:102C900041445162C0E7FFF767F9D3E734370020BA
:102CA0008400105004001050383B002000001050E9
:102CB000800010500001105010B502F081FA10BDD4
:102CC00010B57F200C0020404000E40911000019DD
:102CD0001A00034B4001C01800F05EF8012010BD3F
:102CE000343700207F23180010B508400B420BD06A
:102CF000C90980224000074B401840010021C0183C
:102D0000120102F055FA10BD0223034AC9095B1AE9
:102D10009366EEE734370020002011507F22130025
:102D200010B50B400A4200D110BDC9095B005B1809
:102D300004485B01C018002300220349C37002F05D
:102D400037FAF1E734370020FFF7FFFF80220D4B01
:102D5000520410B51A600C4B0C491A6010008B68B5
:102D60009843FBD10A4C9C2200212000FFF75EFC17
:102D70008022002152010748FFF758FC09236367AE
:102D800010BDC04600E0004000F0004000C0004020
:102D9000000011500000105070B5837E04000D003B
:102DA0001600002B17D10023E38201332000A682F6
:102DB000A376256102F0ECF9002804D0802190234D
:102DC000084A8902D150200002F0C2F9002805D03B
:102DD0000123237770BD02F0E3F9E4E7200002F05D
:102DE000CFF9F7E700201150F0B5C64600B5224EE6
:102DF000224A050000243378002A2AD0204A214F95
:102E00009046A3422ED8E31ADBB2012B02D980BC34
:102E1000B846F0BD5A00D318DB00FB185B682800E9
:102E2000984733780134E4B25A1CA242E9DA164CCE
:102E3000532200212000FFF7F9FB1022FF21E01CA4
:102E4000FFF7F4FB20002022FF211330FFF7EEFBF9
:102E5000DDE700F033FF280001F0A0F93378002B04
:102E6000D5D1E4E7434662001B681219D2009B18D3
:102E7000002BD3D1CBE7C0468C3B002000000000E4
:102E8000603100206854001088350020024B5878CB
:102E9000431E9841C0B2704788350020024B187815
:102EA0004007C00F7047C04688350020034B187894
:102EB000FF38431E9841C0B27047C0463C2E0020E8
:102EC000F8B5CE46474680B5304E04003378012031
:102ED000FF2B03D0C0BCB946B046F8BD5322002139
:102EE0002B48FFF7A3FB2B4D2800FDF79FFE2A4B35
:102EF0001D602A4D28001430FDF7B4FE280002F0B2
:102F00006FF8274B274F1D60274B9846002B04D0A6
:102F1000380000E000BF254B1860424600253B7892
:102F2000002A20D0224A9046204A9146AB4223D81C
:102F3000EB1ADBB2012B01D90020CBE75A00D318E2
:102F4000DB0043441B6898473B780135EDB25A1CBF
:102F5000AA42EBDA20003470FFF7D0FD2000FFF723
:102F6000B5FD0120B6E700F071FE01F00DF93B78E8
:102F7000002BEFD00020ADE74B466A001B685219CA
:102F8000D2009B18002BDDD10020A3E73C2E0020AF
:102F90008835002040350020DC350020202E002020
:102FA000E03500208C3B0020000000006031002054
:102FB00068540010F0B5DE4657464E464546E0B52B
:102FC00091B001F04DFD002855D0C34BC34D99463B
:102FD000C34B0DAC9A46132353449B4656462F6869
:102FE0007A69EFF3108172B61368002BFCD0BFF33F
:102FF0005F8FB9613800210001F03AFE7A69BB6940
:10300000BFF35F8F0021116083F31088002832D056
:103010006378082BE3D84A469B00D3589F466368E1
:10302000002BDCD0A0689847D9E77F202179AC4AF3
:10303000084043009C46130063449846CF09B844B7
:10304000424601233032D7789F43D770D778033375
:103050009F43D770002800D181E04346A14ADB7C22
:10306000002A06D0A04A1278934200D2D2E09B1ADE
:10307000DBB2012B68D911B0F0BCBB46B246A94601
:10308000A046F0BD0122337801201343337033236F
:1030900004216027F25C8243F254F25C8A43F254CA
:1030A0000133F25C8243F254F25C00208A43F25412
:1030B00023789A4600F09AFC23791F40602F0AD0AB
:1030C000402F52D0DB06DB0E012B00D1ABE0022BF0
:1030D00065D0002B57D020780021FFF703FE802118
:1030E0002078FFF7FFFD7AE77D4B1B78DB0700D4E4
:1030F00075E77E4B002B00D171E7FDF765F96EE7B0
:10310000774A1378DB0700D469E7794B002B00D1AD
:1031100065E710780007C00FFDF74EF95FE72078EC
:10312000FFF762FE00F058FC724B002B00D156E70F
:10313000FDF73CF953E72078FFF756FE00F04CFC12
:10314000674B22799A704AE75A006B4FD318DB001D
:10315000FF18A368627920783F69B8473FE7A36802
:103160006279207800F056FC39E764480028B2D034
:1031700000F03CFC012150460EAA00E000BF0028F0
:1031800000D02CE7A7E7202F00D165E1002FA2D1C6
:103190006379092B9FD85A4A9B00D3589F467023C6
:1031A000217A0B4297D10F330B405B00CA09F0180C
:1031B0008018C07C019384464A48002808D04A48B9
:1031C0000078844500D29FE06346181AC3B29C463B
:1031D0006046012860D9002F00D07CE70023984684
:1031E0006779022338009843012800D154E1002F69
:1031F00000D070E7019BF3189B183033DB780CAAE2
:103200009B07DB0F02321380504602230EA900F009
:103210008DFBE4E63B4A58001768C318DB00FF1833
:10322000002F96D127E7237A0F2B00D953E72D4A99
:10323000F318DB78002A05D02B4A1278934241D349
:103240009B1ADBB2012B00D945E75A002A4FD3184D
:10325000DB00FF18F86800F0C9FB01215046FB684D
:103260000EAA9847002800D0B9E6602217002379FB
:103270001F401A4200D02EE763790A3B012B00D988
:1032800029E700F0B3FB63790A2B00D151E15046E6
:103290000EA900F035FBA2E663465B009846E044C9
:1032A0004346DB00984614488044002F98D043469C
:1032B000D86800F09BFB434601215046DB680EAA0C
:1032C00098475CE70F4A59001768CB18DB00FF18D6
:1032D000002F00D1FFE6BDE7DC530010E0350020F1
:1032E00088350020000000008C3B0020C90300103E
:1032F000B9030010AD030010685400100000000076
:10330000005400106031002063465B009846E044A2
:103310004346DB009846D04800688044002F00D127
:103320005EE74346002BC2D1D5E6A37906931A0087
:1033300073789A4207D07378002B00D055E1069B32
:10334000002B00D0FEE0069B50460EA9737000F0E3
:10335000D7FA44E673780CAA023213705046012360
:103360000EA900F0E3FA3AE6E088030AC0B20F2B98
:1033700000D9B0E6B9499A008A5897460EA800F0DD
:103380003BFB5046A179FFF7A7FB0222337813439A
:10339000337024E6E388012B00D09CE608223378C2
:1033A000504693430EA9337000F0AAFA17E60220A4
:1033B00031780CAB9A1C8B068908DB0F01400B435C
:1033C00021E7E388012B00D085E6082233785046B8
:1033D00013430EA9337000F093FA00E6A04B002BC4
:1033E00000D178E600E000BF021E00D173E6D3787A
:1033F00091781B020B4350460EA900F097FABEE6E7
:10340000984B002B00D166E600E000BF021E00D101
:1034100061E6504613780EA900F088FAAFE62189DC
:10342000FCF7E6FF021EF4D155E6022B00D1E5E0E1
:103430008D4B002B00D14EE600E000BF0200002AB9
:1034400000D148E6D3E7FCF7CBFF122302000EA918
:10345000504600F06BFA92E6237A0F2B00D93AE639
:10346000824AF318DB78002A05D0814A1278934209
:1034700034D39B1ADBB2012B00D92CE65A007D4FC6
:10348000D318DB00FF18F86800F0B0FA01215046AD
:10349000FB680EAA984772E6E088002808D1019BD5
:1034A000012F25D0F718BF183037FB789B0733D58D
:1034B0004346002B00D192E5D86800F097FA4346C6
:1034C0000121DB680EAA50469847002000F08EFAD2
:1034D0003423F35CDB0700D581E5D8E65E4A59006A
:1034E0001768CB18DB00FF18002F00D1F3E5CAE7FF
:1034F000F3189B1830330193DB789B07D8D55E4BCC
:103500001878FFF70BFC0221019AD3788B43D37014
:10351000D378BB43D370CBE7574B1878FFF7E2FB68
:103520000222FB7813430122FB70FB781343FB70EC
:10353000BEE70CAB9A1C504601230EA9177000F091
:10354000F5F94CE5581EC0B2FCF74EFF002800D13B
:10355000C1E543780993022B00D0BCE50121C27973
:103560000700931152110B400A4012015B011343F3
:1035700032782F318A4313433370C37882781B0229
:103580001343C31807934B460937029503930196DB
:10359000079BBB4236D901227B7804920B2B03D1C7
:1035A000FB7804933B78FF187B78042B18D100211B
:1035B000079B2E4ADB1B9BB299462D4B88460893EE
:1035C00005911B788A4200D180E00E00294A0A92B8
:1035D000214A0B929E4271D3F31ADBB2012B1CD904
:1035E000039B029D9946019E75E55046FFF764FBDB
:1035F000B7785046FFF7F8FBB770A0E6FCF7F4FE8B
:1036000002001CE7039B029D99461C4B019E002B68
:1036100000D198E6FCF7C2FE95E6182253430A9AB9
:10362000D5184A4639005046AB689847082801D952
:10363000814508D2089B01361B78F6B25A1C0596C4
:10364000B242C7DACCE7B0460600049B012B5BD040
:103650000022404620E0C04660310020285400107F
:10366000000000000000000000000000000000005A
:103670008C3B0020685400103C2E00209D0300105D
:103680000199BB788C46D318DBB26344D978FF2903
:10369000A6D10132D870D2B2049B9A42F0D1030075
:1036A00032003900584601F05DFA089B059A1B78F4
:1036B000BF1901339A4200DC6AE791E70B9B1D6852
:1036C00018237343ED18002DABD189E74A46390022
:1036D000504600F009FB0600082801D9814511D2A7
:1036E0004A463900504600F063FD0600082800D81D
:1036F00076E7814500D273E70123074D98461835D8
:103700000593A2E7044DA0E7044BAA689A429FD113
:10371000099B04939CE7C04668540010E93C0010E4
:10372000F8B557464E46DE4645460C00E0B5160055
:103730001F00002A3CD01F4B00259A467023994653
:103740001D4B9B4617E05B462000997801F0D0F9AD
:1037500000281FD021004046FFF72AFA002819D080
:10376000A378DA09012A1CD00A9A0135137023784C
:10377000E418B5421CDA6378052B0BD1E3789B077C
:103780009B0FBB4206D153464A461B789846A37806
:103790001A42D8D00020F0BCBB46B246A946A0468B
:1037A000F8BD0B9A013513702378E418B542E2DBBB
:1037B0000120F0E73C2E002088350020702270B5F3
:1037C000094B0C001D788B781A4201D0002070BD87
:1037D000064B2000997801F08BF90028F6D02100E3
:1037E0002800FFF7E5F9F2E73C2E0020883500209D
:1037F000074A0B0011687F2210B51A40DB09054803
:1038000052003333D318C01801F02EF910BDC04652
:10381000DC35002088350020074A0B0011687F2224
:1038200010B51A40DB09054852003333D318C018CD
:1038300001F042F910BDC046DC350020883500207B
:1038400070B57F250F480D406D004419CE09A419AD
:103850003034E5780020ED0700D570BD0126E5780D
:10386000094835430078E570FFF72AFA0028F4D1BB
:103870000122E3789343E370E37803329343E370E8
:10388000EBE7C046883500203C2E00207F22054B08
:103890000A405200C9099B185B183033D878C0071A
:1038A000C00F7047883500207F2210B50B4B0A40AF
:1038B00052009C18C80924183034E3789B0700D5BF
:1038C00010BD074B1878FFF70DFA0222E378134377
:1038D0000122E370E3781343E370F1E788350020B9
:1038E0003C2E00207F22054B0A405200C9099B183C
:1038F0005B183033D8788007C00F704788350020B8
:1039000070B5094C0600082220000D00FEF794FE59
:1039100000238021E360A3602B78300099430022CC
:103920000023FFF78DFF70BDAC320020F8B5CE4606
:1039300047469046264E80B58146082230000D004D
:103940001F00FEF779FE4346B3600023F381EC7954
:10395000AB7924021C43231CBC4200D93B1C9FB200
:10396000B381002C12D0002F1CD04346002B2CD04A
:103970003B1C402F1BD89FB233787F2B1CD80021D3
:10398000144A3B004846FFF75BFF07E080212B7895
:103990000022994348460023FFF752FFC0BCB946B6
:1039A000B046F8BD31780022C909C901E9E74023D2
:1039B0009FB233787F2BE2D9064C3A004146200073
:1039C000FEF73AFE80212200DBE70020E6E7C04652
:1039D000AC3200204835002010B5142200210248E6
:1039E000FEF724FE10BDC046AC320020014B18612A
:1039F0007047C046AC32002010B5054C01000822CB
:103A00002000FEF719FE0023A360E36010BDC0464E
:103A1000AC32002070B5394C1D0023780600DA095D
:103A2000C9098A4213D00020002D00D070BD344B4C
:103A3000002B03D021003000FFF7ACF82369002BE6
:103A400041D022000321300098470120EEE77F2B70
:103A500006D8A068002834D02A002A49FEF7ECFDD9
:103A6000E289A1685219E38892B24919E281A16002
:103A7000934214D03F2D12D9A389981A051C80B205
:103A800040282CD82078ADB27F282AD800219A422D
:103A900032D01C4A2B003000FFF7D2FEC6E7236964
:103AA000002B05D0220002213000984700280CD0BE
:103AB000802123780022994330000023FFF7C0FEC5
:103AC000B4E70020B2E70120B0E700213000FFF7A3
:103AD00009F930008021FFF705F90120A6E740250C
:103AE000D0E79A4207D0074C2A002000FEF7A4FD39
:103AF00080212200CEE780210022CBE7AC320020DB
:103B0000952B00104835002002008000801810B569
:103B1000C0008018034BC0001030C01801F074F8CA
:103B200010BDC04664310020F0B584002418E400C4
:103B30002418E4002600C646174F1036F61900B5C3
:103B4000300092B201F0E4F80500300001F07AF89C
:103B50003F2803D8280080BCB846F0BD3B190020A0
:103B6000D9789846FFF744FE0028F3D0300001F0E2
:103B700069F83F2809D922004346C832D978D219BA
:103B800040230020FFF75CFEE4E743460020D9789D
:103B9000FFF742FEDEE7C04664310020F8B50500BD
:103BA000FFF774F9002801D10020F8BDFFF776F97E
:103BB0000028F9D1AC006419E4006419E400250080
:103BC000134E2435AD19280001F01EF80028EBD063
:103BD00037190020B978FFF70BFE0028E4D009342C
:103BE000FF34A41921002800402201F091F8B9788F
:103BF000051E08D0030022000020FFF721FE002848
:103C0000D2D02800D1E70020FFF706FECCE7C0465F
:103C10006431002070B584002418E40024180A4B95
:103C2000E4002434E418050092B2200001F028F9E1
:103C30000600200000F0E8FF3F2801D8300070BDEA
:103C40002800FFF7ABFFF9E764310020A42270B52C
:103C5000184C82B0002120005200FEF7E7FCFF2341
:103C60006371154B0025E380012608232100200005
:103C700026812373402238310095073B103000F035
:103C80008BFF00962100200026000123402278317E
:103C9000B836243000F080FF3000FCF7C7FF266202
:103CA0002600C0363000E561FCF7C0FF266365637F
:103CB00002B070BD6431002000C2FFFF10B5094C96
:103CC000052200212000FEF7B1FC20002434103032
:103CD00001F086F9200001F083F90121200001F0B4
:103CE0009FF910BD64310020F0B54B79060083B018
:103CF000022B02D18B79022B03D00025280003B0C0
:103D0000F0BD2F4FBB78002BF7D18B7809253B7086
:103D10000C780C196378242B0BD1082A02D80FE0F9
:103D2000AA420DD32378E418ED186378ADB2242BA2
:103D3000F6D0052B1FD0042B02D163790A2B2DD08E
:103D4000204C200000F07EFF3F28D7D92600103EEF
:103D50000020F178FFF74CFD0028CFD0200000F0C4
:103D600071FF3F2815D922004023F178B832002096
:103D7000FFF766FDC2E721003000FFF71FFD0028B6
:103D8000BBD0A3787B702378ED18E4186378ADB2CC
:103D9000D1E7F1780020FFF73FFDAFE70A4B277826
:103DA000019301330093022202233000E119FFF74F
:103DB000B7FC0028A1D00E35ED19ADB2C0E7C04662
:103DC000643100207431002066310020F8B5602392
:103DD00014001278050013400020202B12D12F4A26
:103DE0006379277916781B023B439E420AD1637898
:103DF000222B27D007D8202B17D0212B02D1012925
:103E00003DD00120F8BD232BFCD101293FD003294F
:103E1000F7D1234B002BF4D0E178A37809020020DE
:103E2000194300E000BF0120ECE7012927D0032956
:103E3000E7D11C4B002BE4D00020911D00E000BF17
:103E40000120DFE7012922D00329DAD101252E0044
:103E5000A378E478023924021C43147126402432EA
:103E60001000714001F0DCF80F4B002BC9D0620844
:103E7000002031002A40FCF7AFFA0120C2E70723F7
:103E800021002800094AFFF751FD0120BAE721006F
:103E90002800FFF735FD0120B4E7C046643100205B
:103EA0000000000000000000D90300106A3100206B
:103EB000F8B557464E464546DE46E0B5484F804683
:103EC000FA780C001E008A4263D19AB210233D009A
:103ED0009B46C835BB442900584600F0D1FF414BF2
:103EE000D946002B18D07B79D946FF2B14D0002E51
:103EF00012D0AA19924603E0013555450CD07B79C2
:103F00002A789A42F8D1484600F094FE0028F3D16E
:103F1000797900E000BFEFE7334B002B04D048462F
:103F200000F088FE002851D0484600F08BFE3F2864
:103F300034D84B46103B9B78A34207D00124200085
:103F4000F0BCBB46B246A946A046F8BD274B002BA5
:103F500002D0002000E000BF0020FFF71FFE002875
:103F6000ECD1234D280000F04FFE0028E6D1002EB2
:103F7000E4D0B606E2D1243D4046A978FFF738FCEC
:103F8000041EDBD0002300224046A978FFF758FC2E
:103F9000D5E7BB788B42D9D00024D0E74D46103D01
:103FA0000020E978FFF724FC002801D1AB78C3E7B3
:103FB000484600F047FE3F280BD94A4640230020E0
:103FC000E978B832FFF73CFCAB78B5E7FCF706FAC6
:103FD000AAE70020E978FFF71FFCAB78ACE7C04602
:103FE0006431002000000000DD030010000000002C
:103FF00088310020F0B54746CE4680B5364C0600E5
:10400000E18AA36849BA89B2984687B0002904D0EA
:104010001800FEF709F80104090C2369257D1B0A25
:104020002D061D43A36B2DBA18009946FDF7FCFF22
:1040300043460A0041194D465B1B8025274F607B94
:10404000AD00AB4200D92B0000933B00FCF760FAB7
:10405000051E1FDB00280BD02E2283B2A15C30008E
:104060003A00FFF7EDFB07B0C0BCB946B046F0BD63
:104070002E23E75C03AC082200212000FEF7D6FACD
:10408000072300212000267063702771059501F039
:1040900067F8E8E7124B0022A3873E233021022075
:1040A000E254123B0132E254A268A36B6054D31A6B
:1040B000A362002AD7D0002BD5D0237BDB0905D003
:1040C0002E233000E15CFFF7EFFBCCE72F2330001D
:1040D000E15CFFF7E9FBC6E7003500200033002074
:1040E000023A00001E4B70B505001E4C002B04D098
:1040F000607BFCF71FFA002810D0A26BA3689B1A04
:1041000080229200934207D82F212800164A615C32
:104110009BB2FFF795FB70BD1300F5E7134B01222F
:10412000A3873E233021E054123BE254A268A36BE4
:104130000230D31AA3626054002AECD0002BEAD0DC
:10414000237BDB0905D02E232800E15CFFF7ACFBC5
:10415000E1E72F232800E15CFFF7A6FBDBE7C04681
:10416000350500100035002000330020072700002F
:1041700010B53C24034801553D2142543E2283544E
:10418000012010BD0035002010B54022002102485A
:10419000FEF74CFA10BDC0460035002010B5402295
:1041A00000210248FEF742FA10BDC046003500204B
:1041B00030B54B79040083B0082B02D18B79062BE4
:1041C00002D0002003B030BDCB79502BF9D1162A94
:1041D000F7D98A780E4D233BEA540B780222C9188E
:1041E0002B002E3301932B002F3300930223FFF774
:1041F00097FA0028E5D030230022EA54013BE95C1D
:104200002A002000103BFFF71BFB1720DAE7C0460F
:104210000035002070B50500140082B001292AD1B4
:104220007F2312781340022B28D0602300201340F4
:10423000202B21D16378FE2B50D0FF2B1CD1E378AB
:10424000A2781B02134317D1E379A2791B0213430F
:1042500012D1302200213C4B98540E32586398639F
:104260009887995428002100FFF74AFB012003E0BA
:104270002800FFF719FB012002B070BD6378012B05
:10428000D3D1E378A2781B0200201343F4D130226B
:1042900021792D4CA35C042BEAD02E20205C88428F
:1042A00041D02F22A65C8E42E5D1002BE3D1310014
:1042B0002800FFF7EBFA0028DDD131002800FFF7D6
:1042C00011FB0028D7D130230022E254013BE15CEE
:1042D00022002800103BFFF7B3FACDE7E378A2787D
:1042E0001B0213431BD1E379A2791B021343012B59
:1042F00015D16A46D371154B002B12D000E000BFD8
:1043000000280CD00138C0B26B466A46D871210033
:10431000012328000732FFF709FB0120ACE700204A
:10432000AAE70020F0E7022BA5D1A16BA3685B1AD6
:10433000A3620323A35422000100203228000A3381
:10434000FFF77EFA98E7C046003500200000000025
:10435000F0B5454657464E46DE46E0B51F003023D1
:10436000B94C0500E65C984691B0012E0ED0032EA4
:104370005FD0002E1BD0022E00D188E0012011B0AA
:10438000F0BCBB46B246A946A046F0BDE37B282B55
:1043900073D02A2B00D1BAE0A36B227BFB18A36356
:1043A000D20900D1A4E0626B93426DD2E6E7013BF3
:1043B000E35C8B42E2D11F2F00D085E0A34B226843
:1043C0009A4200D080E0A24B4246236263682C27C9
:1043D00063620123E655A354E27BA368A66263638C
:1043E000A663282A00D1D2E02A2A00D169E2002B54
:1043F00000D1F1E0207BC00900D0EDE080229200E6
:10440000934200D822E2A3623023D53AFF3A01302A
:10441000A0542A3AE2540C33E35C002B03D18D4ABA
:10442000A2873E22A3542800FFF73EFA3023E65C21
:10443000A1E72E23E35C8B42A0D10D2F9ED1E37B1D
:10444000282B00D135E22A2B00D12AE2824B002B07
:1044500004D02100607B0F3100E000BF0023302634
:10446000A3552F33E15C22002800103BFFF7E8F949
:10447000002800D1F2E1A65D7DE7A36B626BFB181B
:10448000A363934200D27DE030230222E2542E2621
:104490002800A15DFFF726FA002800D06EE7A36888
:1044A000A26B934202D9217BC9091CD19B1AA3623A
:1044B00003223023E2542200023BE15C2800203238
:1044C000213BFFF7BDF95AE704223023E254023BB7
:1044D000E15C2800FFF7E8F92F232800E15CFFF7F3
:1044E000E3F900204BE72800A15DFFF7DDF945E780
:1044F0002100A38E594A607B0F31FCF731F8002868
:1045000000DAAFE1A26B636B9A42BDD28EE7E18A1B
:1045100049BA89B2002900D1A2E1A068FDF784FD63
:104520000104090C2369267D1B0AA06B36061E4375
:10453000FDF77AFD36BA494B0A008119607B009776
:104540009846FBF7F9FF002800DAD1E1874238D915
:104550003F1A002800D00CE22F2307AEE35C0822AC
:10456000002130009846FEF761F807237370434638
:104570003570337130000021099700F0F1FD3023D0
:10458000E65CF8E6FFF736FD4346E65CF3E6E08AD4
:1045900040BA80B2002B00D0F7E1002800D173E7C9
:1045A00002232C22A3540022A2623032A3543A33B5
:1045B000E35C002B00D06AE7264AA2873E22A35480
:1045C00065E7A36B626BFB18A363934200D35BE7C1
:1045D0002800FFF787FD29E7667B252A03D82049B5
:1045E00092008A5897463C22A25C002A4FD11B4A6F
:1045F00090462100424630009BB20F31FBF7B0FFDE
:10460000002844DB002800D07BE0A368002B00D109
:104610003AE72C220121A154A26B01319B1A3022CE
:10462000A362A1540C32A25C002A03D10949A187DC
:104630003E216254002B00D129E7237BDB0900D106
:10464000FDE12E23E15CEEE60035002055534243A8
:1046500055534253052000000000000000330020A5
:104660009854001006AF3A00300007A9FBF73EFF50
:10467000079B3A88002B02D0002A00D0E2E13C23BD
:10468000E35C002B03D1D64AA2873E22A3542C23FD
:10469000012230210220E254A268A36B6054D31A95
:1046A000A3620C31615C002903D1CE48A0873E2073
:1046B0002154002A00D1EAE6BCE707AF0C22002112
:1046C0003800FDF7B3FF02AA94460E2363441A0094
:1046D000300006A99846FBF709FF069A002ACED0BB
:1046E00043461B88002BCAD0082112BAF9700892E1
:1046F00002225BBA7B81BC4B3A72984607CF07C354
:104700000C20A368002B00D052E101222C33E2548C
:10471000A36B01325B42A3623023E2540C33E35CAF
:10472000002B00D0B3E647E7B04B002B00D16CE77D
:10473000E17C30008B07CA07DB0FD20F0909FBF7BA
:10474000DBFE002800D060E73C23E35C002B9ED119
:10475000A34B0022A3873E23E25498E7A44B0120F9
:10476000002B02D03000FBF7E5FE9F4B032298465A
:1047700001234340DBB2DB051343424604201360B0
:10478000BFE79C4B082207931F23202109A8089309
:10479000FDF74CFF102220210BA8FDF747FF964B99
:1047A000300009A90F930BAA0FABFBF761FE8E4BEC
:1047B00007AF1A0043CF43C243CF43C2984643CF0B
:1047C00043C224209DE70F23984642462D33E35CE5
:1047D00007AF1A403D23E35C93469A463E23994631
:1047E000E35C1222002138000393FDF71FFFF02342
:1047F0005A463B7043461340BB700A235246FB7136
:10480000039B3A737B73784B984607CF07C33A688C
:104810001A60BA889A80794B002B00D10AE1802275
:1048200041469200300000E000BF00234A46A387C3
:10483000A354984200DBE5E6667B636BD9E6300063
:10484000FBF742FE002800D17EE7DEE62800664A3C
:104850009BB2FEF7F5FF002800D0E7E500208EE5CB
:1048600000215FE62C230220E6544646A368A26B93
:10487000A055991AA1623A30205C002803D1594E04
:10488000A6873E26A055002B54D0002952D0237B6A
:10489000DB0900D19EE02E232800E15CFFF704F83D
:1048A00030E6574B002B00D1D8E5607B00E000BF1D
:1048B000D4E5544B002B00D1D0E5607B00E000BF75
:1048C000CCE5E08A40BA80B2002B00D165E6267BB9
:1048D000F60900D098E0002831D0834278D3280030
:1048E000282A00D075E6FFF785FB3023E65C42E519
:1048F0003B4A0021A2873E223026A154A36B123AE4
:104900000131A154A268FB18A3630131D31AA36239
:10491000A155002A00D1BAE5002B00D1B7E5237BD1
:10492000DB0900D17FE02E232800E15CFEF7BCFF0D
:10493000A65D20E5636B9A4200D2A8E5A4E50120BC
:104940002C22A05402200432A054A3620C32A25C98
:10495000002A08D12348A0873E202254002B00D1F2
:1049600095E5267BF609002E00D15CE52E23E15C5F
:1049700059E50100A36B0204120C9B1840463A0053
:104980004144A36300F024FCE6E5267BF609A2D1AE
:104990000222A3624346E2543C23E255E35C002B2F
:1049A00000D040E50F4B0022A3873E23E254D8E716
:1049B000984200D918002E226063A15C83B242465F
:1049C0002800FEF73DFF002800D02FE50020D6E4A8
:1049D0000220B5E72F232800E15CFEF765FF91E593
:1049E000023A00000520000000330020F904001006
:1049F0003505001000800202202020200000000069
:104A000000000000000000000222A3622C203023DE
:104A10002254E2540C33E35C002BA7D10E4AA28748
:104A20003E22A3549DE72F232800E15CFEF73CFFC4
:104A3000A65DA0E44A461220A387A35461E62F2373
:104A4000E15CF0E40549013B1BBA12BA8846082034
:104A50000B604A6055E6C046052000000033002088
:104A600010B5FEF723FA10BD037870B5DB0704001C
:104A70000E00DD0F002B17D103785B0701D528004E
:104A800070BD01213000494200F05AFB2378DB075A
:104A9000DD0F002B0AD123785B0708D4042223788A
:104AA00001251343237002E00025E8E700253000CC
:104AB00000F02EFBE3E7C04670B50D0001210400B5
:104AC0004942280000F03CFB23785B07DE0F002BF7
:104AD00004DB280000F01CFB300070BD2378DB07EE
:104AE00004D40422237893432370F2E70026F0E7EE
:104AF000437902791B0213435B055A0DC3789B0768
:104B00009B0F022B05D0032B15D00020012B08D0C2
:104B1000704702291CD00020402393424041C0B27C
:104B2000F6E702394B4259410C4B9C466144914295
:104B30004041C0B2ECE702394B425941F02300201A
:104B400049429B001940403191424041C0B2DFE7E9
:104B5000034BD01843425841C0B2D9E7FF030000CD
:104B600000FEFFFF8A1870B5914207D27F264C786D
:104B7000052C04D00C7809198A42F8D870BD34008D
:104B80008D782C4064000419ED0963550C780919DF
:104B90008A42ECD8F2E7C046F0B5C64600B504003C
:104BA00006A805788020884617001E000002824271
:104BB00027D8E068002803D00121494200F0C0FA5C
:104BC0002069002803D00121494200F0B9FA434688
:104BD000236073045B0CED031D430023E0686381D5
:104BE000A780E5802381002801D000F091FA206998
:104BF0000124002801D000F08BFA200080BCB846C8
:104C0000F0BD0024F9E7C04610B5048941898288C7
:104C1000A3B288B28C4207D31B1A9BB2101C9A42D3
:104C200000D9181C80B210BD5100091A5B189BB244
:104C3000F4E7C04603894089181A43425841C0B27C
:104C40007047C04610B5048941898288A3B288B2F2
:104C50008C4207D31B1A9BB200209A4201D9D21A68
:104C600090B210BD5100091A5B189BB2F4E7C04620
:104C700070B5040000690E00002803D001214942EC
:104C800000F05EFA25896089A288A9B283B28542C4
:104C90002CD3CD1AADB2002D2ED0AA4208D291420B
:104CA00031D3891A8BB263819A4203D89B1A9BB283
:104CB0009A42FBD9E28821685204520C53433000D7
:104CC000C918FDF7B9FC618901254B1C9BB2A2886C
:104CD000994214D9002352009B1A9BB22069638128
:104CE000002801D000F014FA280070BD5500ED1A1C
:104CF0004D19ADB2002DD0D1002563899BB2520071
:104D00009342EBDBE8E789188BB26381CCE7C046BE
:104D1000F0B546464F46D646C0B5060000698946FE
:104D20009046002803D00121494200F009FA318958
:104D30007289B5888BB294B2914254D31F1BBFB213
:104D4000002F4AD0BD4205D2AB4251D25B199CB272
:104D50002F0074814346B8453DD89FB2A54203D881
:104D6000641BA4B2A542FBD9F28831685204520CEC
:104D7000904662432B1B9BB2891842469F4225D91D
:104D800053439BB21A0048469A46FDF755FC4346EA
:104D900048467D1B64195C4331685044A2B2FDF75C
:104DA0004BFC7189B588CB199BB26A00994216D920
:104DB0009B1A9BB230697381002801D000F0A8F9DA
:104DC0003800E0BCBA46B146A846F0BD48467A4332
:104DD000FDF732FCE5E73B1CBFE773899BB26A0035
:104DE0009342E7DBE4E76F003F1BDF19BFB2A7E7A1
:104DF0005B1B9CB2ACE7C046F8B50400C0680E006F
:104E0000002803D00121494200F09AF92589208920
:104E10006189A288ADB283B28FB2884228D3DB1BEE
:104E20009BB29A4209D8E779FF0906D1E0680028C9
:104E300001D000F06DF93800F8BD2B00954203D386
:104E40009B1A9BB29342FBD2E28820685204520C18
:104E500053433100C018FDF7EFFBA2886B1C9BB2D7
:104E600052009D4209D99B1A9BB201272381DDE79D
:104E70005100C91B5B189BB2D3E79342F5DBF2E705
:104E8000F0B54E464546DE465746E0B58946050034
:104E9000140083B0002A6CD0C068002803D0012120
:104EA000494200F04DF92F89EA796B89BFB29BB274
:104EB000D20940D1AE889F4265D27200D31AFB1846
:104EC0009BB2002290469E422FD9F31A1A1C9BB225
:104ED000A34200D9221C93B29846EA884346FB18A5
:104EE0009BB29B463C00B74203D3A41BA4B2B4427E
:104EF000FBD25204520C924662432868331B9BB289
:104F00008018524643454DD3434649465A43FDF720
:104F100093FBAB885B00BB4501D39B4503DB5A4643
:104F2000D31A9BB29B465B462B81E868002822D0AF
:104F300000F0EEF81FE0AA889046944226D29F42E5
:104F400043D34146FA1A92B2490012198A4209DB48
:104F500042469A1892B2171BBFB29346BB4239D948
:104F60007F1ABFB2E3199BB246469B46A046EA8829
:104F7000B8E700239846404603B0F0BCBB46B246B3
:104F8000A946A046F0BDFB1A9BB29AE7A11AEA888F
:104F90005404640C4C434146A1440029C5D0464604
:104FA0001F009BE7534399B20A0001914946FDF760
:104FB00043FB43469E1B5346A4195C430199286852
:104FC000A2B24944FDF738FBA3E75100CA1ABA1848
:104FD00092B2BAE7B942C3DD4646EA88A04681E705
:104FE00010B50400C068002803D00121494200F038
:104FF000A7F82069002803D00121494200F0A0F859
:105000000023E06863812381002801D000F080F84C
:105010002069002801D000F07BF8012010BDC046B7
:1050200070B50400C0680D00002803D0012149427A
:1050300000F086F82069002803D00121494200F0E1
:105040007FF87F21E379ED011940E0682943E171A0
:10505000002801D000F05CF82069002801D000F0A1
:1050600057F8012070BDC04610B51920FBF79AFA19
:10507000D0238022E1211B0692045A620448054B8A
:105080000022186049020123FDF702FD10BDC04651
:1050900000400340843B0020D02380221B06920462
:1050A000002801D05A6170479A61FCE710B5830768
:1050B0000AD00300032102E001330B4205D01A7825
:1050C000002AF9D1181A10BD030019680C4A0D4CBA
:1050D0008A188A4322420FD15968094A04338A1830
:1050E0008A43224208D15968054A04338A188A4300
:1050F0002242F1D000E001331A78002AFBD1E1E727
:10510000FFFEFEFE80808080F8B5C04600000000F3
:1051100001B40248844601BC604700BFED01002095
:1051200001B40248844601BC604700BF2D0C00203A
:1051300001B40248844601BC604700BF2D0C00202A
:1051400001B40248844601BC604700BF5D010020F5
:1051500001B40248844601BC604700BF41080020FA
:1051600001B40248844601BC604700BF710A0020B8
:1051700001B40248844601BC604700BFC100002062
:1051800001B40248844601BC604700BFB509002055
:1051900001B40248844601BC604700BF19080020E2
:1051A00001B40248844601BC604700BF5109002099
:1051B00001B40248844601BC604700BF5D0900207D
:1051C00001B40248844601BC604700BF15020020BC
:1051D00001B40248844601BC604700BF310C002086
:1051E00054696E795553420054696E795553422083
:1051F00044657669636500003132333435363738BB
:10520000393031320000000054696E795553422024
:105210004344430054696E79555342204D53430033
:105220000904000012010002EF020140FECA03401F
:105230000001010203010000090262000301008075
:1052400032080B0002020200000904000001020201
:1052500000040524002001052401000104240202A9
:105260000524060001070581030800100904010058
:10527000020A000000070502024000000705820242
:105280004000000904020002080650050705030259
:105290004000000705830240000000004D61737369
:1052A0002053746F72616765000000004E6F2073B9
:1052B00070696E6C6F636B732061726520617661DB
:1052C000696C61626C650000486172647761726547
:1052D00020616C61726D20256420616C726561646F
:1052E0007920636C61696D65640000000A2A2A2ACE
:1052F0002050414E4943202A2A2A0A000A00000071
:1053000048617264206173736572740052656C65E4
:1053100061736500626F6F74325F77323571303858
:1053200030000000312E352E310000007069636FAF
:1053300000000000696E74656E746F555342000082
:10534000417567202034203230323300060052503D
:10535000BBFF3CB62C53001006005250E182887F00
:105360001453001006005250D3F075420C53001035
:105370000D0A0000556E68616E646C6564204952C8
:105380005120307825780A00657020256420257327
:105390002077617320616C72656164792061766148
:1053A000696C61626C65000043616E277420636FF5
:1053B0006E74696E75652078666572206F6E2069FF
:1053C0006E6163746976652065702025642025739D
:1053D000000000006F757400696E0000DE2F001081
:1053E000363100101E310010DE2F00100031001089
:1053F000E8300010843000102A3000101E300010F9
:10540000AE33001094330010D6300010C2330010B9
:10541000D63000107C33001068330010D6300010F6
:10542000543300102A330010D630001046340010D8
:105430002A3400101E340010D6300010D630001070
:10544000003400102A340010D6300010D63000107E
:10545000D6300010D6300010D6300010D6300010F4
:10546000D6300010DC3300104D3C0010BD3C001065
:10547000E93C0010CD3D0010B13E001000000000DE
:10548000894100109D410010B141001015420010EB
:1054900051430010000000003E480010E645001097
:1054A000E6450010C6470010E6450010E64500102E
:1054B000E6450010E6450010E6450010E645001000
:1054C000E6450010E6450010E6450010E6450010F0
:1054D000E6450010E6450010E6450010E6450010E0
:1054E00082470010E6450010E6450010E645001032
:1054F000E6450010E6450010E6450010E6450010C0
:105500005C47001028470010E6450010E6450010F3
:10551000E6450010E6450010E6450010E64500109F
:10552000E6450010BA460010E6450010644600103B
:105530004C45440009005250000000023055001054
:085540000800525012000000A7
:10554800AC020010A0020010940200104C5300108E
:10555800880200105853001064530010345500108E
:04556800405500109A
:10556C00F0B5C646150000B504001E000268EFF346
:10557C00108172B61368002BFCD0BFF35F8F04232D
:10558C00E356002B2DDB2268BFF35F8F00201060E9
:10559C0081F31088D0221206127852B290469A42A9
:1055AC0003D1002080BCB846F0BD00270BE0236877
:1055BC00BFF35F8F1F6081F310882800310000F06B
:1055CC00E7FD0028EDD12268EFF3108172B6136865
:1055DC00002BFCD0BFF35F8F23797F2BE7D9434699
:1055EC0002E0D0231B061B6823712368BFF35F8F77
:1055FC0000221A6081F310880120D3E7F0B5C6466B
:10560C0000B50D00040000F0BBFDFA2206000F00EF
:10561C00002328000021920000F0C2FD80233618E0
:10562C004F411B069F4202D30126174F7642D023CF
:10563C001B061B68002598460BE02368BFF35F8FA1
:10564C001D6081F310883000390000F0A1FD0028A6
:10565C0018D12268EFF3108172B61368002BFCD0BE
:10566C00BFF35F8F23797F2BE7D9434623712368E0
:10567C00BFF35F8F00221A6081F31088012080BC79
:10568C00B846F0BD0020FAE7FFFFFF7F0268EFF39A
:10569C00108172B61368002BFCD0BFF35F8FFF2311
:1056AC0003710368BFF35F8F00221A6081F31088C7
:1056BC0040BF70470022154B10B59A60DA601A6132
:1056CC005A619A61DA611A625A629A62DA621A63F0
:1056DC005A639A63DA631A645A649A64DA641A65D0
:1056EC005A659A65DA651A665A669A66DA661A67B0
:1056FC005A679A67DA67F03292000021044800F08A
:10570C0067FD044B044A1A6010BDC04600001050DF
:10571C0074370020383B002080011050F0B55746FC
:10572C00DE464E464546E0B5234B87B09F6D002FB5
:10573C0023D0224B0024994601239846204B012666
:10574C009A4604E001347600E4B2202C15D03E4297
:10575C00F8D04B469E65434665086D00A343ED1893
:10576C006D015544280000F0ABFB00280CD101342E
:10577C00B743E4B27600002FE7D107B0F0BCBB46CC
:10578C00B246A946A046F0BDAB7808229B46EB8AF0
:10579C00002103A8019300F01BFD0723594602AA20
:1057AC005371019B117203A80121059300F0B0FB0A
:1057BC00280000F01DFBDAE70000115000301150FA
:1057CC00343700209823CF4A70B5D55880232C004D
:1057DC009B02102684B01C401D4278D0CA4BCB4C87
:1057EC009A6ACB4B00261A603B23E35C022B00D158
:1057FC00D7E07B23E35C022B00D114E2BB23E35CF8
:10580C00022B00D1FDE1FB23E35C022B00D1E6E18E
:10581C003C23FF33E35C022B00D1CBE17C23FF3331
:10582C00E35C022B00D1B0E1BC23FF33E35C022B21
:10583C0000D195E1FC23FF33E35C022B00D14CE15A
:10584C00B44BE35C022B00D133E1B34BE35C022B92
:10585C0000D11AE1B14BE35C022B00D101E1B04B5A
:10586C00E35C022B00D1E8E0AE4BE35C022B00D1F1
:10587C00CFE0AD4BE35C022B00D1A3E0AB4BE35C80
:10588C00022B00D1E1E1AA4BE35C022B00D1F3E146
:10589C00002E08D1A74B1B78002B04D18021A64ADF
:1058AC0090338902D15001AE964B0C22002130006E
:1058BC009C6C00F08DFC03236405640D7370300048
:1058CC0002940121802400F023FB9C4EA402EB06E1
:1058DC0063D480235B021D4214D0012223211C437C
:1058EC008A4B5A54DA70C023954ADB00019302AB01
:1058FC0003CA03C3012101A800F00AFB80228E4BCE
:10590C0092021A6580235B011D422FD18023DB019B
:10591C001D421AD180231B021D4204D1AC4200D07F
:10592C00BDE104B070BD01AE0C22002130001C435F
:10593C0000F04EFC052301217370300000F0E8FAF2
:10594C0080227D4B12011A65E8E701AE0C22002182
:10595C0030001C4300F03CFC042301217370300028
:10596C0000F0D6FA1022744B1A65D3E700221C43C0
:10597C00644B01AE1A60FFF79DFE0C220021300033
:10598C0000F026FC012301217370300000F0C0FAF6
:10599C008022694B12031A65B8E7FFF7BFFE34008B
:1059AC0097E73833E65C002E00D122E70233E25C45
:1059BC00002A00D11DE700222000E254203000F024
:1059CC0049FA16E75F4BE35C002B00D156E7DF2367
:1059DC009B00E25C002A00D059E1544BE35C022BA3
:1059EC0000D14FE1524BE35C022B00D05BE7564BEE
:1059FC00E35C002B00D156E7FF239B00E25C002AFE
:105A0C0000D150E70022E2541C3BE01800F022FACF
:105A1C0049E74E4BE35C002B00D12AE7CF229200E2
:105A2C00A15C1E00002900D123E70023A354C82346
:105A3C009B00E01800F00EFA1BE7454BE35C002BD3
:105A4C0000D111E7BF229200A15C1E00002900D1F9
:105A5C000AE70023A354B8239B00E01800F0FAF9DE
:105A6C0002E73C4BE35C002B00D1F8E6AF2292003E
:105A7C00A15C1E00002900D1F1E60023A354A82349
:105A8C009B00E01800F0E6F9E9E6334BE35C002BF1
:105A9C0000D1DFE69F229200A15C1E00002900D1FC
:105AAC00D8E60023A35498239B00E01800F0D2F909
:105ABC00D0E62A4BE35C002B00D1C6E68F22920085
:105ACC00A15C1E00002900D1BFE60023A35488234B
