:020000041000EA
:1000000000B5324B212058609868022188439860DF
:10001000D860186158612E4B002199600221596106
:100020000121F02299502B49196001219960352056
:1000300000F044F80222904214D00621196600F024
:1000400034F8196E01211966002018661A6600F04E
:100050002CF8196E196E196E052000F02FF8012189
:100060000842F9D1002199601B49196000215960AB
:100070001A491B48016001219960EB211966A021F2
:10008000196600F012F800219960164914480160C1
:100090000121996001BC002800D000471248134993
:1000A000086003C880F30888084703B5996A0420EC
:1000B0000142FBD001200142F8D103BD02B5186610
:1000C0001866FFF7F2FF186E186E02BD00000240BE
:1000D000000000180000070000035F00212200005C
:1000E000F4000018222000A00001001008ED00E03C
:1000F00000000000000000000000000074B24E7A12
:1001000000200420F7010010C3010010C5010010F9
:10011000C1010010C1010010C1010010C101001097
:10012000C1010010C1010010C1010010C701001081
:10013000C1010010C1010010C9010010CB01001065
:10014000CD010010CD010010CD010010CD01001037
:10015000CD010010CD010010CD010010CD01001027
:10016000CD010010CD010010CD010010CD01001017
:10017000CD010010CD010010CD010010CD01001007
:10018000CD010010CD010010CD010010CD010010F7
:10019000CD010010CD010010CD010010CD010010E7
:1001A000CD010010CD010010CD010010CD010010D7
:1001B000CD010010CD010010CD010010CD010010C7
:1001C00000BE00BE00BE00BE00BE00BEEFF3058054
:1001D000103800BEF2EB887168570010905700107D
:1001E0003402001090A31AE700201F49086006C8D7
:1001F00081F3088810471D48006800282FD10DA4FE
:100200000ECC002902D000F012F8F9E71849194A7B
:10021000002000E001C19142FCD1174988471749ED
:1002200088471749884700BEFDE701C901C29A42C5
:10023000FBD3704790570010C0000020E80E00204C
:10024000B86500100000042000000420B86500100C
:10025000001004200010042000000000704709482E
:1002600001F0EEFF0047000008ED00E0000000D0C4
:10027000E80E0020841C0020B920001009030010A3
:10028000AD2100105756000006005250ABB360532A
:10029000B054001006005250861C0302C0540010D7
:1002A000060052505422A29DD45400100500525012
:1002B000DE65F468B8650010F8B5C0460648074921
:1002C000091A8B10C90FC91810B5491003D0044B77
:1002D000002B00D0984710BDE80E0020E80E00204B
:1002E00000000000054B10B5002B03D00449054861
:1002F00000E000BFFFF7E2FF10BDC04600000000B5
:10030000081C0020D8530010F0B58DB002F03CFC62
:100310002B4808AB04AA03A900F096F8002803D1E3
:100320002848274901F046FF089A0499039800F0ED
:100330004FF82549254804F0ADFE01210600234869
:1003400004F08AFE8022F82352025B020492059395
:10035000C02300241B03102204A9050008A806934B
:10036000079402F0A7FA731CB21C1203DB011343BB
:1003700008A9102204A8099302F09CFA80235B05C7
:10038000079320000621013400F01CF9042CF8D159
:100390000E4F033C0423002229003800009404F08F
:1003A000DFFEC823AC409B030493320004AB29005A
:1003B000380004F02DFF3B681C433C60FEE7C0465C
:1003C00048E80100D85300100C54001000002050E1
:1003D000F0B583B005000E00140000F00BF9002802
:1003E00001D003B0F0BD154F01223B000121009761
:1003F000053001F0B3FB33002A00009401211048BE
:1004000001F0A0FD21002800714301F04BFF040022
:100410000C4B002200930221042001F09FFB2300DB
:10042000002201210094052001F098FB3B000222EC
:1004300000210097062001F091FBD2E7006CDC025E
:1004400000800240001BB700F0B54E465746DE461E
:100450004546E0B585B00393554B06009A46A02368
:100460005B0099460191029201235B429C46E14464
:100470004B460F2B00D198E04E4F4F4B072457446B
:100480009A4569D821003800614301F00BFF86428C
:1004900048D0631E9846012C5ED01D00654338008D
:1004A000290001F0FFFE86425AD0A31E9B46022C73
:1004B0005CD02D1B2900380001F0F4FE864257D095
:1004C000E31E9B46032C6ED02D1B2900380001F043
:1004D000E9FE864250D0231F9B46042C52D02D1B90
:1004E0002900380001F0DEFE86424DD0631F9B4696
:1004F000052C4FD02D1B2900380001F0D3FE864279
:100500004AD04346052B4CD03800E91F01F0CAFE03
:1005100086421CD0062421003800614301F0C2FE4F
:100520008642B6D10029B4D1A0464A46234B0120C9
:100530005343019A13604246029B1C60039B1A605E
:1005400005B0F0BCBB46B246A946A046F0BD0029A6
:10055000E0D101239846E8E7194B9C46E24483E743
:100560000029E2D0A31E9B46022CA2D1012489E7D8
:100570000029A5D1D846D8E70029FBD0231F9B46E8
:10058000042CACD103247DE70029F3D0631F9B46E4
:10059000052CAFD1042475E70029EBD04346052B89
:1005A000B2D105246EE702246CE70020C8E7C046FC
:1005B00070F72E00B0710B0050F80C00001BB70054
:1005C00020D1FFFF094A10B59446402483006344BC
:1005D0001A68C000624080341440802252011343E4
:1005E0001C60034B9C466044416010BD04C0014048
:1005F00000400140024B18688007C00F7047C0469A
:1006000000C00640EFF3108072B6034A1368002B57
:10061000FCD0BFF35F8F70472C0100D0BFF35F8F1A
:100620000022024B1A6080F3108870472C0100D022
:1006300070B5EFF3108C72B60D4D2B68002BFCD00B
:10064000BFF35F8F0724CB08C618C05C01230C40A2
:10065000A3401C000440034207D118433070BFF38D
:100660005F8F2C608CF3108870BD100001F0A2FD2C
:100670002C0100D0F8B54746CE46884680B5EFF34A
:10068000108C72B6214D2C68002CFCD0BFF35F8F0C
:100690009A422CD8D4080727055D06190124174073
:1006A000BC402C421FD007210127894609E0D4080D
:1006B000055D06194C4639001440A1400C00294242
:1006C00011D001329342F2D201204042BFF35F8F3A
:1006D00000220E4B1A608CF3108800280FDBC0BC80
:1006E000B946B046F8BD254310003570EEE7BFF3BC
:1006F0005F8F00232B608CF310880120404243461B
:10070000002BECD0089801F055FDC0462C0100D01C
:100710000021044B044ABFF35F8F02C39342FAD116
:100720007047C046000100D0800100D0044A107814
:10073000431CDBB2172B00D9102313707047C0463F
:10074000D00D002010B5064B064C82B0010000937E
:1007500018221F232000FFF78DFF02B010BDC046F6
:100760001C5400105C17002001238340002904D092
:10077000034A1360034A13607047034A1360FBE7A0
:1007800080E200E000E100E080E100E0012383403E
:10079000014A13607047C04600E200E0084B103089
:1007A0009B688000C358002B07D0064A00209B1A84
:1007B0002F229A424041C0B270470020FCE7C04659
:1007C00000ED00E0D40D0020024B10309B6880004B
:1007D000C058704700ED00E070B50D00EFF31086D3
:1007E00072B60F4A1368002BFCD0BFF35F8F0D4B1E
:1007F00010309B6884001B590B4A934203D09D42E2
:1008000001D001F0EFFC074B9B681D51BFF35F8FD8
:10081000BFF35F8F0022024B1A6086F3108870BD11
:10082000240100D000ED00E0CD010010F0B55746E6
:100830004E46DE464546E0B585B0060001911700FC
:10084000EFF3108B72B6664A1368002BFCD0BFF32F
:100850005F8F0025634B5D579A46002D00DAA2E0BA
:100860006B00614C02935B199B009846A146C14402
:100870004B4652469B79103613705C4BB2009B6816
:10088000009299580B1B2F2B34D9594B994200D009
:10089000A2E0029B42469C46564B6544AD00635322
:1008A000554B0232A218043B9B1A1B05534A5B0DA1
:1008B000651913436B80524B0121AB80FF23AB7151
:1008C000019BEF71AB604B460B431900474B009AFD
:1008D0009B689950BFF35F8FBFF35F8F0022404B3F
:1008E0001A608BF3108805B0F0BCBB46B246A9462F
:1008F000A046F0BD01200A008243D379BB422FD825
:1009000045464E4613003F491B1B5B415943090DA9
:10091000384B6353384B02356519043B5B1B1B0591
:10092000364D5B0D2B4373800426B446E044131F01
:1009300044441B1B1B055B0D1D434B4699710199DC
:100940009D8099604946DF712F4B01431360BDE7DD
:100950005800C01880002018C679BE4229D902006C
:100960000623D356002BF3DA101D82462748039046
:100970000426504676424E44361A3005400D8446D1
:1009800066461E48957106439680029A94466544D1
:10099000AA00A4181C4AA3712260019B039AE77164
:1009A000A280A36092E701F01DFC002553465D572D
:1009B00056E7101D82469088400500158446404643
:1009C000D444664604302018301AE0260005400D55
:1009D000360230430390CBE701F004FC59E7C046F0
:1009E000240100D07E1C0020D40D002000ED00E08A
:1009F000CD01001000A1FFFF040E002000E0FFFF6A
:100A000001BDFFFFAAAA00000148804701BD000008
:100A1000F0B5DE4657464E464546E0B50C0083B07D
:100A2000EFF3108972B6584A1368002BFCD0BFF35D
:100A30005F8F564B9A68030010339F00D559544A74
:100A40009046954232D0A54243D0524EAA1B2F2A3F
:100A50002CD801228240924651464F4A12681140DA
:100A6000019151464D4A1160BFF35F8FEFF305824C
:100A70009346002A33D101232A009A4393689C426B
:100A800008D177E04B005B189B00F3189968A142EE
:100A90002AD01A00062151560029F3DA019B002BB7
:100AA00019D052463E4B1A603B4B1A60374B9B683D
:100AB000DD51BFF35F8FBFF35F8F0022324B1A60AF
:100AC00089F3108803B0F0BCBB46B246A946A046E5
:100AD000F0BD1500EAE75246304B1A60E6E7934254
:100AE000C9D001F07FFBC6E706215956002921DB5A
:100AF0004A005018800034188046A0689860E07959
:100B0000D871062020569871002824DBA488F01A9A
:100B10006405241544440019E0240005400D240216
:100B2000204398801F4B521818789200B218907189
:100B30001970B3E7594600290FD1FF3191711A4955
:100B4000918018490A789A71184A9B1B5B415A4355
:100B5000120D0A70A2E71648E3E7164A1649D21AA0
:100B6000083A5002400D01439980144952080A4343
:100B7000DA8093E70621515613000029B8DA5A4665
:100B8000002AEAD14546DCE7240100D000ED00E070
:100B9000CD010010D40D002000E100E080E100E074
:100BA00080E200E07E1C002001BDFFFFAAAA000039
:100BB00001BD00000E0E002000F0FFFF00F8FFFF57
:100BC00070B5EFF3058101240443EFF3108C72B686
:100BD000214A1368002BFCD0BFF35F8F1F4B050029
:100BE0001F4AED1A6D416A43120D1E4D8900AE6811
:100BF00052B27658A6421CD00621595691421CD0BA
:100C000012215956914222D01E215956914220D08C
:100C10002A2159560324914210D0134B19781A7087
:100C20008171BFF35F8F00220B4B1A608CF3108829
:100C300070BDAB680D4C5C50EFE7002461000919F2
:100C400089005B18FF21997109499980E5E7012422
:100C5000F4E70224F2E7C046240100D0D40D0020BE
:100C6000AAAA000000ED00E07E1C0020CD010010CB
:100C700001BDFFFF054B064A1360064A136053602F
:100C80009360D3601361536193617047808080806B
:100C900000E400E004E400E010B5084B084C82B02A
:100CA00001000093002205232000FFF7E3FC002849
:100CB00001DB1F23181A02B010BDC04638540010C3
:100CC000831C0020024B9C466144890001607047F0
:100CD0004000003410B50400FFF728FD010020009B
:100CE000FFF7F0FFFF232371BFF35F8F10BDC046F6
:100CF00010B50400FFF71AFD01002000FFF7E2FF26
:100D0000FF23A380BFF35F8F10BDC04610B5040062
:100D10000120FFF717FD044B9C46604480002060D3
:100D2000BFF35F8F10BDC04640000034034B9C46AC
:100D3000614489000160BFF35F8F70474000003459
:100D400083680B4810B5844661446244120109016E
:100D500059189B185C684A680120944201D802D057
:100D60000020C0B210BD1A680B689A42F9D8F7E7A4
:100D7000FFFFFF0F0A4B1968EFF3108072B60A6885
:100D8000002AFCD0BFF35F8F1B68BFF35F8F002288
:100D90001A6080F3108840BF002000217047C046D1
:100DA000441C0020F8B5574645464E46DE46E0B5A1
:100DB00099460CAB1C780DAB1B78070090469A4601
:100DC0000568002C44D1AC7B002C3BD06600296820
:100DD0003619033E89194B78AB73002B00D1EB73A6
:100DE00000238B704B700B702E4BE218BB68120106
:100DF0009B1842461A604A465A600A9A9A600B9AB1
:100E0000DA6000238B704B700B706B7B9B46002B62
:100E100032D022005946A8686B68984700281DD038
:100E20005B46584629685B005B448E19033BB070F3
:100E3000CA18CB5C002B00D073705B4614706B73C8
:100E40005C451AD0F0BCBB46B246A946A046F8BDE8
:100E5000660029683619033E8919C5E75B465B00C1
:100E60002A685B44033BD3189C709119925D002A59
:100E700000D05A705B460B706C7342464B46387D0F
:100E800000F040FB051E02D05346002B04D00E9B01
:100E9000002BD7D01D70D5E72100386800F05CFD2D
:100EA000F5E7C046FFFFFF0FF0B5DE4657464E465A
:100EB00045460023E0B58BB00893694B8200D458B7
:100EC00000239B46099000F0A3FA626806000F0019
:100ED000EFF3108572B61368002BFCD0BFF35F8F61
:100EE00023689C465B7B9946002B00D168E0A26892
:100EF0005C4B90464B441B01984443461A685B6820
:100F000010001900801BB941002900DC62E009983B
:100F100000F0F8FA00230022984600230692079377
:100F200000239A466368BFF35F8F5A461A6085F3C1
:100F300010885346002B08D10028C4D10BB0F0BC58
:100F4000BB46B246A946A046F0BD089B41461802E2
:100F50004B461843D047626806000F00EFF3108538
:100F600072B61368002BFCD0BFF35F8F002F4FDBEE
:100F700033003B4302D02369002B65D12368D97B22
:100F8000002906D01A684800411852184946033A09
:100F900051709A7B002A01D14A469A734A46DA7305
:100FA0004B46E168013BCA5C0132CA545B4623618F
:100FB0006368BFF35F8F5A461A6085F3108882E733
:100FC0000023002298460023069207930023002066
:100FD0009A46A7E7002902D1002800D097E7002110
:100FE000604600F037FC43461A685B680692079338
:100FF00043469B689A464346DB689846E3684B4401
:10100000013B1B7808931B0203432361002089E7FF
:101010002369002BB2D0069A079B8021921BBB410B
:1010200009068B4202D301220F4B524259460491CA
:101030000121039149460291414601915146200008
:101040000091FFF7AFFEB1E700F0E2F932003B009C
:1010500012184B41802109068B42E7D3E3E7C046D3
:10106000281C0020FFFFFF0FFFFFFF7F10B5144C6F
:101070006368002B04D00A211248FFF723FE10BD3D
:101080002300114A1021206800F0F8FA032000F034
:10109000B3F9032000F0A0FA03200C4900F0ECF9AA
:1010A000FFF744FB0A4B9C4603232375D0231B0602
:1010B0001B6860446375074B80006060DC60DAE7A2
:1010C0001C0E0020441C0020410D0010A90E001031
:1010D00040000034281C0020004870471C0E0020EF
:1010E000F0B557464E46DE464546E0B585B001931D
:1010F00010AB1B780700039300239A469946009291
:101100007A68EFF3108B72B61368002BFCD0BFF334
:101110005F8F3D68AC7B002C00D17CE066002B68C3
:101120003619033E9B195A78AA73002A00D1EA7334
:101130004A4AA118BA68090152180098019910602A
:1011400051600E9991600F99D1604A469A705A7019
:101150001A706B7B9846002B00D16CE02200414650
:10116000A8686B689847002857D0434640462968CE
:101170005B0043448E19033BB070CA18CB5C002B54
:1011800000D07370434614706B73444554D0FB68B1
:101190001B19013B18787B68BFF35F8F4A461A60C2
:1011A0008BF31088002C56D05346002B08D1000238
:1011B000204305B0F0BCBB46B246A946A046F0BDF0
:1011C000039B002B45D00E9B00200F9998470300EE
:1011D00004000D000B433CD0002911DA009A019B5A
:1011E000121BAB410092019380221206934204D35A
:1011F00001231B4C5B4200930194039B9A467FE7BB
:1012000000F006F9802224184D4112060094019541
:101210009542F2D3ECE70020BDE743465B002A6825
:101220004344033BD3189C709119925D002A00D06F
:101230005A7043460B706C73387D009A019B00F026
:1012400061F982460028A2D02100386800F084FBB2
:101250009DE70020ADE701204042AAE7FFFFFF0F16
:10126000FFFFFF7F407D7047F0B5EFF30583CE466B
:10127000474680B505000C0085B0002B12D02C4AE3
:101280000020536A9C4203D8926A0130AA4204D3D8
:1012900005B0C0BCB946B046F0BDE31A5A1E934132
:1012A000D8B2F5E7234E02930193234B020000933B
:1012B00030000B00FFF714FF031EE0DD20BF716854
:1012C000EFF3108772B60A68002AFCD0BFF35F8F75
:1012D000DAB294463068427B62451CD0FF22016836
:1012E0001A40894651008846494690444144033992
:1012F0008978002912D0F1681B0A8A18013A1278FD
:10130000DBB29A420FD07368BFF35F8F00221A607E
:1013100087F31088B3E7FF221A40ECE73269934263
:10132000F1D13161EFE7614600F016FBEBE7C04613
:10133000004005401C0E0020750D0010F0B5EFF3C5
:101340000582D6464F4646461000C0B51038EFF32A
:10135000108872B6214C2368002BFCD0BFF35F8F3E
:101360000123190081401E4D1F006963AA461D4DCF
:1013700029601D4D2E78AC463500C5402F402B42CC
:1013800009D1BFF35F8F276088F31088E0BCBA46AD
:10139000B146A846F0BD53465F6A144B8500EB5832
:1013A0009F420ED36246124B8E43EB581670BFF32A
:1013B0005F8F0022226088F31088002BE6D09847C8
:1013C000E4E70C4B92009C46624413681360BFF341
:1013D0005F8F0023236088F31088D7E7280100D0AF
:1013E000004005403C700540821C0020501C00203D
:1013F0003C160020D03F054010B5034B01001800FB
:10140000024AFFF715F910BD7C1C0020545400104F
:10141000034B596A0A00986A596A8A42FAD170479E
:101420000040054070B504000D00124A536A1900CF
:10143000966A536A8B42FAD13000190024184D4144
:10144000AB4211D80ED02B000A494A6A9A42FCD30B
:1014500007D1084A02E0516A994202D1916AA14239
:10146000F9D370BDA642EED9012301246442E517E9
:101470005B42E9E70040054070B504000D00EFF362
:10148000108672B61A4A1368002BFCD0BFF35F8F28
:10149000002D1BD02000FFF797F9164981420AD092
:1014A0002000FFF799F901212000FFF75DF90123E2
:1014B000A340114A1360114BA400E550BFF35F8FA6
:1014C00000220B4B1A6086F3108870BD0121A140E9
:1014D0000A4BA200D5500A4B20001A788A430549CE
:1014E0001A70FFF795FA00212000FFF73DF9E5E7B4
:1014F000280100D03D130010386005403C16002044
:10150000821C0020F0B54F46D6464646C0B50700BF
:101510002C4C616A0D00A66A616AA942FAD18B421D
:1015200008D805D00120E0BCBA46B146A846F0BDB7
:10153000B242F7D9EFF3108A72B623480168002946
:10154000FCD0BFF35F8F0125BD4020491D4C88466C
:10155000097889462943C9B28C46414660460870DD
:10156000391D890065630A511949B8004350216A41
:101570000020294219D0616A0800A66A616A814286
:10158000FAD18B4219D801D1B24216D8CC4516D027
:101590000C4B1F221D625D6301233A4093400D4AAC
:1015A0000120136043464A461A70BFF35F8F002242
:1015B000054B1A608AF31088B5E70020F5E7012093
:1015C000F3E7C04600400540280100D0821C0020FF
:1015D000501C002080E200E0EFF3108C72B60A4944
:1015E0000B68002BFCD0BFF35F8F01238340074AB9
:1015F0000748136202789A430270BFF35F8F00239B
:101600000B608CF310887047280100D00040054023
:10161000821C002070B5050014001600002915D0AA
:101620000C00002A12D080686B689847296800284F
:101630000ED073009B196200033B1219CB18033ABA
:101640009C7088188A5C002A15D10670200070BD35
:1016500063001B197200033B9219CB18033A9E706A
:1016600088188A5C002A02D104703400EEE75A70B0
:1016700004703400EAE75A700670E7E730B583601B
:101680000023CCB243730133047342608373C47389
:101690000D000068012C06D9421C0133DBB2137027
:1016A00003329C42F9D1FF2129404B005B18C0183E
:1016B00000230338437030BDF8B505000C1E07D079
:1016C000630001681B19033BCB185A78002A01D12B
:1016D0002000F8BD500080180338091800204F780A
:1016E0004870210058702800FFF794FF3900060069
:1016F0002800FFF7E1FF0400002EE9D0002826D0E3
:1017000031002200A8686B689847296800280FD02C
:1017100063001B197200033B9219CB18033A9E70A9
:1017200088188A5C002A00D05A7004703400CFE711
:1017300073009B196200033B1219CB18033A9C708B
:1017400088188A5C002A00D05A700670C0E73400FE
:10175000BEE7C046F0B557464546DE464E46E0B5C4
:101760000D006B0001685B19DF1E0400C85D83B0CB
:101770000192CA19002850D043001B18033BCB1814
:101780005E78B446002E1AD1019E002E42D0E67B30
:10179000002E04D073009B19CB18033B5D70A37B14
:1017A000002B00D1A573E57300282FD100235370BF
:1017B00003B0F0BCBB46B246A946A046F0BD7200DD
:1017C0006244033A8A18517888460021517089464C
:1017D0005970320001002000FFF71CFF434682468B
:1017E000002B07D05B0021684344033BCB185A7899
:1017F000002A16D1424651462000FFF70BFF216810
:10180000019BCA19002BC2D10028CFD043001B185E
:10181000033BCB1800219970C8E7019B002BB6D180
:10182000C4E75000801803380918487883464846B2
:101830004870587041462000FFF7ECFE594680463C
:101840002000FFF739FF414602002000FFF7E2FECB
:101850008046CFE7F0B557464546DE464E46E0B5F2
:1018600083B00191457B04006B0000685B19DF1EAB
:10187000C15DC219002952D04B005B18033BC3184D
:101880005E78B446002E1CD1019E002E44D0E67B2B
:10189000002E04D073009B19C318033B5D70A37B1B
:1018A000002B00D1A573E573002931D10023280056
:1018B0005370617303B0F0BCBB46B246A946A04664
:1018C000F0BD72006244033A8218507880460020CE
:1018D00050708146587032002000FFF79BFE43464F
:1018E0008246002B07D05B0021684344033BCB18A2
:1018F0005A78002A17D1424651462000FFF78AFE47
:10190000019B01002068C219002BC0D10029CDD055
:101910004B005B18033BC31800209870C6E7019B7F
:10192000002BB4D1C2E7500080180338091848785A
:10193000834648464870587041462000FFF76AFECB
:10194000594680462000FFF7B7FE414602002000BE
:10195000FFF760FE8046CEE770B5040000292CD06A
:10196000437B8B422ED00568480040180338281866
:101970008278002A21D053009B18033BEA5CEE18C2
:101980008A4202D11BE0002A08D053009B18033B77
:10199000EB185A788A42F6D142785A700023012215
:1019A000837043702000FFF7D5FE617B02002000AA
:1019B000FFF730FE6073012000E0002070BD437827
:1019C0003370EBE701221900FFF7C4FE60730120BA
:1019D000F4E7C046F8B5CE464746040080B5062079
:1019E0000E0000F0A9FA051E51D0524B5249E218E0
:1019F00053425A418023DB039C4692054F4B62447D
:101A00001A604F4B1A6010008B689843FBD1494B0A
:101A10004C4AE31859424B4180215B0049009952DE
:101A2000062000F089FA3100C00000F03BFCC30939
:101A300032D14022012190466162A362256BEB07FF
:101A400036D427008026E36A00232C3776013E43F4
:101A500033600620256300F06FFA4146800000F0F5
:101A600021FC236B05009846DB073BD46023E26A28
:101A70005A400E33134033604346236380231022C1
:101A80009B013B431A60304B23630323A36428006C
:101A9000C0BCB946B046F8BD2C4A93423FD900239A
:101AA0002B492C4A6162A362256B9046EB07C8D58F
:101AB0002200C02330329B011343234A06201A60C0
:101AC000666AA36AB601F61800F036FA224900F0F9
:101AD000E9FBB6020100300000F0E4FB0021FFF753
:101AE000A1FCAEE72200C02330329B011343164A0B
:101AF00006201A60636AA26A9B019946914400F02D
:101B00001BFA4B4614499B02994600F0CBFB01009F
:101B1000484600F0C7FB0021FFF784FCA6E77F22C0
:101B2000990188460240013252081900904413007E
:101B300082E7C0460080FCBF00C0004000E00040DB
:101B400000F00040601C002001030000FEFF0000C8
:101B5000FFFF0000C0FF3F004E0E0000F0B54546FD
:101B6000DE4657464E46E0B583B001920C9A05001A
:101B700088469A4200D976E01A0E93461E0230003B
:101B8000002359460C9A00F0CBFB384B6C009C4666
:101B90006419A400644463680700834200D2606053
:101BA0002B1FDBB29946012B37D9C02380229B0122
:101BB000234312011A602E4BAD0059599A46002951
:101BC00007D0586900F06EFB431C5800C01803385A
:101BD000FDD2019B22685B015340E0221A40802322
:101BE0005B0123431A604A46012A2FD980238022B1
:101BF0009B01234312011A60300000233A0059462A
:101C0000676000F08DFB53465851012003B0F0BCD3
:101C1000BB46B246A946A046F0BD4346012BC4D1FF
:101C2000C02303229B0123431A60023AA3681A428D
:101C3000FCD0019B22685B015340E0221A408023C4
:101C40005B0123431A600A4AAD009246424621686E
:101C5000514003220A401A60012243469A40A36879
:101C60001A42FCD0C2E70020D0E7C0460080004006
:101C70006017002010B50C2082B000F0B3F9FEF719
:101C8000B9FC00280ED08A4B8A4A1A605A609A60C2
:101C9000DA601A615A619A61DA611A62864A5A6296
:101CA00002B010BD854CA06700F0F2F90122844B10
:101CB0001A60636C012BFCD10322824B1A607F4AAD
:101CC000936B012BFCD1013301217F4A7F480093A4
:101CD000043300F037F905237D4A009301217D4844
:101CE00000F030F97C4B5A68FF2A02D8802252005B
:101CF0005A608022734B6E4C12011A6021690029D0
:101D000007D0606900F0CEFA013043001B18033B96
:101D1000FDD2E022704B714819680A40026002222D
:101D20001968514001320A40042102609A68114248
:101D3000FCD080216A4A09011160802252005A6059
:101D4000684B2361684B5968FF2900D85A60032209
:101D500001215B4B1A60644A93681942FCD0E0236E
:101D60001068034061480360126803234A4002215F
:101D700013405D4A036093681942FCD080215C4B9C
:101D80000901196080215B4B4900516063615A4B26
:101D90005A68FF2A00D859608022584B12011A60F5
:101DA000E169002907D0606900F07CFA0130430046
:101DB0001B18033BFDD2E0234F4A11680B405049EA
:101DC0000B6080214F4B090119608021394B49007C
:101DD0005160E3614C4B5A68FF2A00D85960802259
:101DE0004A4B12011A60216A002907D0606900F08D
:101DF00059FA013043001B18033BFDD2E023424A4D
:101E000011680B4042490B608021424B0901196067
:101E100080235B0053608022264BD20223623E4B1C
:101E20005968914200D25A6080223C4B12011A60DC
:101E3000616A002907D0606900F034FA013043007C
:101E40001B18033BFDD2E023334A11680B40344991
:101E50000B608021334B090119608023DB02536042
:101E6000154B6362304B5A68FF2A02D88022520019
:101E70005A6080222D4B12011A60A169002907D0F7
:101E8000606900F00FFA013043001B18033BFDD2DC
:101E9000E023254A11680B4025490B608021254B22
:101EA0000901196080235B005360124BA361F7E6C0
:101EB00060170020006CDC021BB7000000800040AF
:101EC0003CB0004030B00040002F68590080024014
:101ED000008C864700C002403080004030900040B7
:101EE00030A00040001BB7003C8000403C90004008
:101EF0003CA00040405973075480004054B000405B
:101F00005490004054A000406080004060B0004009
:101F10006090004060A000406C8000406CB00040C9
:101F20006C9000406CA000404880004048B00040E9
:101F30004890004048A00040014B8000C0587047C6
:101F400060170020F8B5040021481D0017000E009E
:101F500000F0A8F90100380000F0A4F9069B29045C
:101F60001B0319432368002B20DB1A4B1A4DE21880
:101F700053425A4180235B019C461203174B624433
:101F80001A60174B1A601700AB689F43FBD1C02241
:101F9000231D92011A4321232660A0601360236849
:101FA000002BFCDA0823E1601360F8BD3F232268B0
:101FB0001340B342D9D1A3681B051B0D8342D4D172
:101FC000EE22E368D20213408B42CED1EDE7C04649
:101FD000001BB7000040FDBF00C0004000E0004013
:101FE00000F000408023024A9B000343D362704705
:101FF0000080054010B5140080221C4BD2051A60E9
:1020000000281AD001231A4A18431A4BDA611A4AD7
:1020100042401A62596298628022144BD2051A60BB
:102020001649174A1160E022D2041A60002C07D129
:102030008022144B12061A6010BD0E4BD861EBE7DC
:1020400063011B1B9A008023121912015B049A4240
:1020500008D20D4B1A60074B5A608022094BD205FB
:102060001A60E9E7084B094A1A60F4E700B0054036
:10207000D3C007B0008005402D3FF84FFCFF0100A2
:102080000820014000A00540001C0020FFFFFF00C9
:10209000AA23064A1B0113602F230549D360054B71
:1020A00019605368002BFCDA7047C04600400240BC
:1020B00000B0FA00006002402C4B2D4A70B51A6047
:1020C0002C4A2D4B2D491A6014008B689C43FBD180
:1020D0002B4D2C4EB54208D2013E761BB60808CDDA
:1020E000984723000134B342F9D1FFF7C3FD264AD4
:1020F000214B1A60214A9368DB43DB01DD09002B89
:10210000F9D14022214B224C224E9A675A671A6716
:10211000DA66B44208D223682000002B20D00834AD
:10212000FEF7E6FDB442F6D31B4C1C4EC022B1684C
:10213000200000F0BFFBB460FEF7EAFAFEF79AFD5C
:10214000FEF794FF164C174EB44208D2013E361BE0
:10215000B60808CC98472B0001359E42F9D170BDD6
:102160000834FEF7B7FDB442D5D3DDE700E0004008
:10217000BFCDFBFEFE7F3C0000F0004000C00040F1
:10218000D00E0020E00E0020FFFFFF0100F0014014
:10219000C80E0020D00E00200000002000ED00E05E
:1021A000E00E0020E80E002000BEFDE710B5FFF7AE
:1021B000FBFFC0460FB400B5084883B000F0AEFC8A
:1021C000049B002B07D005A91800019100F018F816
:1021D000034800F0A3FC0120FFF7E6FF785400104D
:1021E0008854001010B50148FFF7E4FF8C5400102C
:1021F00010B5002800D110BD00F044FCFBE7C0463C
:1022000010B5094A0300146884B0002C08D00122DC
:1022100000910648524203A9A047012004B010BD16
:1022200000F07CFC0020F9E7FC1B0020F1210010ED
:1022300001480421014B1847500E00206122001074
:10224000142310B50100188804331B88984710BD6B
:10225000162310B50100188802331B88984710BD5B
:10226000F8B54746CE4680B50F1E19D014239946BF
:10227000043304000025012698464B46188843463F
:1022800021681B88984701C4431E9841013540428C
:102290000640AF42F1D13000C0BCB946B046F8BDEF
:1022A0000126F8E7114A936F9B0813D21066516616
:1022B000002905D0FFE7FFE7FFE7516F106F704778
:1022C00004B5002801D00020C04303F045F80021E8
:1022D00004BDC046F0B5146E556E576F166FFFF70C
:1022E000E5FF1466556657671667F0BD000000D01D
:1022F00094464A4A926F9208624601D228E0C0464C
:10230000F0B5464E346E756E776F366F00F020F87C
:102310009446424A14665566576716676246F0BD92
:1023200094463E4A926F9208624601D254E0C046FB
:10233000F0B53A4E346E756E776F366F00F04CF82C
:102340009446364A14665566576716676246F0BD6E
:10235000002B24DB11D000293EDA00B5C9434042EE
:1023600000D1013100F038F8C943404200D10131B9
:10237000DB43524200D1013300BD002AEBD10028DB
:1023800001D1002905D00020C90FC90701D1C043E0
:10239000410800B502F0C8FF0022002300BD00B5CF
:1023A00000290ADBDB43524200D1013300F014F86C
:1023B000C943404200D1013100BDC943404200D170
:1023C0000131DB43524200D1013300F005F8DB4319
:1023D000524200D1013300BD002923D1002B18D176
:1023E000002A0CD0BC460D4F38667A6600210023C7
:1023F000FFE7FFE7FFE77A6F386F6746704700280F
:1024000001D00748010000B502F08EFF0022002332
:1024100000BD02000B00002000217047000000D02A
:10242000FFFFFFFF002B00D0BFE0130C28D1002AD4
:10243000E7D080B4114F39667A66FFE7FFE730B422
:10244000040C7B6F396F1B0423433B667A66FFE7FE
:10245000FFE7FFE7C04684B27B6F3D6F1B04234359
:102460003B667A66FFE7FFE7C04600232C042D0C8D
:102470007A6F386F00196941B0BC7047000000D016
:10248000F0B594460025140E01D112020835140F40
:1024900001D112010435940F01D192000235D40FFD
:1024A00001D152000135D40B0134254F7C66254CF7
:1024B0003C660E0C93B2FFE7FFE7FFE73C6F664315
:1024C000360C7703BE467343DF0B5B04C01AB94179
:1024D000130C7343DB18C91ACE086643360CB64496
:1024E00093B273431F0F1B01C01AB941130C7343FE
:1024F0001F0B1B05C01AB941860D8F023E43664370
:10250000360C092D24DB520A7243801A7703460ADF
:102510006643360C16235B1BDE40DF40BF19644662
:102520006643821B7046043506330100D940A8403B
:10253000C01900D30131A24206D20023F0BD000031
:10254000000000D0FFFFFFFF121B0130F3D3F1E7C3
:1025500009277F1BFE406446A2B27243801A00D254
:102560000139220C7243130C1204821A99410B0098
:102570007046043513370100F940A840801900D394
:102580000131002B02D1A2420AD2F0BD013000D3AA
:102590000131121BFAD2013BF8D1A24200D2F0BDA8
:1025A000013000D30131121BF7E7F0B51C0C00D04D
:1025B00080E00CB400251C0A04D11B02160E334324
:1025C000120208351C0B04D11B01160F33431201F4
:1025D00004359C0B04D19B00960F334392000235C7
:1025E000DC0B02D192185B4101351C009718644145
:1025F0000134464F7C66464C3C660E0CFFE7FFE715
:10260000FFE7C0463C6F6643360C7703BE4697B281
:102610007743C01B00D20139C01B00D201399FB2E1
:102620007743C91BC91B170C77437E04FF0B801B24
:10263000B941CE086643360C0C2D33DBB644120B81
:102640001F053A431B0B97B27743C01B00D20139D9
:102650009FB27743C91B170C77433E043F0C801B86
:10266000B941860D8F023E43664329277F1BFE40FA
:102670000C3D7746AF40BF1930BCA2B2ABB272433B
:102680007343801A9941220C7243130C1204801A6E
:10269000994102000B000137001BA941F9D2781EB5
:1026A0000021F0BD0C277F1BFE4077467F0BAF401B
:1026B000FF19E0E700245D1C07D0144F7D663966E2
:1026C000FFE7FFE7FFE7FFE73C6F95B29EB2654388
:1026D0006643401BB141150C1E0C6543664336042E
:1026E0002F0C3E432D04401BB141994204D20200FD
:1026F0000B0020000021F0BD01D19042F7D3801AD9
:10270000994101349942F2D3F6E70000000000D06D
:10271000FFFFFFFF132370B51D78012D15D010DDCD
:102720001C48FFF795FD1C4C01008022200000F0A2
:10273000C1F8022D06D01948FFF782FD184B18602A
:1027400070BD154C174BA364F5E7164B124C236074
:102750006360A360E36023616361A361E36123625B
:102760006362A362E36223636363A363E36323643B
:102770006364A364E36423656365A365E36523661B
:102780006366A366E36623676367A367E367A3647F
:10279000D1E7C04653440000F00F00204C33000046
:1027A000401C0020A927001007B5604601880A0ACE
:1027B0000230DF2AFAD1C9B2820804D302884088E5
:1027C0000004104300E00068014A5050039007BD28
:1027D000F00F002051434343C9188C46110C83B2BB
:1027E0004B4310B4040C614392B280B25043624335
:1027F0001C041B0C001910BC59411304120CC01806
:102800005141614470470000132310B512481C78F1
:10281000FFF71EFD0100012C0AD003DD80220F48C6
:1028200000F048F80E48FFF70BFD0E4B186010BD86
:102830000A4C5422200000F03DF80B4B6365A36561
:10284000E36523666366A366E36623676367A3673E
:10285000E3672362E361E5E753460000F0100020E0
:102860004C330000401C00206D28001007B5604666
:1028700001880A0A0230DF2AFAD1C9B2820804D3D9
:10288000028840880004104300E00068014A50506C
:10289000039007BDF010002001480421014B1847A8
:1028A000600E002061220010014B1B6818470000D9
:1028B000600E0020014B5B6818470000600E00208E
:1028C000030010B5080011001B68984710BDC046F2
:1028D000F0B546464F46D646C0B5437D80460E000D
:1028E0001700002B46D0002A3FDD4B1E9946244B93
:1028F0000125002400209A460DE04B461B5D0D3B50
:102900005A425341325DDBB20A2A0BD02B0001340C
:1029100001359F421ADD002CEFD14346325D1B7D0D
:102920000A2AF3D1002BF1D1A04204DA4346211A3E
:102930001B6830189847434650461B680221984749
:10294000013428002B0001359F42E4DC874204DD7E
:102950004346391A1B6830189847F619013E3378F8
:102960000D3B5A42534142461375E0BCBA46B1464C
:10297000A846F0BD0368110030009847F5E7C0464F
:1029800004550010F0B5DE4657464E464546E0B5C4
:1029900085B017001C0006000D00FEF739FD00236E
:1029A000314A12184B41802109068B4202D3012281
:1029B0002E4B52422E4908008A4602F0E5FC019057
:1029C0006B1C03D1300002F06FFC0500002C25D1F8
:1029D000284B9846284B1C68002C15D0002F20D17E
:1029E000264F02E02469002C0ED02368002BF9D07A
:1029F0003B68002B01D0A342F4D120002A00310013
:102A0000C0472469002CF0D1019B002B27D105B0D1
:102A1000F0BCBB46B246A946A046F0BD184B98464E
:102A2000D8E7164B994602ABDF1D0A239B4602E00E
:102A30002469002CE8D02368002BF9D04B461B6892
:102A4000002B01D0A342F3D12A0031002000C0475F
:102A50005B460122390020003B70C047E8E7504642
:102A600002F05AFCD3E7C04640420F00FFFFFF7F51
:102A7000C80E0020D1280010F0170020F817002001
:102A8000C1280010F0B5CE46474680B583B06B46EE
:102A90000600DD1D2870FEF7BBFC00231A4A121841
:102AA0004B41802109068B4202D30122174B52422F
:102AB00017490800884602F067FC164B81461C68DF
:102AC000002C14D0144F02E02469002C0FD023688E
:102AD000002BF9D03B68002B01D0A342F4D1200099
:102AE00001222900FFF7F4FE2469002CEFD14B46A8
:102AF000002B05D1300003B0C0BCB946B046F0BDD4
:102B0000404602F009FCF5E740420F00FFFFFF7F5F
:102B1000C80E0020F0170020F817002070B5040040
:102B200002F0C2FB00230100050001222000FFF794
:102B300029FF084B1C68002C06D06368002B05D0C9
:102B400098472469002CF8D1280070BD2469002C16
:102B5000F3D1F9E7F01700200A4A1368002B05D1DA
:102B60000CE01A001B691032002B07D09842F8D1F4
:102B7000002902D103691360016170470029FCD06C
:102B80001060FAE7F017002010B500F0C7F800F069
:102B9000C5FA012010BDC046F0B50D1E15DD0E4B67
:102BA0000E491A680E4B0D27D3185C4263415B0037
:102BB0005E5E202145190478A64207D09369194228
:102BC000FCD101301460A842F5D1F0BD93691942DF
:102BD000FCD11760F2E7C046641C0020601C002096
:102BE0000080FCBF30B50500002925DD0020102441
:102BF0001B4B013D1A6893691C4218D1013093693F
:102C00001C42FCD113682B548142F4D1154B1B6834
:102C1000002B0BD0502338219363536B343219406F
:102C200080235B0113431960002815D030BD0D4B84
:102C30001B68002BEED1F7E70A4B1B68002B0BD06B
:102C400050223821064B1B689A635A6B343311406B
:102C5000802252011343196003204042E6E7C04638
:102C6000641C00204C170020064B10B51B68002B7D
:102C700006D00021044A12689163044A10689847FC
:102C800010BDC0464C170020641C002054170020C3
:102C90001D4BF0B51A68C64698461C4B0E00D3185B
:102CA00059424B411A4F14331C00050000B53B68D4
:102CB000002807D0002B11D0164B3D601E6080BC51
:102CC000B846F0BD002BF7D0906300212000FDF73F
:102CD0004BFD20001049FDF79BFEEDE720000E495B
:102CE000FDF77AFD01212000FDF73EFD434650220D
:102CF00038211B689A635A6B343311408022520189
:102D000013431960D8E7C046641C00200080FCBF54
:102D10004C17002054170020692C00100C4B10B5E4
:102D20001B780C4B0C4C1B780C4B022100202360B1
:102D3000FDF748FC02210120FDF744FCE121206859
:102D40004902FEF747FE01210548FFF705FF10BDC8
:102D50008457001088570010641C00200040034076
:102D6000700E00207047C0460022014B1A70704759
:102D70007F1C00204B790020FF2B0BD18B79002B7F
:102D800008D1CB79012B05D1082A03D9024B8A78C7
:102D900009301A707047C0467F1C00200120704720
:102DA00070B5012909D115495379107909781B02A9
:102DB00003430020994202D070BD0120FCE7537804
:102DC000012B08D0022BF7D1002064220021FFF74D
:102DD00011F90120F0E79478D2780500120214432B
:102DE000D20502D5620A93401D000548FFF728FA74
:102DF0007F210300214028009847C0467F1C002007
:102E000055420000012303700048704748550010E8
:102E10004B780A781B0213438A7810B512041A43C0
:102E2000CB781B0613439622D200934200D010BDEC
:102E30000348FFF705FA0021030008009847C04641
:102E400055420000024B1860024B19607047C046A3
:102E5000501700205817002010B5024B1878FDF7C6
:102E600095FC10BD801C0020114B70B51A68002A1B
:102E70001AD0EFF3108172B610680028FCD0BFF3AF
:102E80005F8F00200B4A596010701B68BFF35F8F83
:102E9000186081F3108800240025074B1878FDF78F
:102EA00075FC2900200070BDFA240025A400F4E779
:102EB000201C0020811C0020801C002070B5040014
:102EC00000200E0001F022FB002837D0002001F086
:102ED00035FB002832D0FEF79BFA0023194A12185E
:102EE0004B41802109068B4216D2174D280002F073
:102EF0004BFA002822D0002001F008FB00280FD157
:102F0000012000210324404200F0CEFC644228004E
:102F100002F002FA200070BD01220C4B5242E4E79D
:102F2000002001F00BFB0028EAD021003200002035
:102F300001F010FB041EEAD1033CE8E703246442DD
:102F4000E8E7C04640420F00481C0020FFFFFF7F1B
:102F5000F8B5DE46574680B505000C00FEF758FA76
:102F60000023374A12184B41802109068B4202D3B5
:102F70000122344B5242344908008A4602F004FAD6
:102F8000002803D1C0BCBB46B246F8BD002001F00A
:102F9000BDFA00284AD00026002C43DD2B4B9B466F
:102FA00014E0A919002001F049FB070001200021CD
:102FB000404200F079FC002001F004FBFEF728FA03
:102FC000224BF61918605960B4422BDD002001F045
:102FD0004FFBA71B0200B84200DD3A00002AE0D1F7
:102FE00001200021404200F05FFC002001F0EAFADD
:102FF000002001F08BFA002814D0002001F038FBEB
:103000000028E1D1FEF704FA5B460F001A685B68FE
:10301000002184460E4812184B419F4202D8D3D15A
:103020009445D1D9504602F077F9ABE70020002152
:10303000064B18605960504602F06EF9A2E7C04690
:1030400040420F00FFFFFF7F481C0020E80F0020D8
:1030500020A1070010B5244C84B00021200002F00C
:1030600083F900281CD1214B1A68002A16D0EFF3EF
:10307000108172B610680028FCD0BFF35F8F012466
:103080001B48596002781B68D2B20470BFF35F8F8F
:103090000020186081F31088002A0AD004B010BD07
:1030A00001200021404200F0FFFB200002F034F933
:1030B000F4E7FEF711F80400FEF7AAF9FA2200235C
:1030C000920012184B41802109068B4202D3012243
:1030D000084B524201210291002101910649200032
:1030E0000091FDF7FDFFD9E7481C0020201C0020BF
:1030F000811C0020FFFFFF7F692E0010054B10B5DB
:103100001868002804D0044B0022196801F06EF8FA
:1031100010BDC0465017002058170020D02310B50E
:103120001B0684B01C68FDF7D7FFFEF79BF8A04292
:1031300002D0002004B010BD274B1B7801F082FCA8
:103140002648FDF7C7FD0120FDF7A6FDFF23244C0F
:10315000244920701840FDF73FFB20780121FDF73E
:1031600003FB0520FDF71AFB002827D1FDF7B4FF6C
:103170000400FEF74DF9FA220023920012184B4189
:10318000802109068B4202D30122174B52420121B2
:10319000029100210191154920000091FDF7A0FF47
:1031A0000822040000211248FFF77EFB002CC0DB40
:1031B00010480121FFF7D0FC0120BBE700220E4997
:1031C0000520FDF733FBFDF7B1FA094B01001800AC
:1031D000FDF7ACFDECE7C0468C570010481C002002
:1031E000801C002055300010FFFFFF7F692E00106B
:1031F000201C0020880E0020592E00100048704727
:103200000056001000487047AC55001070B504001F
:1032100017480378002B21D0002C06D1154B1648F7
:103220004380063BFF3B038070BD052C1DD8134B2C
:103230001148A400E558811C002304E001330A80F2
:103240000231132B0ED0EA5CDCB2002AF6D1C02387
:103250000134E4B264009B002343E4E7112100F051
:1032600017F8D9E7CA239B00DDE70020DCE7C0465A
:10327000681C002009040000C81700201456001024
:1032800010B5024800F0D8F810BDC046381C002028
:1032900030B54B1E012900D1A7E0664A11780D1107
:1032A0002C0030349F2900D9A2E00470012B00D1FA
:1032B000BEE00F21147821400C003034092900DDD4
:1032C00098E04470022B00D1B2E054782511290017
:1032D00030319F2C00D990E08170032B00D1A7E002
:1032E0000F2121400C003034092900DD87E0C47033
:1032F000042B00D19CE094782511290030319F2CBB
:1033000000D97FE00171052B00D191E00F21214010
:103310000C003034092900DD76E04471062B00D121
:1033200086E0D4782511290030319F2C00D96EE039
:103330008171072B00D17BE00F2121400C0030343C
:10334000092966DCC471082B00D171E014792511BC
:10335000290030319F2C5FD80172092B68D00F21D2
:1033600021400C003034092958DC44720A2B5FD00C
:1033700054792511290030319F2C52D881720B2BA2
:1033800056D00F2121400C00303409294BDCC47287
:103390000C2B4DD094792511290030319F2C00D968
:1033A000073101730D2B43D00F2121400C00303425
:1033B000092901DD37310C0044730E2B38D0D17947
:1033C0000C11220030329F2900D9073282730F2B53
:1033D0002ED00F220A4011003731092A01DC303289
:1033E0001100C173102B23D010300023037030BDA7
:1033F00007345AE737310C0063E707316CE73731A0
:103400000C0074E707317DE737310C0085E70731A1
:103410008EE737310C0095E707319DE737310C0017
:10342000A3E70731AAE737310C00C4720C2BB1D1E6
:10343000C018DAE7381C002030B5002589B0040038
:103440000922002101A80095FFF72EFA0922002188
:1034500005A80495FFF728FA4B236A4668461370BF
:1034600004A90D2201F050FF152108222000694413
:10347000FFF720FA09B030BD10B501210520FDF796
:1034800073F910BD10B500220021024800F05AF96E
:1034900010BDC0461C1800208022024B5202DA6484
:1034A0007047C04600201150F0B5C64600B5060072
:1034B00000F022F90C231B4DFF22AB6705201A49AF
:1034C000FDF7B4F940239846184C40220021200013
:1034D000FFF7EAF943460127238321210023144AF9
:1034E0006770A260136063545F3161844146218735
:1034F000053963540F4A10496360E260A1620B60B2
:103500006362E26201F018FF80239B052F64EB6485
:1035100090230A4A3000EA50FFF7BEFF80BCB8464D
:10352000F0BDC04600001150A5040020FC1700208B
:1035300084001050000110508000105010D0010085
:103540000B785B0602D14B78052B00D070478A7848
:10355000014B1A60FAE7C04600001150F0B5C646AC
:1035600000B5CC7888780A794B797F21A40701408F
:103570001B02C50913434F00A20F1400324E7A19E3
:103580005201B218907001206840507000205B0515
:103590005B0DD0701383D4768046CA00012D33D0E2
:1035A0002A488446880162448446B4446046826066
:1035B00040461060002933D0254AC9009046624633
:1035C000414451603F223F339343022C00D15B00C2
:1035D00020487A1901685201B218D1601E4ACB18EE
:1035E000036051405A40802388465B019A4228D8A4
:1035F0004346A4061C4380237F197F01F619726895
:103600001B062343136011E014488446880162447A
:103610008446B4446046826240461060002909D165
:1036200000236D0175196B600D4BEB60012080BCB0
:10363000B846F0BD084AC90090466246414451620E
:10364000C0E7FEF7CFFDD3E7FC1700208400105041
:1036500004001050041C0020000010508000105086
:103660000001105010B501F067FE10BD10B57F20AD
:103670000C0020404000E409110000191A00034B1F
:103680004001C01800F05EF8012010BDFC170020BA
:103690007F23180010B508400B420BD0C9098022C7
:1036A0004000074B401840010021C018120101F0F2
:1036B00083FE10BD0223034AC9095B1A9366EEE735
:1036C000FC170020002011507F22130010B50B4082
:1036D0000A4200D110BDC9095B005B1804485B01B8
:1036E000C018002300220349C37001F065FEF1E712
:1036F000FC170020FFF7FFFF80220D4B520410B58E
:103700001A600C4B0C491A6010008B689843FBD16F
:103710000A4C9C2200212000FFF7C6F880220021DD
:1037200052010748FFF7C0F80923636710BDC04680
:1037300000E0004000F0004000C0004000001150D8
:103740000000105070B5837E04000D001600002BA1
:1037500017D10023E38201332000A682A3762561DE
:1037600001F0F2FD002804D080219023084A89024C
:10377000D150200001F028FE002805D00123237736
:1037800070BD01F011FEE4E7200001F005FEF7E74F
:1037900000201150024B5878431E9841C0B2704728
:1037A00018150020024B18784007C00F7047C0461C
:1037B00018150020034B1878FF38431E9841C0B2FB
:1037C0007047C046C40E0020F8B5CE46474680B5C7
:1037D0002B4E050033780120FF2B03D0C0BCB94627
:1037E000B046F8BD532200212648FFF75DF8264C6D
:1037F0002000FDF76FFA254B1C60254C200014308B
:10380000FDF784FA200001F0E3FB224B224F1C60FD
:10381000224B9846002B04D03800FFF7F3FA204BD8
:103820001860424600243B78002A22D01D4A904668
:103830001B4A9146A34212D80FD143469847013400
:103840003B78E4B2A342F5D228003570FFF72CFE96
:103850002800FFF711FE0120C0E70020BEE74A461E
:10386000630012681B19DB00D318002BF5D01B680E
:10387000E4E700F009FF3B780020002BAED1E3E73E
:10388000C40E002018150020D01400206C15002054
:10389000A80E002070150020791C0020052E0010B5
:1038A000F011002089460010F0B5DE4657464E461E
:1038B0004546E0B58DB001F0CBF8002800D114E109
:1038C000AD4BAE4D9946AE4BCA461F0009AC2E68B3
:1038D0007269EFF3108172B61368002BFCD0BFF34E
:1038E0005F8FB1613000210001F0BAF97269B369EC
:1038F000BFF35F8F0021116083F31088002800D18F
:10390000F3E06378082BE2D852469B00D3589F46D9
:103910006368002BDBD0A0689847D8E77F20217927
:10392000974E08404300F3189846CA09904446460B
:1039300001233036F2789A43F270F27803339A43D7
:10394000F270002800D1F3E043468E4ADB7C002A67
:1039500006D08D4A1278934200D265E19B1ADBB201
:10396000002B00D0C1E0894EA36862792078B0476F
:10397000ADE701223B78012113433B703323042040
:10398000FA5C8A43FA54FA5C8243FA540133FA5CD3
:103990008A43FA54FA5C8243FA54237800209B4607
:1039A00000F026FD602223791A40602A0DD0402ABB
:1039B00000D1C3E0DB06DB0E012B00D13FE1022B7F
:1039C00000D1F3E0002B00D1C7E020780021FFF701
:1039D0005FFE80212078FFF75BFE78E7684E337842
:1039E000DB0700D473E76A4B002B00D16FE700E0E0
:1039F00000BF6CE7624E3378DB0700D467E7654BA6
:103A0000002B00D163E730780007C00F00E000BF53
:103A10005DE723785B4A99465B4B002698461B7806
:103A2000002A00D17CE05C4A00925C4A93469E42A8
:103A300062D319D1009B48469847434601361B780C
:103A4000F6B2B342F3D24E4E532200213000FEF7BD
:103A50002BFF1022FF21F01CFEF726FF3000202252
:103A6000FF211330FEF720FF00F0B8FC4C4B002B79
:103A700000D12CE700E000BF29E72378414A9946AE
:103A8000414B002698461B78002A21D0424A0092DA
:103A9000424A93469E4239D321D1009B48469847DB
:103AA000434601361B78F6B2B342F3D2344E53226A
:103AB00000213000FEF7F8FE1022FF21F01CFEF777
:103AC000F3FE30002022FF211330FEF7EDFE07E069
:103AD000484600F017FE43461B78002BE6D0284EE0
:103AE00000F07CFC2379B370F1E60DB0F0BCBB466E
:103AF000B246A946A046F0BD5A46730012689B190B
:103B0000DB00D318002BAFD05B6894E75A467300F4
:103B100012689B19DB00D318002BE0D05B68BDE76F
:103B2000484600F0EFFD43461B78002B9CD18AE706
:103B3000A3686279207800F06FFCC8E61948002875
:103B400000D142E700F054FC012158460AAA00E0E7
:103B500000BF002800D0BAE637E7202A00D1A3E052
:103B6000002A00D031E76379092B00D92DE70E4AEE
:103B70009B00D3589F46C0468C56001070150020FD
:103B800018150020052E0010791C0020FD4800109B
:103B9000000000000000000005470010F0110020A8
:103BA0000000000000000000B05600107023217AD1
:103BB0000B4200D009E70F330B405B00CE09F81829
:103BC0008019C07C00938446D148002808D0D14891
:103BD0000078844500D28AE06346181AC3B29C4636
:103BE000604600287DD1002A00D03DE1CA4B9846AE
:103BF00063791A00994602239A43012A00D137E1DA
:103C00004B46002B00D0E0E6009B08AAFB189B194E
:103C10003033DB7802329B07DB0F138058460223D8
:103C20000AA900F085FB52E6BC4A58001268C31886
:103C3000DB00D318002B00D157E71E6994E6237AE6
:103C40000F2B00D9C1E6B24AFB18DB78002A05D059
:103C5000B04A1278934265D39B1ADBB2002B00D096
:103C6000B3E6AF48AC4E00F0C3FB01215846F36801
:103C70000AAA9847002800D029E660221600237976
:103C80001E401A4200D0A0E663790A3B012B00D9FE
:103C90009BE600F0ADFB63790A2B00D14CE158465E
:103CA0000AA900F02FFB12E6237A0F2B00D98CE62D
:103CB000974AFB18DB78002A06D0964A127893427E
:103CC00000D2F8E09B1ADBB2002B00D07DE69448CE
:103CD000914E00F08DFB01215846F3680AAA9847DF
:103CE00037E7002A00D070E60023984680E7634655
:103CF0005B009846E0444346DB00984687480068EE
:103D00008044002A00D173E74346002B00D15CE6D3
:103D1000D86800F06DFB434601215846DB680AAACB
:103D2000984716E77D4A59001668CB18DB00F6184D
:103D3000002E00D149E6F06895E7A37902931A00B6
:103D40007B789A4207D07B78002B00D05BE1029B06
:103D5000002B00D0F9E0029B58460AA97B7000F0C6
:103D6000D1FAB4E57B7808AA0232137058460123D1
:103D70000AA900F0DDFAAAE5E088030AC0B20F2B19
:103D800000D922E667499A008A5897460AA800F0A7
:103D900035FB5846A179FFF775FB02223B781343A8
:103DA0003B7094E5E388012B00D00EE608223B78B7
:103DB000584693430AA93B7000F0A4FA87E5022015
:103DC000397808AB9A1C8B068908DB0F01400B433E
:103DD00023E7E388012B00D0F7E508223B7858461B
:103DE00013430AA93B7000F08DFA70E54E4B002B8F
:103DF00000D1EAE500E000BF021E00D1E5E5D3787E
:103E000091781B020B4358460AA900F091FAA0E6EC
:103E1000464B002B00D1D8E500E000BF021E00D1C8
:103E2000D3E5584613780AA900F082FA91E6218971
:103E3000FFF7ECF9021EF4D1C7E5022B00D167E1D0
:103E40003B4B002B00D1C0E500E000BF0200002A80
:103E500000D1BAE5D3E7FFF7D1F9122302000AA98E
:103E6000584600F065FA74E62B4B2D48984650E70B
:103E7000E288002A09D14B46012B27D0009BFB1872
:103E80009E193036F3789B0734D54346002B00D17A
:103E90001DE5D86800F0ACFA43460121DB680AAAA8
:103EA00058469847002000F0A3FA3423FB5CDB0758
:103EB00000D50CE5F3E6194A59001668CB18DB006B
:103EC000F618002E00D180E5F06802E7009BFB1891
:103ED0009E193036F3789B07D7D5164B1878FFF725
:103EE000F3FB0222F37893434A46F370F37893434B
:103EF000F370CAE70F4B1878FFF7CAFB0222F3787A
:103F000013430122F370F3781343F370BDE7C04607
:103F1000052E0010791C002018570010F011002009
:103F200019480010D85600100000000000000000E2
:103F300000000000C40E002008AB9A1C5846012364
:103F40000AA9167000F0F4F9C1E4581EC0B2FFF7D8
:103F500059F9002800D138E543780593022B00D0A9
:103F600033E50121C279B946931152110B400A4041
:103F700012015B0113433A782F318A4313433B709C
:103F80000923984680448278C378009545461B02F1
:103F90001343C3180393039BAB4200D8AAE001224A
:103FA0006B7801920B2B03D1EB7801932B78ED18F2
:103FB0006B78042B24D10026039B5D4A5B1B9BB2CC
:103FC0001F005C4B04931B78B2425BD0A8465A4A50
:103FD00006925A4A0792B34200D982E010D1069B5A
:103FE000079D3A00414658469847082802D987421B
:103FF00000D388E0049B01361B78F6B2B342EAD2C4
:104000004F46009DE1E45846FFF72CFBBB78484A39
:104010000093484B002698461B78002A10D0484A47
:104020000192484A9146B34223D81FD1019B58467A
:104030009847434601361B78F6B2B342F3D206E006
:10404000584600F05FFB43461B78002B0ED15322ED
:1040500000213800FEF728FC1022FF21F81CFEF793
:1040600023FC2022FF213848FEF71EFC009BBB707A
:104070006DE618224B4672431B689B18002BF5D047
:104080005B68D4E73A002900584600F051FBB84677
:1040900007000828B4D943468342B1D3274B98463A
:1040A000019B012B3BD00022484609E0AB78D31896
:1040B000DBB2C318D978FF292ED10132DE70D2B21B
:1040C000019B9A42F2D13300290081463A001E48F2
:1040D00000F040FD049BED191B78B34200D35AE772
:1040E0008EE7184B1D6818237343ED18002D87D0F9
:1040F000AB6876E7154B4F46009D002B00D12AE6B2
:1041000000E000BF27E62B00070045469846C7E7BA
:10411000FFF778F802009AE60700009D55E4424652
:10412000054B92689A42BED1059B0193BBE7C046FE
:10413000052E0010791C0020314700101857001080
:1041400005470010F01100202B1500200000000092
:10415000F8B557464E46DE4645460C00E0B516001B
:104160001F00002A3CD01F4B00259A467023994619
:104170001D4B9B4617E05B462000997800F0B0FC91
:1041800000281FD021004046FFF7E8F9002819D089
:10419000A378DA09012A1CD00A9A01351370237812
:1041A000E418B5421CDA6378052B0BD1E3789B0742
:1041B0009B0FBB4206D153464A461B789846A378CC
:1041C0001A42D8D00020F0BCBB46B246A946A04651
:1041D000F8BD0B9A013513702378E418B542E2DB81
:1041E0000120F0E7C40E002018150020802310B530
:1041F0001B0184B001930E4B02901C68039162690D
:10420000EFF3108372B611680029FCD0BFF35F8F03
:10421000A361200001A900F0E7FD6269A369BFF373
:104220005F8F0021116083F3108804B010BDC04679
:1042300070150020702270B5094B0C001D788B782A
:104240001A4201D0002070BD064B2000997800F082
:1042500047FC0028F6D021002800FFF77FF9F2E79D
:10426000C40E002018150020074A0B0011687F2299
:1042700010B51A40DB09054852003333D318C01873
:1042800000F0EAFB10BDC0466C1500201815002098
:10429000074A0B0011687F2210B51A40DB09054858
:1042A00052003333D318C01800F0FEFB10BDC046D7
:1042B0006C1500201815002070B57F250F480D40A3
:1042C0006D004419CE09A4193034E5780020ED07BB
:1042D00000D570BD0126E578094835430078E570C2
:1042E000FFF7C4F90028F4D10122E3789343E37087
:1042F000E37803329343E370EBE7C04618150020E0
:10430000C40E002070B5094C0600082220000D00E4
:10431000FEF7D0FA00238021E360A3602B78300001
:10432000994300220023FFF7C7FF70BDBC14002093
:10433000F8B5CE4647469046264E80B581460822BF
:1043400030000D001F00FEF7B5FA4346B3600023AE
:10435000F381EC79AB7924021C43231CBC4200D9C5
:104360003B1C9FB2B381002C12D0002F1CD04346BF
:10437000002B2CD03B1C402F1BD89FB233787F2BB7
:104380001CD80021144A3B004846FFF795FF07E080
:1043900080212B780022994348460023FFF78CFFA9
:1043A000C0BCB946B046F8BD31780022C909C90180
:1043B000E9E740239FB233787F2BE2D9064C3A00DD
:1043C00041462000FEF776FA80212200DBE700203C
:1043D000E6E7C046BC140020D814002010B5142213
:1043E00000210248FEF760FA10BDC046BC14002050
:1043F000014B18617047C046BC14002010B5054C35
:10440000010008222000FEF755FA0023A360E360B4
:1044100010BDC046BC14002070B5394C1D00237877
:104420000600DA09C9098A4213D00020002D00D005
:1044300070BD344B002B03D021003000FFF780F813
:104440002369002B41D0220003213000984701202E
:10445000EEE77F2B06D8A068002834D02A002A492E
:10446000FEF728FAE289A1685219E38892B2491945
:10447000E281A160934214D03F2D12D9A389981AEA
:10448000051C80B240282CD82078ADB27F282AD8CD
:1044900000219A4232D01C4A2B003000FFF70CFF5B
:1044A000C6E72369002B05D022000221300098477F
:1044B00000280CD08021237800229943300000236B
:1044C000FFF7FAFEB4E70020B2E70120B0E70021D1
:1044D0003000FFF7DDF830008021FFF7D9F8012028
:1044E000A6E74025D0E79A4207D0074C2A002000D3
:1044F000FEF7E0F980212200CEE780210022CBE701
:10450000BC14002041350010D814002010B5040060
:10451000FFF740F9002801D1002010BDFFF742F954
:104520000028F9D1B22292006243034B01309B185C
:104530001B791840F1E7C046F4110020B2239B001C
:10454000584310B5024B1030C01800F055FB10BD99
:10455000F4110020F0B5B225AD0045432C00C6464D
:10456000174F1034E41900B5200092B200F0C8FBD8
:104570000600200000F05EFB3F2803D8300080BC1E
:10458000B846F0BD7B190020D9789846FFF76CFE3D
:104590000028F3D0200000F04DFB3F280AD99223D9
:1045A0009B00EA184346D219D97800204023FFF730
:1045B00083FEE3E743460020D978FFF769FEDDE795
:1045C000F4110020F8B50400FFF7E4F8002801D149
:1045D0000020F8BDFFF7E6F80028F9D1B2239B00D0
:1045E0005C432500144E2435AD19280000F004FB6F
:1045F0000028EDD037190020B978FFF735FE0028E4
:10460000E6D0A2239B009C466444A4192100280004
:10461000402200F075FBB978051E08D00300220087
:104620000020FFF749FE0028D2D02800D1E7002063
:10463000FFF72EFECCE7C046F411002070B5B2247F
:10464000A4004443094B2434E418050092B220002E
:1046500000F00EFC0600200000F0CEFA3F2801D842
:10466000300070BD2800FFF7ADFFF9E7F41100201E
:10467000B2239B00584310B5024B2430C01800F001
:10468000D9FA10BDF4110020B222F0B51B4C83B052
:10469000002120009200FEF707F9FF236371184BF9
:1046A00080260025E38001270823210020007600D2
:1046B00023733200278138310095073B103000F01A
:1046C00063FA2100200039313200FF3101230097C5
:1046D000243000F059FA8E239B00E6183000FCF7D6
:1046E000F9FA90239B002662E6183000E561FCF79A
:1046F000F1FA2663656303B0F0BDC046F4110020F3
:1047000000C2FFFF10B5094C052200212000FEF772
:10471000CBF820002434103000F05AFC200000F0C8
:1047200057FC0121200000F073FC10BDF4110020A3
:10473000F0B54B79060083B0022B02D18B79022BA6
:1047400003D00025280003B0F0BD304FBB78002B0C
:10475000F7D18B7809253B700C780C196378242BE2
:104760000BD1082A02D80FE0AA420DD32378E4180F
:10477000ED186378ADB2242BF6D0052B21D0042B95
:1047800002D163790A2B2FD0214C200000F052FA7D
:104790003F28D7D92600103E0020F178FFF764FDAE
:1047A0000028CFD0200000F045FA3F2817D98E23EB
:1047B0009B00E218F93BF178FF3B0020FFF77CFDFE
:1047C000C0E721003000FFF735FD0028B9D0A378FD
:1047D0007B702378ED18E4186378ADB2CFE7F178F9
:1047E0000020FFF755FDADE70A4B27780193013311
:1047F0000093022202233000E119FFF7A9FC0028F0
:104800009FD00E35ED19ADB2BEE7C046F4110020C1
:1048100004120020F6110020F8B56023140012786D
:10482000050013400020202B12D12F4A63792779ED
:1048300016781B023B439E420AD16378222B27D075
:1048400007D8202B17D0212B02D101293DD00120E0
:10485000F8BD232BFCD101293FD00329F7D1234BED
:10486000002BF4D0E178A37809020020194300E07E
:1048700000BF0120ECE7012927D00329E7D11C4B19
:10488000002BE4D00020911DFEF7C2FA0120DFE7E3
:10489000012922D00329DAD101252E00A378E4785A
:1048A000023924021C431471264024321000714046
:1048B00000F0AEFB0F4B002BC9D062080020310086
:1048C0002A4000E000BF0120C2E7072321002800A2
:1048D000094AFFF72DFD0120BAE721002800FFF764
:1048E00011FD0120B4E7C046F411002000000000D3
:1048F000112E001000000000FA110020F8B55746F4
:104900004E464546DE46E0B5494F8046FA780C00F3
:104910001E008A4264D19AB292239B00FD18102394
:104920009B46BB442900584600F0A2FA414BD946A9
:10493000002B18D07B79D946FF2B14D0002E12D033
:10494000AA19924603E0013555450CD07B792A78A7
:104950009A42F8D1484600F065F90028F3D17979F8
:1049600000E000BFEFE7344B002B04D0484600F0D6
:1049700059F9002852D0484600F05CF93F2834D855
:104980004B46103B9B78A34207D001242000F0BC8B
:10499000BB46B246A946A046F8BD284B002B02D024
:1049A000002000E000BF0020FFF70CFE0028ECD143
:1049B000234D280000F020F90028E6D1002EE4D095
:1049C000B606E2D1243D4046A978FFF74DFC041E0F
:1049D000DBD0002300224046A978FFF76DFCD5E725
:1049E000BB788B42D9D00024D0E74D46103D002043
:1049F000E978FFF739FC002801D1AB78C3E74846D6
:104A000000F018F93F280CD98E2292004023002094
:104A1000E9784A44FFF750FCAB78B4E7FEF76EFB49
:104A2000A9E70020E978FFF733FCAB78ABE7C04695
:104A3000F411002000000000FD3000100000000014
:104A40001812002010B50020FEF7BEFE10BDC046B3
:104A500010B5FEF7AFFE10BD037870B5DB0704009C
:104A60000E00DD0F002B17D103785B0701D528005E
:104A700070BD01213000494200F07EFC2378DB0745
:104A8000DD0F002B0AD123785B0708D4042223789A
:104A900001251343237002E00025E8E700253000DC
:104AA00000F03AFCE3E7C04670B50D0001210400B8
:104AB0004942280000F060FC23785B07DE0F002BE2
:104AC00004DB280000F028FC300070BD2378DB07F1
:104AD00004D40422237893432370F2E70026F0E7FE
:104AE000437902791B0213435B055A0DC3789B0778
:104AF0009B0F022B05D0032B15D00020012B08D0D3
:104B0000704702291CD00020402393424041C0B28C
:104B1000F6E702394B4259410C4B9C4661449142A5
:104B20004041C0B2ECE702394B425941F02300202A
:104B300049429B001940403191424041C0B2DFE7F9
:104B4000034BD01843425841C0B2D9E7FF030000DD
:104B500000FEFFFF8A1870B5914207D27F264C787D
:104B6000052C04D00C7809198A42F8D870BD34009D
:104B70008D782C4064000419ED0963550C780919EF
:104B80008A42ECD8F2E7C046F0B5C64600B504004C
:104B900006A805788020884617001E000002824281
:104BA00027D8E068002803D00121494200F0E4FB47
:104BB0002069002803D00121494200F0DDFB434673
:104BC000236073045B0CED031D430023E0686381E5
:104BD000A780E5802381002801D000F09DFB20699B
:104BE0000124002801D000F097FB200080BCB846CB
:104BF000F0BD0024F9E7C04610B5048941898288D8
:104C0000A3B288B28C4207D31B1A9BB2101C9A42E3
:104C100000D9181C80B210BD5100091A5B189BB254
:104C2000F4E7C04603894089181A43425841C0B28C
:104C30007047C04610B5048941898288A3B288B202
:104C40008C4207D31B1A9BB200209A4201D9D21A78
:104C500090B210BD5100091A5B189BB2F4E7C04630
:104C600070B5040000690E00002803D001214942FC
:104C700000F082FB25896089A288A9B283B28542AF
:104C80002CD3CD1AADB2002D2ED0AA4208D291421B
:104C900031D3891A8BB263819A4203D89B1A9BB293
:104CA0009A42FBD9E28821685204520C53433000E7
:104CB000C918FDF7FFFD618901254B1C9BB2A28835
:104CC000994214D9002352009B1A9BB22069638138
:104CD000002801D000F020FB280070BD5500ED1A1F
:104CE0004D19ADB2002DD0D1002563899BB2520081
:104CF0009342EBDBE8E789188BB26381CCE7C046CF
:104D0000F0B546464F46D646C0B50600006989460E
:104D10009046002803D00121494200F02DFB318943
:104D20007289B5888BB294B2914254D31F1BBFB223
:104D3000002F4AD0BD4205D2AB4251D25B199CB282
:104D40002F0074814346B8453DD89FB2A54203D891
:104D5000641BA4B2A542FBD9F28831685204520CFC
:104D6000904662432B1B9BB2891842469F4225D92D
:104D700053439BB21A0048469A46FDF79BFD4346B3
:104D800048467D1B64195C4331685044A2B2FDF76C
:104D900091FD7189B588CB199BB26A00994216D9E9
:104DA0009B1A9BB230697381002801D000F0B4FADD
:104DB0003800E0BCBA46B146A846F0BD48467A4342
:104DC000FDF778FDE5E73B1CBFE773899BB26A00FE
:104DD0009342E7DBE4E76F003F1BDF19BFB2A7E7B1
:104DE0005B1B9CB2ACE7C046F8B50400C0680E007F
:104DF000002803D00121494200F0BEFA258920890C
:104E00006189A288ADB283B28FB2884228D3DB1BFE
:104E10009BB29A4209D8E779FF0906D1E0680028D9
:104E200001D000F079FA3800F8BD2B00954203D389
:104E30009B1A9BB29342FBD2E28820685204520C28
:104E400053433100C018FDF735FDA2886B1C9BB29F
:104E500052009D4209D99B1A9BB201272381DDE7AD
:104E60005100C91B5B189BB2D3E79342F5DBF2E715
:104E7000F0B54E464546DE465746E0B58946050044
:104E8000140083B0002A6CD0C068002803D0012130
:104E9000494200F071FA2F89EA796B89BFB29BB25F
:104EA000D20940D1AE889F4265D27200D31AFB1856
:104EB0009BB2002290469E422FD9F31A1A1C9BB235
:104EC000A34200D9221C93B29846EA884346FB18B5
:104ED0009BB29B463C00B74203D3A41BA4B2B4428E
:104EE000FBD25204520C924662432868331B9BB299
:104EF0008018524643454DD3434649465A43FDF731
:104F0000D9FCAB885B00BB4501D39B4503DB5A460C
:104F1000D31A9BB29B465B462B81E868002822D0BF
:104F200000F0FAF91FE0AA889046944226D29F42E8
:104F300043D34146FA1A92B2490012198A4209DB58
:104F400042469A1892B2171BBFB29346BB4239D958
:104F50007F1ABFB2E3199BB246469B46A046EA8839
:104F6000B8E700239846404603B0F0BCBB46B246C3
:104F7000A946A046F0BDFB1A9BB29AE7A11AEA889F
:104F80005404640C4C434146A1440029C5D0464614
:104F90001F009BE7534399B20A0001914946FDF770
:104FA00089FC43469E1B5346A4195C43019928681B
:104FB000A2B24944FDF77EFCA3E75100CA1ABA1811
:104FC00092B2BAE7B942C3DD4646EA88A04681E715
:104FD00010B50400C068002803D00121494200F048
:104FE000CBF92069002803D00121494200F0C4F91F
:104FF0000023E06863812381002801D000F08CF950
:105000002069002801D000F087F9012010BDC046BA
:1050100070B50400C0680D00002803D0012149428A
:1050200000F0AAF92069002803D00121494200F0CC
:10503000A3F97F21E379ED011940E0682943E1718B
:10504000002801D000F068F92069002801D000F0A4
:1050500063F9012070BDC0460B4B10B59C466044FF
:1050600043425841094A840082B000920848220015
:10507000E31CFBF7FFFA844202DC001B02B010BD08
:1050800001204042FAE7C0460000D0AF3057001080
:105090007D1C0020F0B5D6464F4646468846C0B532
:1050A00005240600FBF7AEFA43461F791C57294B2F
:1050B0008146F01843425841274B9A4683009C464C
:1050C00053466246985801222023BA40DB1B013A1E
:1050D000002C34DB9C422FDCA240150010422BD167
:1050E000002F1CD04246434652781B7812021A43C6
:1050F00043469B781B0413434246D27812061A4358
:105100009046002241465300C95A4B0B00D1091961
:10511000131912339B00013299519742F2D853462A
:10512000624605439D504846FBF778FA2000E0BCF4
:10513000BA46B146A846F0BD0848FDF73BF8002B3B
:1051400002DAF9E7013BF7D315009D401C00054248
:10515000F8D1C5E70000D0AF341600205457001036
:10516000F0B557464E464546DE468946E0B583B023
:105170000CA90C784946490088464944C90046189C
:1051800037003500DC3701903868CC358346286815
:10519000C02582460198CC318446AD016144294343
:1051A0008025AD020D60611E8C4118491F258C467B
:1051B000644225406544052B0ED9A02149058C4643
:1051C0001F21D8366046540104430532053B3C603C
:1051D0000A403560052BF5D852019B061343424621
:1051E00001994A44D20088180200DC32136003009F
:1051F000D8331D605B4613605346CC30036003B068
:10520000F0BCBB46B246A946A046F0BD80E0000017
:10521000F0B501248C401D000368A3430360002DFA
:105220002ED04B005C18E400041926002F68C83605
:1052300037606F68DC347760AF68ED68B760256011
:105240005B18DB001D008024D035451964012C4318
:1052500080252D06256025600125124C2E008C40EE
:1052600084600C1DA640802408318D401F21A401BC
:105270000443C0180A40D830266025600260F0BDA3
:105280004B005C18E400041926008027C8367F0212
:105290003760F8277F027760C027DC343F03B760B0
:1052A0002560CDE70101010110B583070AD0030095
:1052B000032102E001330B4205D01A78002AF9D10C
:1052C000181A10BD030019680C4A0D4C8A188A433D
:1052D00022420FD15968094A04338A188A4322426C
:1052E00008D15968054A04338A188A432242F1D00A
:1052F00000E001331A78002AFBD1E1E7FFFEFEFE51
:1053000080808080F8B5C04601B40248844601BC64
:10531000604700BFD102002001B40248844601BCAE
:10532000604700BF3102002001B40248844601BC3E
:10533000604700BF5D0D002001B40248844601BCF7
:10534000604700BF9503002001B40248844601BCB9
:10535000604700BF9909002001B40248844601BC9F
:10536000604700BF5D0D002001B40248844601BCC7
:10537000604700BFC100002001B40248844601BC60
:10538000604700BFA101002001B40248844601BC6F
:10539000604700BF0501002001B40248844601BCFB
:1053A000604700BF350B002001B40248844601BCB1
:1053B000604700BFD10A002001B40248844601BC06
:1053C000604700BFDD0A002001B40248844601BCEA
:0853D000604700BFC109002085
:1053D80053797374656D20636C6F636B206F6620FF
:1053E8002575206B487A2063616E6E6F7420626544
:1053F8002065786163746C79206163686965766596
:10540800640000001454001003FF00008FE00FE058
:1054180000E000004E6F207370696E6C6F636B73F1
:105428002061726520617661696C61626C6500005B
:105438004E6F2075736572204952517320617265F1
:1054480020617661696C61626C6500004861726414
:105458007761726520616C61726D20256420616CD2
:10546800726561647920636C61696D656400000030
:105478000A2A2A2A2050414E4943202A2A2A0A0069
:105488000A000000486172642061737365727400D9
:1054980052656C6561736500626F6F74325F773255
:1054A8003571303830000000312E352E31000000C3
:1054B8007069636F00000000434C4B47454E5F65C1
:1054C8006E5F385F70696E65730000004A756C2006
:1054D800323420323032340006005250BBFF3CB622
:1054E800B854001006005250E182887FA054001082
:1054F80006005250D3F07542985400100D0A00006F
:105508005541525420737464696E000055415254D9
:10551800207374646F757400554152542073746419
:10552800696E202F207374646F75740006005250E2
:1055380053B4F4A120550010080052509200000006
:10554800652D0010692D0010752D0010A12D00107B
:105558009D2D0010000000005553422073746469AB
:105568006E202F207374646F75740000060052500B
:1055780053B4F4A160550010526173706265727281
:1055880079205069000000005069636F0000000036
:10559800426F6172642043444300000052657365A2
:1055A8007400000009025400030100807D080B000C
:1055B800020202000009040000010202000405249E
:1055C800002001052401000104240202052406002C
:1055D800010705810308001009040100020A000000
:1055E800000705020240000007058202400000098A
:1055F80004020000FF00010512010002EF02014051
:105608008A2E0A00000101020301000000000000C8
:105618008055001090550010681C00209855001007
:10562800A4550010556E68616E646C65642049521B
:105638005120307825780A0065702025642025736C
:105648002077617320616C7265616479206176618D
:10565800696C61626C65000043616E277420636F3A
:105668006E74696E75652078666572206F6E206944
:105678006E616374697665206570202564202573E2
:1056880000000000CE3800107A3A0010123A0010DC
:10569800CE380010F4390010DC39001072390010CF
:1056A8001C39001010390010BE3D0010A43D001038
:1056B800CA390010D23D0010CA3900108C3D0010C4
:1056C800783D0010CA390010643D00103A3D0010C2
:1056D800CA390010563E00103A3E00102E3E001007
:1056E800CA390010CA390010103E00103A3E0010A6
:1056F800CA390010CA390010CA390010CA39001056
:10570800CA390010CA390010CA390010EC3D00101F
:10571800894600100547001031470010194800104D
:10572800FD480010000000004E6F2050494F2073C4
:1057380074617465206D616368696E657320617258
:105748006520617661696C61626C65004E6F2070DE
:10575800726F6772616D207370616365000000008D
:10576800AC020010A002001094020010E0540010D7
:1057780088020010EC540010F85400103455001042
:0857880040550010745500109B
:1057900003000068EFF3108C72B60268002AFCD098
:1057A000BFF35F8F04229A56002A0BDB00290FD02B
:1057B00000200A601B68BFF35F8F00221A608CF321
:1057C00010887047D0221206126801201A71F1E782
:1057D0000020EFE7F0B5C646150000B504001E0036
:1057E0000268EFF3108172B61368002BFCD0BFF390
:1057F0005F8F0423E356002B2DDB2268BFF35F8FFE
:105800000020106081F31088D0221206127852B264
:1058100090469A4203D1002080BCB846F0BD0027D4
:105820000BE02368BFF35F8F1F6081F310882800AF
:10583000310000F005FE0028EDD12268EFF3108161
:1058400072B61368002BFCD0BFF35F8F23797F2BD8
:10585000E7D9434602E0D0231B061B682371236867
:10586000BFF35F8F00221A6081F310880120D3E715
:10587000F0B5C64600B50D00040000F001FEFA22A6
:1058800006000F00002328000021920000F0E8FD30
:10589000802336184F411B069F4202D30126174F23
:1058A0007642D0231B061B68002598460BE0236830
:1058B000BFF35F8F1D6081F310883000390000F066
:1058C000BFFD002818D12268EFF3108172B613686B
:1058D000002BFCD0BFF35F8F23797F2BE7D94346A2
:1058E00023712368BFF35F8F00221A6081F3108851
:1058F000012080BCB846F0BD0020FAE7FFFFFF7F23
:105900000268EFF3108172B61368002BFCD0BFF36E
:105910005F8FFF2303710368BFF35F8F00221A605C
:1059200081F3108840BF704710B5084C2378002BD6
:105930000AD18023064807495B051A68C250043320
:105940008B42FAD10123237010BDC0467B1C00207E
:105950004C1600100001001010B5024B013398479F
:1059600010BDC0464C160020034B1A68C0239B0094
:105970009343024A136070470C8001400C90014031
:10598000054B1A6880239B005340C02292001340AD
:10599000024A13607047C0460C8001400C900140E1
:1059A0001423F0B5D6464F4646469A468146188897
:1059B0000433C0B598460E001B8827491400984749
:1059C000534607001888434624491B889847534686
:1059D00005001888434622491B8898478046FFF7F0
:1059E000A3FFB847A847FFF7CBFF002C1BD0C0216F
:1059F00022000827022049053D008B6A1D401842FD
:105A00000BD0002C09D0131B0D2B1FD84B461B7835
:105A1000013C0B6601239C46E1442300002D0CD180
:105A20001343002BE8D1FFF79FFFC047FFF794FF18
:105A3000E0BCBA46B146A846F0BD002AF1D00B6ED4
:105A4000013A3370130001362343EAE7002DD3D027
:105A5000002AD1D0F3E7C04649460000455800006F
:105A6000464300000022154B10B59A60DA601A61B7
:105A70005A619A61DA611A625A629A62DA621A6348
:105A80005A639A63DA631A645A649A64DA641A6528
:105A90005A659A65DA651A665A669A66DA661A6708
:105AA0005A679A67DA67F03292000021044800F0E2
:105AB000EFFC044B044A1A6010BDC04600001050B1
:105AC0003C180020041C002080011050F0B55746FF
