:020000041000EA
:1000000000B5324B212058609868022188439860DF
:10001000D860186158612E4B002199600221596106
:100020000121F02299502B49196001219960352056
:1000300000F044F80222904214D00621196600F024
:1000400034F8196E01211966002018661A6600F04E
:100050002CF8196E196E196E052000F02FF8012189
:100060000842F9D1002199601B49196000215960AB
:100070001A491B48016001219960EB211966A021F2
:10008000196600F012F800219960164914480160C1
:100090000121996001BC002800D000471248134993
:1000A000086003C880F30888084703B5996A0420EC
:1000B0000142FBD001200142F8D103BD02B5186610
:1000C0001866FFF7F2FF186E186E02BD00000240BE
:1000D000000000180000070000035F00212200005C
:1000E000F4000018222000A00001001008ED00E03C
:1000F00000000000000000000000000074B24E7A12
:1001000000200420F7010010C3010010C5010010F9
:10011000C1010010C1010010C1010010C101001097
:10012000C1010010C1010010C1010010C701001081
:10013000C1010010C1010010C9010010CB01001065
:10014000CD010010CD010010CD010010CD01001037
:10015000CD010010CD010010CD010010CD01001027
:10016000CD010010CD010010CD010010CD01001017
:10017000CD010010CD010010CD010010CD01001007
:10018000CD010010CD010010CD010010CD010010F7
:10019000CD010010CD010010CD010010CD010010E7
:1001A000CD010010CD010010CD010010CD010010D7
:1001B000CD010010CD010010CD010010CD010010C7
:1001C00000BE00BE00BE00BE00BE00BEEFF3058054
:1001D000103800BEF2EB8871D4880010F48800104B
:1001E0003402001090A31AE700201F49086006C8D7
:1001F00081F3088810471D48006800282FD10DA4FE
:100200000ECC002902D000F012F8F9E71849194A7B
:10021000002000E001C19142FCD1174988471749ED
:1002200088471749884700BEFDE701C901C29A42C5
:10023000FBD37047F4880010C0000020200F00207E
:100240005497001000000420000004205497001070
:10025000001004200010042000000000704709482E
:1002600004F04AF90047000008ED00E0000000D06B
:10027000200F0020B41C0020092E0010790300106C
:10028000FD2E00105756000006005250ABB36053CD
:100290003886001006005250861C03024886001063
:1002A000060052505422A29D58860010050052505C
:1002B000DE65F46854970010F8B5C0460648074953
:1002C000091A8B10C90FC91810B5491003D0044B77
:1002D000002B00D0984710BD200F0020200F0020D9
:1002E00000000000054B10B5002B03D00449054861
:1002F00000E000BFFFF7E2FF10BDC04600000000B5
:10030000381C0020E881001001230A6830B5A024C1
:1003100093400C48E40523500B4B80209C469201EF
:100320006244400413680342FCD101221500CC68EA
:100330008868A5400368AB43036000200A71002170
:1003400030BDC046440400000C000050074B10B5FF
:100350001C6801F065FD210001F028FE8022044B9D
:100360001A60044B7F3A1A6010BDC046901C0020F2
:1003700080E200E030202050F0B5DE464E46574681
:100380004546E0B5E04C1920A54400F09DFFD02380
:1003900080221B0692045A6201240023FE251AAE15
:1003A0000EAF142200213000BB81BC7305F066F84B
:1003B000D64BAD05182200211FA834707471B560AA
:1003C000F36005F05BF82423D14C0021D14A27A823
:1003D00025952693219405F051F8CF4B99463B0083
:1003E0004A4623CA23C305F061FA0720CB4901F02E
:1003F00097F80121072001F05BF8962380225B002B
:100400005200E25000F0DCFDC54B9A46C54B9B46BE
:100410004B4605933CE0380005F03CFA0A2005F015
:100420004DF9737C002B70D1337C002B23D0D0236B
:1004300080221B0692045A611FA800F0E1FD338858
:10044000012B00D198E13378012B76D031001FA821
:1004500000F004FE682206AB9B181B78002B5AD0D4
:10046000B14805F017FA6821002306AA5218137044
:10047000642001F039FE3B00059A23CA23C3D02330
:100480008022FA201B0692049A61800001F02CFE63
:10049000380000F071FC3800059907F0C1FD002814
:1004A000B9D03100380000F05BFA642001F01CFE86
:1004B0003178504605F0EEF97178584605F0EAF9C2
:1004C000B1789A4805F0E6F9F178994805F0E2F933
:1004D0003179984805F0DEF97179974805F0DAF935
:1004E000B06804F059FF02000B00944805F0D2F9FF
:1004F000F06804F051FF02000B00914805F0CAF9C2
:10050000317C904805F0C6F985E7F06800F0F0FC12
:100510000023737488E77379002BA9D08A4B0025D8
:10052000994626AC2178484605F0B4F9737901352F
:1005300001349B02AB42F5D89AE77378013B032B59
:1005400084D82198814907F0A9FB23907378032B65
:1005500000D1DDE100D99FE1012B00D1DCE1022BCC
:100560000ED1F3787A4A21999D1802001232920036
:100570005550219A77498C4613306344800083504C
:1005800033791A000C3A012A00D8B1E10F2B00D1BF
:10059000AEE116AB984612AD052002F075FB04F0F3
:1005A000CEFE32796C4B9200041CD05804F0C7FE8A
:1005B000011C201C04F075FE68492590B06804F009
:1005C00084FE04F0E3FE814601F02AFC040001F001
:1005D0007BFEFA22002306900791920048460021F4
:1005E00004F03CFE069A079B12184B418021090635
:1005F0008B4202D301225A4B5242012102911FA980
:10060000019158492000009101F00EFC564B229AAE
:100610001860A0209146C0058446484609931F9B58
:1006200008302199727980009B0163440918196090
:10063000920226A959609A60249A2900DA60259AC4
:10064000239B089200220693EA60F82380225B0233
:10065000520212921393C0231B0310224046AB6038
:10066000219C04F011FF4146069B28000333DA0168
:100670001B0313434B60102204F006FF00220823E3
:1006800049462000009207F06FFB089804F07EFEB8
:1006900083B20020984683420DD0180004F04FFE2C
:1006A000011C089804F0F7FD8721C90504F00DFE30
:1006B00004F06CFEC0B2434600021B04AA68184353
:1006C0002A4B49461A402A4B28601343AB60069ACE
:1006D0002B00200007F0A0FB494601238B40226835
:1006E000802113432360234B1F9A9C46920162444E
:1006F000490413680B42FCD1099B1D6801F090FB73
:10070000290001F053FCA1E664FFFCFF3333D33F23
:1007100000002050FCFF0200E88100104D03001093
:10072000F481001000820010C482001014820010B6
:100730002482001038820010488200105C82001071
:100740006C820010808200108C82001018830010D0
:100750007F200000FF1F0000D482001000007A44B8
:10076000FFFFFF7F09030010901C0020FFFF0A3EDF
:1007700000008180100000507049219807F08EFA27
:100780008021C9018C462390B378219A12306344AA
:100790008000835033791A000C3A012A00D88CE08B
:1007A0000F2B00D189E0052002F06EFA04F0C7FD9E
:1007B0003279634B9200051CD05804F0C0FD011C37
:1007C000281C04F06EFD22991F9B8946A021C905B3
:1007D0008C464946219A083189009B01634452188E
:1007E0000890259070791A6026AA5A60249A80028F
:1007F0009860DA60239AF823069280220021520240
:100800005B02159112921393C02316A8804612AD75
:100810001B0310222900AB60219C04F035FE069AD0
:100820004146D3011203134342462800536010226D
:1008300004F02AFE002100220823200000914946EE
:1008400007F092FA089804F0A1FD82B290460020C9
:10085000002A3ED1434600021B04AA681843394BC4
:1008600012901A40384B49461343AB60069A2B004E
:10087000200007F0D1FA494601238B4022688021ED
:1008800013432360314B1F9A9C46920162444904F2
:1008900013680B42FCD1D9E5042B00D070E62199F6
:1008A000F3782B4A9446020012326344920053506C
:1008B000219A13308000835062E626480CAB0BAAC5
:1008C0000AA900F02BFC002831D12348214902F06D
:1008D00019FB100004F033FD011C089804F0DBFC48
:1008E0008721C90504F0F1FC04F050FDC0B2B1E766
:1008F00012AD16AB2A0017480DA9984600F00EFC61
:100900000028E2D0169A12990D9800F0CBFB43E62E
:100910002199F378114AC5E7F378104A21999D1877
:100920000200123292005550219A094923E60C9A8E
:100930000B990A9800F0B6FB35E7C04628830010F3
:10094000D4820010FFFF0A3E00008180100000509A
:100950007F200000A086010090820010FF1F000091
:10096000F0B54E4657464546DE46E0B595B00FAD6C
:100970000A002B000C00C2CAC2C342CA42C3237879
:1009800067780093A378A6689846E3789946237918
:10099000019363790693E3680293637C9A464378F4
:1009A000442B60D0412B5ED0432B5FD18378562BF4
:1009B00000D1FFE0542B00D0DAE0C3793B2B00D00C
:1009C000D6E0C3781A00303A092A00D97AE10279D0
:1009D00011003039092900D974E1467931003039E4
:1009E000092900D96EE181798B463039092900D96E
:1009F00068E1303B9800C018303A4000801804F09D
:100A0000B1F8303E04900591300004F0ABF8CD4AC7
:100A1000CD4B04F036F802000B000498059904F061
:100A200009F85B46303B04900591180004F09AF8F1
:100A3000C64AC74B04F025F802000B00049805993C
:100A400003F0F8FF04F0D6F80021061C04F06CFC5B
:100A5000002806D1BF49301C04F06CFC002800D1EE
:100A60008EE0122422E1827A3B2A0FD005239A4697
:100A7000B94804F00FFF5146B84804F00BFF15B019
:100A8000F0BCBB46B246A946A046F0BD8278303ADB
:100A9000D2B20492092A00D9F5E0C27811003039A7
:100AA000C9B20991092900D9EDE0017908913039DD
:100AB000C9B20A91092900D9E5E041790B91303991
:100AC000092900D9DFE081790C913039092900D951
:100AD000D9E0C1790D913039092900D9D3E0017AE3
:100AE0000791302149428C4607998B46DC44614688
:100AF000092900D9C7E0302149428C46407A844414
:100B00006146092900D9BEE0442B00D1BEE034D8AB
:100B1000412B30D1049F042F00D9D1E0382A00D0D6
:100B2000D3E0089B312B00D0FCE00B9A9446930055
:100B30000C9A63445B00103A9B18DBB201930D2BB7
:100B400000D9F8E064230D9A079953438A003030A6
:100B500089181B1849005B18DBB20693C02B00D91B
:100B6000EDE008239946073B98460133009307E0E0
:100B700004239A467CE7432B02D0774804F08AFE90
:100B8000424600993B0212040B4349461343524626
:100B900009060B43002A60D10F93019BAE602B71B5
:100BA000069B6B7101232B74230007CD07C306CD71
:100BB00006C364E70422837992463B2B00D057E7B3
:100BC000343A9246C3789A445346DBB2092B00D993
:100BD000AAE003799B18DAB2092A00D9A4E03021EF
:100BE00049428B46427993445A46D2B2092A00D9E7
:100BF0009AE0180003F0B6FF524A534B03F041FF4E
:100C000002900391504603F0ADFF02000B000298E2
:100C1000039903F00FFF02900391584603F0A2FFDF
:100C20004A4A4B4B03F02DFF02000B000298039938
:100C300003F000FF03F0DEFF0021029004F074FBDC
:100C400000286DD1029804F0A7FB454A454B03F0FC
:100C500071FF002864D101239A46009B6F702B70AE
:100C60004346AB704B46EB70019BAE602B71069B0D
:100C70006B71029BEB6053466B74230007CD07C377
:100C800006CD06C3FBE601239A46F1E6049B042B3E
:100C900014D8313A072A41D8089A1300313B012B66
:100CA00015D9342A13D0382A15D008242A4804F03C
:100CB000F1FD2100294804F0EDFDE0E60624F5E70A
:100CC0000C24F3E703239A46D2E60D24EEE7099BB2
:100CD0000A9A93422BD80B9A944693000C9A634439
:100CE0005B00103A9B18DBB20193102B21D86423D0
:100CF00007990D9A8C4653438A00303062441B1882
:100D000052009B18DBB20693C02B16D8099B049F98
:100D100099460A9B98460123009331E70724C5E7CB
:100D20001124C3E70E24C1E702239A46A0E6092452
:100D3000BCE70A24BAE70F24B8E70B24B6E710246F
:100D4000B4E7C0469A9999999999B93F7B14AE47EF
:100D5000E17A843F0000C8423483001044830010CD
:100D60006666666666660A400122024B0020002124
:100D70001A707047AD1C0020F0B587B00590322086
:100D800004F098FD059CC0B26073232817D0FF289B
:100D900000D16BE0322004F08DFD059CC0B2607381
:100DA000FF28F7D100230C2220004749A3732373A7
:100DB00004F06AFB454804F06DFD07B0F0BD012367
:100DC000A3730023424D20702B7001F029F804001A
:100DD00001F07AFA00233F4A12184B41802109069C
:100DE0008B4202D301223C4B52420121029105A9C0
:100DF00001913A492000009101F016F80700431CC8
:100E00003DD0059C0BE02B78DEB2002B0AD13220BE
:100E100004F050FD059CC0B26073FF2811D1A37B84
:100E2000002BF0D12B78002BC7D000230C22200000
:100E30002549A373237304F027FB294804F02AFDF6
:100E4000BBE7227B0132D2B222730B2A1ED8A054F8
:100E50003B28E4D100F0E4FF390001F0A7F8059B3E
:100E600020489E731E7304F015FDA6E700230C2294
:100E700020001549A373237304F006FB9DE7134874
:100E800004F008FD184804F005FDBAE700F0C8FFBB
:100E9000390001F08BF805980C220B498673067314
:100EA00004F0F2FA114804F0F5FC059B5B7BFF2B84
:100EB00000D182E7322004F0FDFC059BC0B25873DC
:100EC000FF28F7D179E7C046E88100104883001079
:100ED000AD1C002080841E00FFFFFF7F690D001005
:100EE000948300108C8300105083001080830010C6
:100EF00030B5002183B0041C04F016FA00282BD171
:100F0000201C04F049FA274A274B04000D0003F087
:100F100011FE002823D01C23E3206A465071137170
:100F2000C046C046C046D02480252406AD02A56137
:100F3000C046C046C046022201A91C4807F01CF961
:100F4000C046C046C0466561C046C046C046142083
:100F500001F0CAF803B030BD30230020DDE7144AA9
:100F600020002900134B03F0D5FD002200280ED0ED
:100F7000114B2000290003F084FD03F02FFEC02355
:100F80009B019C46604483B21B0AC0B2C5E70B4B71
:100F90002000290003F075FD03F020FE80235B0193
:100FA000EFE7C0466666666666660A4000C00340B4
:100FB000FCA9F1D24D62004000409F4000408F40AC
:100FC00010B50C490C4806F08FFF0121122000F0EB
:100FD00063F90121132000F05FF9112000F074F98A
:100FE000D02380221B0692025A6204485A61FFF7FE
:100FF0007FFF10BD20A1070000C003403333D33F63
:10100000124B10B5836004000121806806F028FEB1
:10101000E060012006F056FF882220600C480D4B4E
:10102000844652011A602168A268E3686244501E37
:1010300082410433D2009B18CA020749DB030A40ED
:10104000134321221343636110BDC04600002050AA
:101050000000E0AF00000340FF7F00FF30B585B027
:1010600004000D000D4803AB02AA01A900F056F8D8
:10107000002803D10A48094901F044FF039A029964
:10108000019800F00FF8206806F012FFA068E168F0
:1010900006F0D6FD00232B7405B030BD48E80100F2
:1010A00090820010F0B583B005000E00140000F02F
:1010B00029F9002801D003B0F0BD154F01223B00F3
:1010C00001210097053001F0F1FB33002A00009464
:1010D0000121104801F0DEFD21002800714303F0DA
:1010E00065FA04000C4B002200930221042001F059
:1010F000DDFB2300002201210094052001F0D6FB36
:101100003B00022200210097062001F0CFFBD2E72E
:10111000006CDC0200800240001BB700F0B54E46B8
:101120005746DE464546E0B585B00393554B06006D
:101130009A46A0235B0099460191029201235B42EB
:101140009C46E1444B460F2B00D198E04E4F4F4B4D
:10115000072457449A4569D821003800614303F0B9
:1011600025FA864248D0631E9846012C5ED01D00A9
:1011700065433800290003F019FA86425AD0A31EAD
:101180009B46022C5CD02D1B2900380003F00EFA80
:10119000864257D0E31E9B46032C6ED02D1B2900A0
:1011A000380003F003FA864250D0231F9B46042CDC
:1011B00052D02D1B2900380003F0F8F986424DD09B
:1011C000631F9B46052C4FD02D1B2900380003F0D0
:1011D000EDF986424AD04346052B4CD03800E91F32
:1011E00003F0E4F986421CD0062421003800614354
:1011F00003F0DCF98642B6D10029B4D1A0464A46B4
:10120000234B01205343019A13604246029B1C600A
:10121000039B1A6005B0F0BCBB46B246A946A04687
:10122000F0BD0029E0D101239846E8E7194B9C4620
:10123000E24483E70029E2D0A31E9B46022CA2D100
:10124000012489E70029A5D1D846D8E70029FBD099
:10125000231F9B46042CACD103247DE70029F3D047
:10126000631F9B46052CAFD1042475E70029EBD002
:101270004346052BB2D105246EE702246CE700201B
:10128000C8E7C04670F72E00B0710B0050F80C0094
:10129000001BB70020D1FFFF094A10B59446402437
:1012A000830063441A68C000624080341440802286
:1012B000520113431C60034B9C466044416010BDC7
:1012C00004C00140004001400123D02283401206A7
:1012D00093629361094A40219446830063441A68EB
:1012E000C0004A40803111408022520113431960EE
:1012F000034B9C46052360444360704704C0014093
:1013000000400140024B18688007C00F7047C0467C
:1013100000C00640EFF3108072B6034A1368002B3A
:10132000FCD0BFF35F8F70472C0100D0BFF35F8FFD
:101330000022024B1A6080F3108870472C0100D005
:1013400070B5EFF3108C72B60D4D2B68002BFCD0EE
:10135000BFF35F8F0724CB08C618C05C01230C4085
:10136000A3401C000440034207D118433070BFF370
:101370005F8F2C608CF3108870BD100001F0C2FDEF
:101380002C0100D0F8B54746CE46884680B5EFF32D
:10139000108C72B6214D2C68002CFCD0BFF35F8FEF
:1013A0009A422CD8D4080727055D06190124174056
:1013B000BC402C421FD007210127894609E0D408F0
:1013C000055D06194C4639001440A1400C00294225
:1013D00011D001329342F2D201204042BFF35F8F1D
:1013E00000220E4B1A608CF3108800280FDBC0BC63
:1013F000B946B046F8BD254310003570EEE7BFF39F
:101400005F8F00232B608CF31088012040424346FD
:10141000002BECD0089801F075FDC0462C0100D0DF
:1014200030B5EFF3108C72B60A4C2368002BFCD059
:10143000BFF35F8F072301220B409A40CD08435D25
:1014400093434355BFF35F8F002323608CF31088D1
:1014500030BDC0462C0100D00021044B044ABFF32C
:101460005F8F02C39342FAD17047C046000100D09B
:10147000800100D0044A1078431CDBB2172B00D93E
:10148000102313707047C046200E002010B5064B85
:10149000064C82B00100009318221F232000FFF7A2
:1014A00071FF02B010BDC046A08300108C17002051
:1014B00001238340002904D0034A1360034A1360C8
:1014C0007047034A1360FBE780E200E000E100E0C0
:1014D00080E100E001238340014A13607047C04669
:1014E00000E200E0084B10309B688000C358002BDE
:1014F00007D0064A00209B1A2F229A424041C0B2D0
:1015000070470020FCE7C04600ED00E0240E0020FC
:10151000024B10309B688000C058704700ED00E01F
:1015200070B50D00EFF3108672B60F4A1368002BEA
:10153000FCD0BFF35F8F0D4B10309B6884001B59AC
:101540000B4A934203D09D4201D001F0F3FC074BBC
:101550009B681D51BFF35F8FBFF35F8F0022024B6B
:101560001A6086F3108870BD240100D000ED00E001
:10157000CD010010F0B557464E46DE464546E0B573
:1015800085B0060001911700EFF3108B72B6664A22
:101590001368002BFCD0BFF35F8F0025634B5D57B2
:1015A0009A46002D00DAA2E06B00614C02935B19B1
:1015B0009B009846A146C1444B4652469B79103643
:1015C00013705C4BB2009B68009299580B1B2F2B39
:1015D00034D9594B994200D0A2E0029B42469C4626
:1015E000564B6544AD006353554B0232A218043B81
:1015F0009B1A1B05534A5B0D651913436B80524BB5
:101600000121AB80FF23AB71019BEF71AB604B46B7
:101610000B431900474B009A9B689950BFF35F8FAB
:10162000BFF35F8F0022404B1A608BF3108805B028
:10163000F0BCBB46B246A946A046F0BD01200A0058
:101640008243D379BB422FD845464E4613003F49CB
:101650001B1B5B415943090D384B6353384B023513
:101660006519043B5B1B1B05364D5B0D2B437380DB
:101670000426B446E044131F44441B1B1B055B0DAA
:101680001D434B46997101999D8099604946DF71D0
:101690002F4B01431360BDE75800C018800020188D
:1016A000C679BE4229D902000623D356002BF3DAAD
:1016B000101D8246274803900426504676424E4429
:1016C000361A3005400D844666461E48957106431D
:1016D0009680029A94466544AA00A4181C4AA371F5
:1016E0002260019B039AE771A280A36092E701F058
:1016F00021FC002553465D5756E7101D8246908811
:101700004005001584464046D444664604302018FF
:10171000301AE0260005400D360230430390CBE737
:1017200001F008FC59E7C046240100D0AE1C00209F
:10173000240E002000ED00E0CD01001000A1FFFF0D
:10174000540E002000E0FFFF01BDFFFFAAAA000029
:101750000148804701BD0000F0B5DE4657464E46C1
:101760004546E0B50C0083B0EFF3108972B6584AD5
:101770001368002BFCD0BFF35F8F564B9A680300B1
:1017800010339F00D559544A9046954232D0A54215
:1017900043D0524EAA1B2F2A2CD8012282409246B7
:1017A00051464F4A12681140019151464D4A11600D
:1017B000BFF35F8FEFF305829346002A33D10123F5
:1017C0002A009A4393689C4208D177E04B005B184B
:1017D0009B00F3189968A1422AD01A00062151569D
:1017E0000029F3DA019B002B19D052463E4B1A60B8
:1017F0003B4B1A60374B9B68DD51BFF35F8FBFF3E4
:101800005F8F0022324B1A6089F3108803B0F0BC5E
:10181000BB46B246A946A046F0BD1500EAE75246CF
:10182000304B1A60E6E79342C9D001F083FBC6E76C
:1018300006215956002921DB4A005018800034182F
:101840008046A0689860E079D8710620205698718B
:10185000002824DBA488F01A6405241544440019E8
:10186000E0240005400D2402204398801F4B5218AD
:1018700018789200B21890711970B3E75946002990
:101880000FD1FF3191711A49918018490A789A71E4
:10189000184A9B1B5B415A43120D0A70A2E7164877
:1018A000E3E7164A1649D21A083A5002400D01439E
:1018B0009980144952080A43DA8093E70621515669
:1018C00013000029B8DA5A46002AEAD14546DCE777
:1018D000240100D000ED00E0CD010010240E002016
:1018E00000E100E080E100E080E200E0AE1C0020CA
:1018F00001BDFFFFAAAA000001BD00005E0E00208E
:1019000000F0FFFF00F8FFFF70B5EFF30581012441
:101910000443EFF3108C72B6214A1368002BFCD0FD
:10192000BFF35F8F1F4B05001F4AED1A6D416A43DD
:10193000120D1E4D8900AE6852B27658A6421CD0D8
:101940000621595691421CD012215956914222D05B
:101950001E215956914220D02A21595603249142E2
:1019600010D0134B19781A708171BFF35F8F00226A
:101970000B4B1A608CF3108870BDAB680D4C5C503B
:10198000EFE700246100091989005B18FF219971B4
:1019900009499980E5E70124F4E70224F2E7C0460B
:1019A000240100D0240E0020AAAA000000ED00E0CF
:1019B000AE1C0020CD01001001BDFFFF054B064A03
:1019C0001360064A136053609360D36013615361E0
:1019D000936170478080808000E400E004E400E0D0
:1019E00010B5084B084C82B001000093002205237B
:1019F0002000FFF7C7FC002801DB1F23181A02B0E4
:101A000010BDC046BC830010B31C0020024B9C4696
:101A100061448900016070474000003410B5040043
:101A2000FFF728FD01002000FFF7F0FFFF232371DF
:101A3000BFF35F8F10BDC04610B50400FFF71AFD5D
:101A400001002000FFF7E2FFFF23A380BFF35F8FB9
:101A500010BDC04610B504000120FFF717FD044B70
:101A60009C46604480002060BFF35F8F10BDC0467D
:101A700040000034034B9C46614489000160BFF381
:101A80005F8F70474000003483680B4810B5844670
:101A9000614462441201090159189B185C684A6844
:101AA0000120944201D802D00020C0B210BD1A68B3
:101AB0000B689A42F9D8F7E7FFFFFF0F0A4B196846
:101AC000EFF3108072B60A68002AFCD0BFF35F8F74
:101AD0001B68BFF35F8F00221A6080F3108840BF3D
:101AE000002000217047C046741C0020F8B55746FE
:101AF00045464E46DE46E0B599460CAB1C780DAB2C
:101B00001B78070090469A460568002C44D1AC7BB0
:101B1000002C3BD0660029683619033E89194B78A2
:101B2000AB73002B00D1EB7300238B704B700B70E9
:101B30002E4BE218BB6812019B1842461A604A46B7
:101B40005A600A9A9A600B9ADA6000238B704B7085
:101B50000B706B7B9B46002B32D022005946A86845
:101B60006B68984700281DD05B46584629685B0083
:101B70005B448E19033BB070CA18CB5C002B00D0BD
:101B800073705B4614706B735C451AD0F0BCBB4637
:101B9000B246A946A046F8BD660029683619033E3C
:101BA0008919C5E75B465B002A685B44033BD31891
:101BB0009C709119925D002A00D05A705B460B70A0
:101BC0006C7342464B46387D00F008FC051E02D07F
:101BD0005346002B04D00E9B002BD7D01D70D5E7A9
:101BE0002100386800F024FEF5E7C046FFFFFF0F34
:101BF000F0B5DE4657464E4645460023E0B58BB06D
:101C00000893694B8200D45800239B46099000F04A
:101C10005BFB626806000F00EFF3108572B6136875
:101C2000002BFCD0BFF35F8F23689C465B7B9946FB
:101C3000002B00D168E0A2685C4B90464B441B012E
:101C4000984443461A685B6810001900801BB9412C
:101C5000002900DC62E0099800F0C0FB00230022AC
:101C6000984600230692079300239A466368BFF3C1
:101C70005F8F5A461A6085F310885346002B08D1AF
:101C80000028C4D10BB0F0BCBB46B246A946A04662
:101C9000F0BD089B414618024B461843D047626886
:101CA00006000F00EFF3108572B61368002BFCD00E
:101CB000BFF35F8F002F4FDB33003B4302D023691C
:101CC000002B65D12368D97B002906D01A6848000B
:101CD000411852184946033A51709A7B002A01D1A3
:101CE0004A469A734A46DA734B46E168013BCA5C3E
:101CF0000132CA545B4623616368BFF35F8F5A4663
:101D00001A6085F3108882E700230022984600239A
:101D100006920793002300209A46A7E7002902D1E4
:101D2000002800D097E70021604600F0FFFC434602
:101D30001A685B680692079343469B689A46434637
:101D4000DB689846E3684B44013B1B7808931B0211
:101D500003432361002089E72369002BB2D0069A50
:101D6000079B8021921BBB4109068B4202D30122B3
:101D70000F4B524259460491012103914946029169
:101D800041460191514620000091FFF7AFFEB1E7B7
:101D900000F09AFA32003B0012184B4180210906EC
:101DA0008B42E7D3E3E7C046581C0020FFFFFF0F3C
:101DB000FFFFFF7F10B5144C6368002B04D00A218D
:101DC0001248FFF723FE10BD2300114A102120689E
:101DD00000F0C0FB032000F06BFA032000F068FB6A
:101DE00003200C4900F0B4FAFFF744FB0A4B9C4671
:101DF00003232375D0231B061B6860446375074BC0
:101E000080006060DC60DAE76C0E0020741C00204B
:101E1000891A0010F11B001040000034581C0020EB
:101E2000004870476C0E0020F0B557464E46DE461F
:101E30004546E0B585B0019310AB1B7807000393CE
:101E400000239A46994600927A68EFF3108B72B697
:101E50001368002BFCD0BFF35F8F3D68AC7B002C78
:101E600000D17CE066002B683619033E9B195A7836
:101E7000AA73002A00D1EA734A4AA118BA68090174
:101E8000521800980199106051600E9991600F9955
:101E9000D1604A469A705A701A706B7B9846002B34
:101EA00000D16CE022004146A8686B689847002882
:101EB00057D04346404629685B0043448E19033B94
:101EC000B070CA18CB5C002B00D0737043461470FE
:101ED0006B73444554D0FB681B19013B18787B6831
:101EE000BFF35F8F4A461A608BF31088002C56D0E0
:101EF0005346002B08D10002204305B0F0BCBB467E
:101F0000B246A946A046F0BD039B002B45D00E9BD0
:101F100000200F999847030004000D000B433CD0AC
:101F2000002911DA009A019B121BAB410092019328
:101F300080221206934204D301231B4C5B42009380
:101F40000194039B9A467FE700F0BEF98022241893
:101F50004D411206009401959542F2D3ECE7002022
:101F6000BDE743465B002A684344033BD3189C709B
:101F70009119925D002A00D05A7043460B706C7321
:101F8000387D009A019B00F029FA82460028A2D0F1
:101F90002100386800F04CFC9DE70020ADE70120EF
:101FA0004042AAE7FFFFFF0FFFFFFF7FF8B50400E5
:101FB000002931D04268EFF3108572B61368002B08
:101FC000FCD0BFF35F8F2068CEB2437BB34215D005
:101FD000FF220A4003685700BA189B18033B9B78FE
:101FE000002B0BD12269914218D000206368BFF307
:101FF0005F8F00221A6085F31088F8BDFF230A0A5C
:102000001940E368D2B25B18013B19789142ECD1D8
:10201000310000F00DFCE9E70020EEE72361E4E782
:10202000407D7047F0B504000D0006267642F71794
:10203000C64636196F4100B584B08F4214D811D00E
:1020400000F042F932003B00121A8B41002B15DCE4
:10205000002B3ED02000290000F06AF904B080BCBB
:10206000B846F0BD8642EBD90026002700F02CF9D7
:1020700032003B00121A8B41002BE9DD0023029352
:102080000193154B3200009314483B00FFF7CCFE40
:102090000028DFDB00239846BC46114A114F7B6ABB
:1020A0009C4504D8B96A8E42D4D99C45D2D11168D6
:1020B000EFF3108072B60B68002BFCD0BFF35F8F7C
:1020C0001368BFF35F8F4146196080F3108820BF0B
:1020D000E5E7002ABED0D1E7BD1A00106C0E002043
:1020E000741C00200040054070B5060000F0ECF8BC
:1020F000FA2204000D00002330000021920003F0BA
:10210000ADF88023001969411B06994202D30120D2
:1021100002494042FFF786FF70BDC046FFFFFF7FC8
:10212000F0B5EFF30583CE46474680B505000C00B9
:1021300085B0002B12D02C4A0020536A9C4203D851
:10214000926A0130AA4204D305B0C0BCB946B04679
:10215000F0BDE31A5A1E9341D8B2F5E7234E02931D
:102160000193234B0200009330000B00FFF75CFE4D
:10217000031EE0DD20BF7168EFF3108772B60A68B6
:10218000002AFCD0BFF35F8FDAB294463068427BFE
:1021900062451CD0FF2201681A40894651008846DA
:1021A00049469044414403398978002912D0F168A6
:1021B0001B0A8A18013A1278DBB29A420FD0736870
:1021C000BFF35F8F00221A6087F31088B3E7FF2206
:1021D0001A40ECE732699342F1D13161EFE7614691
:1021E00000F026FBEBE7C046004005406C0E0020E7
:1021F000BD1A0010F0B5EFF30582D6464F464646AD
:102200001000C0B51038EFF3108872B6214C236867
:10221000002BFCD0BFF35F8F0123190081401E4DBE
:102220001F006963AA461D4D29601D4D2E78AC46DE
:102230003500C5402F402B4209D1BFF35F8F276087
:1022400088F31088E0BCBA46B146A846F0BD5346B4
:102250005F6A144B8500EB589F420ED36246124BC7
:102260008E43EB581670BFF35F8F0022226088F315
:102270001088002BE6D09847E4E70C4B92009C4670
:10228000624413681360BFF35F8F0023236088F3F9
:102290001088D7E7280100D0004005403C70054079
:1022A000B21C0020801C002074160020D03F054086
:1022B00010B5034B01001800024AFFF741F810BDAA
:1022C000AB1C0020D8830010034B596A0A00986A9F
:1022D000596A8A42FAD170470040054070B504003F
:1022E0000D00124A536A1900966A536A8B42FAD15A
:1022F0003000190024184D41AB4211D80ED02B00EC
:102300000A494A6A9A42FCD307D1084A02E0516A54
:10231000994202D1916AA142F9D370BDA642EED989
:10232000012301246442E5175B42E9E700400540D0
:10233000064A536A9942FCD807D1044B02E05A6A14
:10234000914202D19A6A8242F9D370470040054017
:1023500070B504000D00EFF3108672B61A4A1368C8
:10236000002BFCD0BFF35F8F002D1BD02000FFF7A8
:10237000CFF8164981420AD02000FFF7D1F8012199
:102380002000FFF795F80123A340114A1360114B79
:10239000A400E550BFF35F8F00220B4B1A6086F359
:1023A000108870BD0121A1400A4BA200D5500A4BF4
:1023B00020001A788A4305491A70FFF7CDF90021E9
:1023C0002000FFF775F8E5E7280100D0F52100109F
:1023D0003860054074160020B21C0020F0B54F464E
:1023E000D6464646C0B507002C4C616A0D00A66A69
:1023F000616AA942FAD18B4208D805D00120E0BC1D
:10240000BA46B146A846F0BDB242F7D9EFF3108AFA
:1024100072B6234801680029FCD0BFF35F8F012505
:10242000BD4020491D4C8846097889462943C9B2D8
:102430008C46414660460870391D890065630A5123
:102440001949B8004350216A0020294219D0616A15
:102450000800A66A616A8142FAD18B4219D801D17B
:10246000B24216D8CC4516D00C4B1F221D625D63BC
:1024700001233A4093400D4A0120136043464A46E7
:102480001A70BFF35F8F0022054B1A608AF3108821
:10249000B5E70020F5E70120F3E7C046004005401E
:1024A000280100D0B21C0020801C002080E200E047
:1024B000EFF3108C72B60A490B68002BFCD0BFF307
:1024C0005F8F01238340074A0748136202789A43CB
:1024D0000270BFF35F8F00230B608CF3108870478E
:1024E000280100D000400540B21C002070B5050056
:1024F00014001600002915D00C00002A12D08068A4
:102500006B689847296800280ED073009B196200F9
:10251000033B1219CB18033A9C7088188A5C002A76
:1025200015D10670200070BD63001B197200033BBB
:102530009219CB18033A9E7088188A5C002A02D13F
:1025400004703400EEE75A7004703400EAE75A7001
:102550000670E7E730B583600023CCB243730133E4
:10256000047342608373C4730D000068012C06D9A4
:10257000421C0133DBB2137003329C42F9D1FF21BC
:1025800029404B005B18C01800230338437030BD4E
:10259000F8B505000C1E07D0630001681B19033B4A
:1025A000CB185A78002A01D12000F8BD50008018BD
:1025B0000338091800204F7848702100587028000F
:1025C000FFF794FF390006002800FFF7E1FF040041
:1025D000002EE9D0002826D031002200A8686B68C0
:1025E0009847296800280FD063001B197200033B2D
:1025F0009219CB18033A9E7088188A5C002A00D082
:102600005A7004703400CFE773009B196200033BDB
:102610001219CB18033A9C7088188A5C002A00D0E3
:102620005A700670C0E73400BEE7C046F0B55746A2
:102630004546DE464E46E0B50D006B0001685B196D
:10264000DF1E0400C85D83B00192CA19002850D073
:1026500043001B18033BCB185E78B446002E1AD1FA
:10266000019E002E42D0E67B002E04D073009B1901
:10267000CB18033B5D70A37B002B00D1A573E573E2
:1026800000282FD10023537003B0F0BCBB46B246E4
:10269000A946A046F0BD72006244033A8A185178F8
:1026A000884600215170894659703200010020008F
:1026B000FFF71CFF43468246002B07D05B002168D2
:1026C0004344033BCB185A78002A16D14246514660
:1026D0002000FFF70BFF2168019BCA19002BC2D114
:1026E0000028CFD043001B18033BCB180021997062
:1026F000C8E7019B002BB6D1C4E75000801803380F
:10270000091848788346484648705870414620006A
:10271000FFF7ECFE594680462000FFF739FF41469F
:1027200002002000FFF7E2FE8046CFE7F0B55746F3
:102730004546DE464E46E0B583B00191457B040038
:102740006B0000685B19DF1EC15DC219002952D001
:102750004B005B18033BC3185E78B446002E1CD1B7
:10276000019E002E44D0E67B002E04D073009B19FE
:10277000C318033B5D70A37B002B00D1A573E573E9
:10278000002931D1002328005370617303B0F0BCDD
:10279000BB46B246A946A046F0BD72006244033A69
:1027A0008218507880460020507081465870320060
:1027B0002000FFF79BFE43468246002B07D05B00BC
:1027C00021684344033BCB185A78002A17D142466C
:1027D00051462000FFF78AFE019B01002068C219C4
:1027E000002BC0D10029CDD04B005B18033BC31890
:1027F00000209870C6E7019B002BB4D1C2E75000BF
:10280000801803380918487883464846487058703D
:1028100041462000FFF76AFE594680462000FFF738
:10282000B7FE414602002000FFF760FE8046CEE77B
:1028300070B5040000292CD0437B8B422ED0056854
:1028400048004018033828188278002A21D0530005
:102850009B18033BEA5CEE188A4202D11BE0002A77
:1028600008D053009B18033BEB185A788A42F6D1E4
:1028700042785A7000230122837043702000FFF7D2
:10288000D5FE617B02002000FFF730FE607301205F
:1028900000E0002070BD43783370EBE7012219009F
:1028A000FFF7C4FE60730120F4E7C046F0B545466B
:1028B000DE4657464E46E0B583B001920C9A0500BD
:1028C00088469A4200D976E01A0E93461E023000DE
:1028D000002359460C9A01F0A7FE384B6C009C4629
:1028E0006419A400644463680700834200D26060F6
:1028F0002B1FDBB29946012B37D9C02380229B01C5
:10290000234312011A602E4BAD0059599A460029F3
:1029100007D0586901F04AFE431C5800C01803381C
:10292000FDD2019B22685B015340E0221A408023C4
:102930005B0123431A604A46012A2FD98023802253
:102940009B01234312011A60300000233A005946CC
:10295000676001F069FE53465851012003B0F0BC96
:10296000BB46B246A946A046F0BD4346012BC4D1A2
:10297000C02303229B0123431A60023AA3681A4230
:10298000FCD0019B22685B015340E0221A40802367
:102990005B0123431A600A4AAD0092464246216811
:1029A000514003220A401A60012243469A40A3681C
:1029B0001A42FCD0C2E70020D0E7C04600800040A9
:1029C0009017002010B50C2082B000F0B3F9FEF78C
:1029D00099FC00280ED08A4B8A4A1A605A609A6085
:1029E000DA601A615A619A61DA611A62864A5A6239
:1029F00002B010BD854CA06700F0F2F90122844BB3
:102A00001A60636C012BFCD10322824B1A607F4A4F
:102A1000936B012BFCD1013301217F4A7F48009346
:102A2000043300F037F905237D4A009301217D48E6
:102A300000F030F97C4B5A68FF2A02D880225200FD
:102A40005A608022734B6E4C12011A602169002972
:102A500007D0606901F0AAFD013043001B18033B59
:102A6000FDD2E022704B714819680A4002600222D0
:102A70001968514001320A40042102609A681142EB
:102A8000FCD080216A4A09011160802252005A60FC
:102A9000684B2361684B5968FF2900D85A600322AC
:102AA00001215B4B1A60644A93681942FCD0E02311
:102AB0001068034061480360126803234A40022102
:102AC00013405D4A036093681942FCD080215C4B3F
:102AD0000901196080215B4B4900516063615A4BC9
:102AE0005A68FF2A00D859608022584B12011A6098
:102AF000E169002907D0606901F058FD0130430009
:102B00001B18033BFDD2E0234F4A11680B4050498C
:102B10000B6080214F4B090119608021394B49001E
:102B20005160E3614C4B5A68FF2A00D859608022FB
:102B30004A4B12011A60216A002907D0606901F02E
:102B400035FD013043001B18033BFDD2E023424A10
:102B500011680B4042490B608021424B090119600A
:102B600080235B0053608022264BD20223623E4BBF
:102B70005968914200D25A6080223C4B12011A607F
:102B8000616A002907D0606901F010FD013043003F
:102B90001B18033BFDD2E023334A11680B40344934
:102BA0000B608021334B090119608023DB025360E5
:102BB000154B6362304B5A68FF2A02D880225200BC
:102BC0005A6080222D4B12011A60A169002907D09A
:102BD000606901F0EBFC013043001B18033BFDD2A0
:102BE000E023254A11680B4025490B608021254BC5
:102BF0000901196080235B005360124BA361F7E663
:102C000090170020006CDC021BB700000080004021
:102C10003CB0004030B00040002F685900800240B6
:102C2000008C864700C00240308000403090004059
:102C300030A00040001BB7003C8000403C900040AA
:102C40003CA00040405973075480004054B00040FD
:102C50005490004054A000406080004060B00040AC
:102C60006090004060A000406C8000406CB000406C
:102C70006C9000406CA000404880004048B000408C
:102C80004890004048A00040014B8000C058704769
:102C900090170020F8B5040021481D0017000E0011
:102CA00001F084FC0100380001F080FC069B29043F
:102CB0001B0319432368002B20DB1A4B1A4DE21823
:102CC00053425A4180235B019C461203174B6244D6
:102CD0001A60174B1A601700AB689F43FBD1C022E4
:102CE000231D92011A4321232660A06013602368EC
:102CF000002BFCDA0823E1601360F8BD3F23226853
:102D00001340B342D9D1A3681B051B0D8342D4D114
:102D1000EE22E368D20213408B42CED1EDE7C046EB
:102D2000001BB7000040FDBF00C0004000E00040B5
:102D300000F000408023024A9B000343D3627047A7
:102D40000080054010B5140080221C4BD2051A608B
:102D500000281AD001231A4A18431A4BDA611A4A7A
:102D600042401A62596298628022144BD2051A605E
:102D70001649174A1160E022D2041A60002C07D1CC
:102D80008022144B12061A6010BD0E4BD861EBE77F
:102D900063011B1B9A008023121912015B049A42E3
:102DA00008D20D4B1A60074B5A608022094BD2059E
:102DB0001A60E9E7084B094A1A60F4E700B00540D9
:102DC000D3C007B0008005402D3FF84FFCFF010045
:102DD0000820014000A00540301C0020FFFFFF003C
:102DE000AA23064A1B0113602F230549D360054B14
:102DF00019605368002BFCDA7047C046004002405F
:102E000000B0FA00006002402C4B2D4A70B51A60E9
:102E10002C4A2D4B2D491A6014008B689C43FBD122
:102E20002B4D2C4EB54208D2013E761BB60808CD7C
:102E3000984723000134B342F9D1FFF7C3FD264A76
:102E4000214B1A60214A9368DB43DB01DD09002B2B
:102E5000F9D14022214B224C224E9A675A671A67B9
:102E6000DA66B44208D223682000002B20D0083450
:102E7000FEF7E2FDB442F6D31B4C1C4EC022B168F3
:102E8000200002F001FBB460FEF7E6FAFEF796FDC3
:102E9000FEF790FF164C174EB44208D2013E361B87
:102EA000B60808CC98472B0001359E42F9D170BD79
:102EB0000834FEF7B3FDB442D5D3DDE700E00040AF
:102EC000BFCDFBFEFE7F3C0000F0004000C0004094
:102ED000080F0020180F0020FFFFFF0100F0014045
:102EE000000F0020080F00200000002000ED00E08F
:102EF000180F0020200F002000BEFDE710B5FFF7DF
:102F0000FBFFC0460FB400B5084883B002F022FCB6
:102F1000049B002B07D005A91800019101F0CCFA01
:102F2000034802F017FC0120FFF7E6FFFC830010C6
:102F30001082001010B50148FFF7E4FF0C84001068
:102F40007047C046F8B557464546DE464E46E0B5A2
:102F500098460A9B06009A460D9B0F009346150063
:102F60009B0710D10B9B0C9A93420CD213005C462A
:102F70000B9A9D1A5D4422004346013439002020FB
:102F8000B047A542F7D10B9C6319002C09D01D0056
:102F900053462A1B013C185D39004346B047002CBC
:102FA000F6D10D9B9B070ED55B46EC1A0C9BA342FA
:102FB00009D999462A004346390020200134B047F8
:102FC0000135A145F6D82800F0BCBB46B246A9465B
:102FD000A046F8BDF0B54F464646D646C0B584B0CB
:102FE00098460EAB1B78129F994694460D9C109BF9
:102FF000119EBA0725D4002E61D19C4200D3C0E0B7
:1030000001223A4092461F2C00D9B9E00C9A551E75
:10301000302201E0202C03D001342A55A342F9D8F4
:103020005246002A0DD0A6420BD90C9A551E3022CA
:10303000202C02D155E0202C53D001342A55B44223
:10304000F9D1FA062DD57A0554D4002C4ED10F9B18
:10305000102B00D188E00F9B022B19D030230C9A43
:10306000012413704B46002B20D02D230C9A1355AE
:1030700001340C9B624600930397434602960194E9
:10308000FFF760FF04B0E0BCBA46B146A846F0BD09
:1030900001240C9A6033137030220C9B1B191A7098
:1030A0000134202CE5D04B46002BDED17B0730D4F9
:1030B0003B07DED520230C9A13550134D9E70122B2
:1030C00015003D40AA463A421CD04A46002A2BD160
:1030D0000C323A4228D19C42A5D21F2C96D9202EE0
:1030E00015D92024FA06C4D57A0503D4A3421DD0ED
:1030F000B4421BD00F9B102B23D0022B0ED0202CC0
:10310000B7D0C9E79C429CD21F2C00D87EE7202470
:1031100097E72B230C9A13550134AAE7202CA8D04B
:103120000C9B1B19013438E0013ED4E7631E012CCF
:1031300000D18CE70F9A102A25D0022A2AD01C0031
:10314000AAE7BB0607D4202C93D00C9B1A19013494
:1031500078231370D3E7202C00D18AE758220C9BE8
:103160001B191A700134CAE7BB0604D478230C9AE1
:103170000124137090E758230C9A012413708BE7F5
:10318000202400265DE7023CBA06E7D40C9A121907
:103190001C00DDE70C9A9246534462221A70AEE797
:1031A00010B5002800D110BD02F088FAFBE7C04638
:1031B0000B0010B5002802D049681B68984710BD65
:1031C000F0B5DE4657464E464546E0B59BB09B46B9
:1031D000249B89469846259B0B900C92404642467C
:1031E00019009A4601F0ABFC002800D0D8E001227B
:1031F00040465146774B524201F09CFC002800D0DB
:10320000CEE0012240465146734B524201F07CFC15
:10321000002800D0C4E0002200234046514601F0BF
:1032200073FC002800D0B9E1424653460A92099344
:103230008023289ADB001A400E92289A1A4201D164
:10324000062326930A9A099B1600134300D0C7E071
:10325000289B002500261B0500D49BE100230D932D
:10326000269A0D9B9A4200DC9FE1D31A013B2693DC
:103270008023289ADB001A430023002728920D930D
:10328000279B0024BB4200D9DC1B0223289A1A404A
:103290000E92289A134203D07B427B415B421C4032
:1032A0000D9B002B07D00A9809992A00330001F0E2
:1032B000CAFB0A900991002200234046514601F0C2
:1032C00023FC002805D0802000068446099961442B
:1032D0000991289A414B0B9D13400493269B0A9A0F
:1032E0000293099B03940092019349465B46280090
:1032F0000C9A00F08BF90400002F62D0289B22006A
:1033000098061F23C0179843631C984649465B469E
:103310006530A8470D9A0025D317D4185C40D30F09
:103320009A46013F01E0202D13D00AAA94461F239C
:10333000200063440A2101355E1901F037F930316C
:10334000317020000A2101F031F926000400092E15
:10335000E9D805230693002304930A3303935346C5
:1033600005970B9F029312AB009342465B4649467A
:1033700038000195FFF72EFE0E9B0400002B20D095
:103380000C9BC51A279BAB421BD91E0022005B4633
:10339000494620200135B8470134AE42F6D810E046
:1033A000289B42460493279B49460393269B0B98F0
:1033B00002935346009201935B460C9A00F026F963
:1033C000040020001BB0F0BCBB46B246A946A04694
:1033D000F0BDC046FFFFEF7FFFFFEFFFFFF7FFFFEE
:1033E000734B099F9C467800400D604401F0BAFB86
:1033F000704A714B01F045FB704A714B01F01AFBAA
:103400003B03704A1B0B1A4304000D0030001100EF
:103410006D4B002201F005FB6C4A6D4B01F031FB56
:1034200002000B002000290001F004FB01F0B2FBB8
:103430000D9001F097FB674A674B04000D0001F007
:1034400020FB0022654B01F0F5FA01F0A3FB644A72
:103450000600644B2000290001F013FB040030003B
:103460000D000F9601F07EFB5F4A604B01F009FBF7
:1034700002000B002000290001F0D3FA02000B002B
:1034800006000F0001F0FDFA320004000D003B00C1
:103490003000390001F0CEFA002210901191544B07
:1034A0002000290001F0CFFA0022524B01F0C2FAAD
:1034B00002000B002000290001F0C5FA00224E4B4B
:1034C00001F0B8FA02000B002000290001F0BBFA5D
:1034D0000D008021040032003B000020C90501F0EE
:1034E000A0FA02000B002000290001F0A3FA02005C
:1034F0000B001098119901F0A6FA0022314B01F04F
:1035000099FA3E4B0F9C9C4664440022230501F02F
:10351000B8FA05000E0002000B000A98099901F0A4
:10352000F3FA00280AD00D9B2800013B31000D93CF
:103530000022304B01F087FA05000E00C6270D99D6
:103540002B0063318F42BF4128997F420437090520
:1035500000D495E6334300D182E6099C284A210035
:10356000284B0A9801F0DEFA002808D0002221003A
:10357000254B0A9801F0C8FA002800D070E6269B77
:10358000002B00D17CE60E9B5A1E9341269AD31A3B
:10359000269375E6002304270D9371E643460A93AC
:1035A00080231B065344099342E6002326935FE6DB
:1035B00001FCFFFFFB799F501344D33FB3C8608BDE
:1035C000288AC63F0000F03F0000F83F61436F6368
:1035D000A787D23F71A379094F930A400000E03FCB
:1035E0001655B5BBB16B0240EF39FAFE422EE63FED
:1035F00000002C400000244000001840FF030000A1
:103600002D431CEBE2361A3F80842E41F0B54E4626
:10361000DE4657464546E0B597B09946209E219F25
:10362000229B8346984607910C923B003200300063
:10363000390001F084FA002800D0ADE10122300009
:103640003900CC4B524201F05FFA002800D003E170
:10365000012230003900C84B524201F06BFA0028B9
:1036600000D0D9E0002230003900C44B01F062FAEA
:10367000002800D0BBE0002230003900C04B01F030
:1036800043FA002800D0B2E00022002330003900C5
:1036900001F03AFA002800D0D3E000230D93249BD8
:1036A0005B0501D40623984608AB9C4617220024EC
:1036B00030234146624404E0013413550139202C83
:1036C00001D00929F8D888463000390001F062FAA3
:1036D0004246AC4BD2009B181A685B680500089202
:1036E000099301F03FFA02000B003000390001F0AD
:1036F00098F9089A099B01F0C4F90A900B9101F01E
:103700006DFA824601F02AFA02000B000A980B9922
:1037100001F087F900229C4B0A900B9101F00AFA04
:10372000002800D1E2E001239C46E244504601F02B
:1037300015FA02000B000898099901F0EBF900282E
:1037400002D000239A4601354346002B00D18BE07E
:1037500008AB17269C4608956644554614E001239D
:103760005B4243440A2128009A4600F01FFF0134BF
:1037700030313719397028000A2100F017FF092D60
:1037800000D8D0E0D0460500202CE8D10EAB9846FA
:103790000323249A1340012B00D0E8E0239A20232E
:1037A000002A1DD00D9A002A00D0FDE024990C3289
:1037B0000A4215D0239A013A2392239A9A4200D8BA
:1037C00005E108AA9446172130226144202B07D036
:1037D00023980133CA54834200D1E9E0202BF7D16A
:1037E000249A01930392239A434602921EE0249B5B
:1037F00058460493239B00960197039343460C9AE3
:10380000029307994B46FFF7DBFC17B0F0BCBB46B1
:10381000B246A946A046F0BD249B5B070ED4032206
:103820005A4B24990192039123990291009358468F
:103830004B460C9A0799FFF785FBE6E70422544BA9
:10384000EFE73B0032000020002101F0EAF80123FD
:1038500006000F000D9322E7249B0393239B029302
:10386000042301934B4BE1E7280001F07BF90200B0
:103870000B003000390001F0D4F8434B0022060061
:103880000F0001F041F90EAB984600280AD1002242
:10389000300039003C4B01F04DF9002802D1EB0714
:1038A00000D50135202C00D172E708AA94461723D1
:1038B000280063440A2101341E1900F04FFE303104
:1038C000280031700A2100F049FE051EEAD10323C9
:1038D000249A1340012B6DD0202C48D00D9B002B37
:1038E00014D02D224146631C0A5579E700220A981C
:1038F0000B99254B01F008F9002800D024E7534626
:10390000002B30D101239C46E2441DE7249B5B073A
:1039100024D4249A2300120700D461E720224146D0
:1039200001330A555CE75746089D202C00D12DE74E
:10393000220030214046002F09D00132B154202A04
:1039400000D123E7831A013BE318002BF5D10EAB1E
:1039500098462E234146541C8B54A3E72B22414604
:10396000631C0A553CE7DB0700D4EDE6CAE72023D9
:1039700036E7C046FFFFEFFFFFFFEF7F65CDCD418C
:1039800065CDCDC1D08500100000E03F208400103F
:103990001884001028840010249B0393239B029317
:1039A000032301930C4B41E7239A013A239217E733
:1039B000040091E7239B002B8ED00D9B002B08D198
:1039C0000C2224992300114200D1F6E6F2E61C00F5
:1039D00082E72300EEE6C04624840010F0B5DE4600
:1039E00057464E464546E0B5A1B01C002A9B92467C
:1039F0000993B94AB94B81468B461A60002900D118
:103A00002BE120780027002800D12DE1B44B5E4641
:103A10000893B44B0C9309E03A00534631007D1CE7
:103A2000C8472F0001342078002871D02528F3D111
:103A300010239B460C3B9846023B00229C460134D7
:103A4000207825000300203BDBB2102B03D8089917
:103A50009B00CB589F460300303B092B6BD90023BA
:103A600098462A2800D18AE000230A932E2800D104
:103A700076E00300683BDBB2122B1CD89A499B000E
:103A8000CB589F46012301341A43D9E763460134DA
:103A90001A43D5E7434601341A43D1E75B46013464
:103AA0001A43CDE7082301341A43C9E780235B009A
:103AB00068781A43013567280AD824281DD90300DD
:103AC000253BDBB2422B18D80C999B00CB589F4664
:103AD0000300693BDBB20F2B0FD80121834C9940C7
:103AE000A4460C400B946446214200D002E20A2B0B
:103AF00000D1E1E0072B00D1B8E07B1C98463A00EA
:103B0000534631006C1CC8472078474600288DD1A9
:103B1000B3463C00BA4501D853465F1E53463A00AF
:103B200059460020C847200021B0F0BCBB46B24631
:103B3000A946A046F0BD002301009800C018013539
:103B4000400040182978030008003038303B09282D
:103B5000F3D99846002308000A932E2800D088E75E
:103B600080236878DB001A430300303B691C092B73
:103B700000D807E12A2800D116E10D0079E7099B5A
:103B800002CB8846002903DB60780993651C6BE74C
:103B900002210A4341464942884660780993651CE0
:103BA00062E768786C2800D123E280235B001A4327
:103BB000013580E780239B0068781A4301357AE756
:103BC0006878682800D11AE2802301351A4372E729
:103BD000462800D18BE10721099B04924246073316
:103BE0008B43190003920A9A484602920CC900922C
:103BF000019309913A0053463100FFF707FD6C1C11
:103C0000070010E77B1C98463A00534631002520F8
:103C1000C84747466C1C06E7920700D431E2099B6F
:103C20003A0001CB31009B46C0B25346C8474346D9
:103C30007C1C4744012B00D8FBE2A8464D462200DD
:103C40005346013431002020A847BC42F7D1A94691
:103C50005B46454609936C1CE5E6254B2078994662
:103C60000027002800D0D1E6002453E7099B190063
:103C700008C98846002B00D1A6E021210A439346BB
:103C800010A98C461F220F21624409958C4615000D
:103C90000B9C02E0202C0CD0130060461840010061
:103CA0003731092800D80739013429551A090F2B53
:103CB000F0D8099D0B9490E0099B02CB12930A9BCC
:103CC0008B46002B7AD108780221494200281AD06D
:103CD00001315C4659440FE0DD3900102C1C0020F6
:103CE00030840010C08400107484001041900000E3
:103CF000412F00108C4203D063780134002BF9D19E
:103D00005B46E31A0B9380231100DB0019400991F5
:103D10001A4204D00A9B0B99994200D90B930223B3
:103D2000190011400D91134200D18BE1002800D100
:103D300073E1099B002B00D142E10A9B3A009C46AB
:103D40005B46BC44DB1B64469B464B460994A94634
:103D50001D0009E053463100571CA8475B46D85D5B
:103D6000002800D155E13A009442F3D12B004D4692
:103D70009946099F0D9B002B00D04EE1129B6C1CB5
:103D8000099350E6002304009800C0180131400058
:103D900000190C78030020003038303B0928F3D993
:103DA00020000D000A9364E6099B023501CBC14354
:103DB000C91708400A90099328785AE6087800281D
:103DC000A1D00A9B591E83E71021100088431131AE
:103DD00008438346520500D452E75B460693082306
:103DE00005930A9B3A000493102303930023029344
:103DF0000B9B3100019318AB009348465346FFF7E5
:103E0000E9F8434607006C1C09930CE620230100E7
:103E10009943472904D180231B011A430223984365
:103E2000452801D120231A430721099B04924246C9
:103E300007338B43190003920A9A484602920CC931
:103E40000092019309913A0053463100FFF7B8F907
:103E50006C1C0700E7E5622800D1F6E16F2800D16D
:103E600032E1582800D1CFE010239A43063B0D934E
:103E7000692800D024E10B92530546D501230B9A03
:103E80009A430B92692840D064283ED00B9A802335
:103E900011009B0019408B461A4200D0DCE18023C0
:103EA00014005B001C401A4200D07BE213005B064A
:103EB00000D48BE1FF22099B02CB11408B46099372
:103EC0005B46002B00D08CE10B9A10331100994314
:103ED0000B91520500D484E100240B9B06934346CA
:103EE00005930A9B04930D9B0393002361E1202318
:103EF0001A4370E610230D937828ACD10C231100DF
:103F000099430B915205B9D4BCE70B9A8023110059
:103F10009B0019408B461A4200D0D8E08023140041
:103F20005B001C401A4200D0E2E113005B0600D5A2
:103F300027E1130009991B0600D495E208C91BB2BA
:103F4000D8171A18424092B209919346DA0F139289
:103F5000002B09D1802310220B99DB000B409143E9
:103F60000B91002B00D01BE10B9A6123920600D528
:103F70004123DBB210A90A3B1F228C461293434611
:103F80006244A84614970D9D5F461593B3461600EC
:103F90000AE03033DBB201343355AF4200D24EE198
:103FA000202C00D14BE107002900380000F0FEFA78
:103FB000CBB20929EDD9129A94466344DBB2EAE701
:103FC0005B46DB1B9B460B9B4C4699465346AA46D9
:103FD0001D003A002B003100A0475B460137D85D39
:103FE0000028F6D14B460B932B00A14655469A4626
:103FF000C0E6C0239B00A8781A4302355BE5C023C6
:10400000A8781A43023556E520231A43103B0D9336
:1040100074E72B004D469946ACE60B9BBB46984592
:1040200000D8ABE647445C46A8464D46FF1A22003E
:104030005346013431002020A847BC42F7D1A9469D
:1040400045469BE60B9A531C904500D822E2434616
:10405000DB199C1A4B46A9461D003A00534601370E
:1040600031002020A847A742F7D12B004D469946A2
:10407000434601330B935B461878002800D058E67E
:104080007CE64346012B00D802E27C1E4444A8464D
:104090004D463A005346013731002020A847A74239
:1040A000F7D1A9464546099B220001CB310098462D
:1040B000C0B25346C8474346671C09936C1CB2E420
:1040C000642800D1D7E619E708230D9316E70722E5
:1040D000099B07339343013294469C4462460992FC
:1040E0000CCB9C46DB171093119310981199030089
:1040F00053400E9364460B0063400F930E9B0F9C3E
:104100001B1A8C410E930F946346DB0F139300230D
:104110009B4663461A433BD00B9A6123920600D517
:104120004123DBB20A3B1293434610A91F228C465F
:10413000002415934B466244B14614971695270008
:104140000E9C0F9D90460D9E17930CE03032D2B21C
:1041500043460137DA55AB4500D177E1202F00D136
:1041600077E104000D00320000232000290000F058
:104170005BFAD2B2092AE9D9129B9C466244D2B2B8
:10418000E6E7FF22099908C913401A000991DCE605
:104190000B9A10231100994300240B915205BBD5B3
:1041A0000B9B0693434605930A9B04930D9B039335
:1041B000139B029318AB3A000194009331005346CD
:1041C0004846FEF707FF6C1C07002CE413001B0693
:1041D00000D458E1099B04CB1204120C93460993B6
:1041E0006EE60B9A6123920600D5412310A91F2287
:1041F0008C46DBB262440A3B139714965F46160066
:10420000AB4612930D9D08E03033DBB201343355D9
:10421000AF421DD3202C1BD007002900380000F02E
:10422000C5F9CBB20929EFD9129A94466344DBB29F
:10423000ECE75B46270009936C1CFFF7F4FB159B2A
:1042400045465E469846149FAAE702230D9355E61D
:104250005D46139F149E40E60722099B0733934354
:10426000013294469C44624609921A685B681000C9
:104270009B4613005A46134307D10B9A1033110083
:1042800099430B91520500D526E60B9A61239206BD
:1042900000D54123DBB210A90A3B1F228C461293A2
:1042A000434662441397159500245D460700B346C4
:1042B00090460D9E14930DE03032D2B24346013445
:1042C0001A550023AB4200D1D4E0202C00D1D4E019
:1042D00007000D00320000233800290000F0A4F987
:1042E000D2B2092AE8D9129B9C466244D2B2E5E7D1
:1042F000099B1A0008CA1592DA179C185440DA0F65
:104300001492002B08D1802310220B99DB000B4064
:1043100091430B91002B2BD10B9A6123920600D570
:10432000412310A91F228C46DBB262440A3B12973C
:1043300013965F461600AB4609930D9D08E0303397
:10434000DBB20137F355AC420ED3202F0CD0040062
:104350002900200000F02AF9CBB20929EFD9099AE7
:1043600094466344DBB2ECE75D46139EBB46129F66
:104370000B9B3A000693434605930A9B3100049336
:104380000D9B48460393149B6C1C02935B46019360
:1043900018AB00935346FEF71DFE159B07000993CB
:1043A000FFF741FB099B10CB1493002C08D180230D
:1043B000DB0011001340102291430B91002B2BD1F5
:1043C0000B9A6123920600D5412310A91F228C4627
:1043D000DBB262440A3B129713965F461600AB4667
:1043E00009930D9D08E03033DBB20137F355AC4241
:1043F0000ED3202F0CD004002900200000F0D6F8A6
:10440000CBB20929EFD9099A94466344DBB2ECE7B1
:104410005D46139EBB46129F0B9B3A000693434694
:1044200005930A9B310004930D9B48460393002398
:1044300002935B46019318AB00935346FEF7CAFD07
:10444000149B070009936C1CFFF7EDFAA64200D8F5
:1044500084E6159B0E940F959846179B3C004E469C
:10446000169D9946149F9BE608C9D8171A18424012
:1044700009916AE5BE4200D827E7149B5E4698463C
:10448000139F159D29E5099B04CB9346099317E5D6
:104490003C0008E60B93F0E500B585B003910121DF
:1044A00002900093034813004A4202A9FFF796FACC
:1044B00005B000BDB131001010B5094A0300146801
:1044C00084B0002C08D0012200910648524203A972
:1044D000A047012004B010BD01F03CF90020F9E72D
:1044E0002C1C0020A131001001480421014B184769
:1044F000A00E002019450010142310B501001888E3
:1045000004331B88984710BD162310B50100188886
:1045100002331B88984710BDF8B54746CE4680B594
:104520000F1E19D0142399460433040000250126D8
:1045300098464B461888434621681B88984701C413
:10454000431E9841013540420640AF42F1D1300050
:10455000C0BCB946B046F8BD0126F8E7124A936FD1
:104560009B0815D29066D166002905D0FFE7FFE7CA
:10457000FFE7516F106F704704B580210906C2171D
:104580005140002800D0C84303F0DEFD002104BDE7
:10459000F0B5146E556E576F166FFFF7E3FF146694
:1045A000556657671667F0BD000000D0114A936F3B
:1045B0009B0813D210665166002905D0FFE7FFE77C
:1045C000FFE7516F106F704704B5002801D000203D
:1045D000C04303F0B9FD002104BDC046F0B5146E20
:1045E000556E576F166FFFF7E5FF146655665767F0
:1045F0001667F0BD000000D094464A4A926F9208B8
:10460000624601D228E0C046F0B5464E346E756E63
:10461000776F366F00F020F89446424A146655666C
:10462000576716676246F0BD94463E4A926F9208FD
:10463000624601D254E0C046F0B53A4E346E756E13
:10464000776F366F00F04CF89446364A146655661C
:10465000576716676246F0BD002B24DB11D0002996
:104660003EDA00B5C943404200D1013100F038F8CC
:10467000C943404200D10131DB43524200D10133F2
:1046800000BD002AEBD1002801D1002905D000206F
:10469000C90FC90701D1C043410800B503F04CFD63
:1046A0000022002300BD00B500290ADBDB43524293
:1046B00000D1013300F014F8C943404200D1013168
:1046C00000BDC943404200D10131DB43524200D119
:1046D000013300F005F8DB43524200D1013300BD45
:1046E000002923D1002B18D1002A0CD0BC460D4F35
:1046F00038667A6600210023FFE7FFE7FFE77A6F5D
:10470000386F67467047002801D00748010000B5A0
:1047100003F012FD0022002300BD02000B00002068
:1047200000217047000000D0FFFFFFFF002B00D0EA
:10473000BFE0130C28D1002AE7D080B4114F3966AE
:104740007A66FFE7FFE730B4040C7B6F396F1B0418
:1047500023433B667A66FFE7FFE7FFE7C04684B284
:104760007B6F3D6F1B0423433B667A66FFE7FFE7E1
:10477000C04600232C042D0C7A6F386F0019694154
:10478000B0BC7047000000D0F0B594460025140E70
:1047900001D112020835140F01D112010435940F12
:1047A00001D192000235D40F01D152000135D40B52
:1047B0000134254F7C66254C3C660E0C93B2FFE716
:1047C000FFE7FFE73C6F6643360C7703BE46734353
:1047D000DF0B5B04C01AB941130C7343DB18C91A11
:1047E000CE086643360CB64493B273431F0F1B01C9
:1047F000C01AB941130C73431F0B1B05C01AB941F2
:10480000860D8F023E436643360C092D24DB520A87
:104810007243801A7703460A6643360C16235B1BE5
:10482000DE40DF40BF1964466643821B7046043594
:1048300006330100D940A840C01900D30131A2427B
:1048400006D20023F0BD0000000000D0FFFFFFFFF4
:10485000121B0130F3D3F1E709277F1BFE406446AA
:10486000A2B27243801A00D20139220C7243130C97
:104870001204821A99410B00704604351337010067
:10488000F940A840801900D30131002B02D1A24287
:104890000AD2F0BD013000D30131121BFAD2013B24
:1048A000F8D1A24200D2F0BD013000D30131121B79
:1048B000F7E7F0B51C0C00D080E00CB400251C0A12
:1048C00004D11B02160E3343120208351C0B04D10F
:1048D0001B01160F3343120104359C0B04D19B00BE
:1048E000960F334392000235DC0B02D192185B41E4
:1048F00001351C00971864410134464F7C66464CD4
:104900003C660E0CFFE7FFE7FFE7C0463C6F6643DF
:10491000360C7703BE4697B27743C01B00D20139ED
:10492000C01B00D201399FB27743C91BC91B170CAA
:1049300077437E04FF0B801BB941CE086643360CDB
:104940000C2D33DBB644120B1F053A431B0B97B2F9
:104950007743C01B00D201399FB27743C91B170CA4
:1049600077433E043F0C801BB941860D8F023E43C6
:10497000664329277F1BFE400C3D7746AF40BF1999
:1049800030BCA2B2ABB272437343801A9941220C7D
:104990007243130C1204801A994102000B00013774
:1049A000001BA941F9D2781E0021F0BD0C277F1B06
:1049B000FE4077467F0BAF40FF19E0E700245D1C07
:1049C00007D0144F7D663966FFE7FFE7FFE7FFE793
:1049D0003C6F95B29EB265436643401BB141150CD6
:1049E0001E0C6543664336042F0C3E432D04401BCA
:1049F000B141994204D202000B0020000021F0BD19
:104A000001D19042F7D3801A994101349942F2D3EF
:104A1000F6E70000000000D0FFFFFFFF48404140E4
:104A2000484018B41B4B5B68FC46019308BD04DF8B
:104A3000D34C001018B4174B1B68FC46019308BDFB
:104A400000DFDD4C00109446134A926F920809D2A1
:104A5000624618B40F4BDB68FC46019308BD0CDFBF
:104A6000954F00100C4AF0B5146E556E576F166FC7
:104A70006246FFF7EEFF084A1466556657671667E9
:104A8000F0BD18B4034B9B68FC46019308BD08DFDA
:104A9000394E001028100020000000D0FFB5504013
:104AA0004240504059404B40594000E0FFB5154F3F
:104AB0004C00640D03D0BC4204D10C0314D8002078
:104AC000090D09055C00640D03D0BC4204D11C0330
:104AD0000AD800221B0D1B0501264B4009D44B4070
:104AE00003D58B4200D18242FFBD9942FCD1904256
:104AF000FFBD0B43DB1803431343F5D0C9434918EB
:104B0000FFBD0000FF07000000B5FFF7CFFF8041A9
:104B100000BDC04600B5FFF7C9FF01D9002000BDA8
:104B2000012000BD00B5FFF7B9FF01D9002000BD8D
:104B3000012000BD00B5FFF7B1FF804100BD01209D
:104B400040054A00121804D85A00121801D8002053
:104B500070470120704700207047000000210028A6
:104B600005D17047C1174840401AFAD0C90713B59C
:104B7000064B1B6898470CBC441CA2401005120B46
:104B80000349091B09051943114310BD701C00207E
:104B90001F04000010B54C00620D8023D218DB000A
:104BA000D21A5B057E2A10DD9E3A13DACC17090370
:104BB000490819435242D140640001341532202A79
:104BC00005DAD0400843604310BD002010BD084600
:104BD000604310BDC80FC018013810BD18B4044B95
:104BE0005B6AFC46019308BD24DF455100100000BC
:104BF0002810002018B4044BDB6FFC46019308BD5D
:104C00007CDFC5510010000028100020132370B570
:104C10001D78012D15D010DD1C48FFF775FC1C4CCC
:104C200001008022200000F02FFC022D06D0194840
:104C3000FFF762FC184B186070BD154C174BA3644E
:104C4000F5E7164B124C23606360A360E3602361B9
:104C50006361A361E36123626362A362E36223632E
:104C60006363A363E36323646364A364E36423650E
:104C70006365A365E36523666366A366E3662367EE
:104C80006367A367E367A364D1E7C04653440000AA
:104C9000281000204C330000701C0020A14C001094
:104CA00007B5604601880A0A0230DF2AFAD1C9B284
:104CB000820804D3028840880004104300E00068A2
:104CC000014A5050039007BD281000200FB403BCC8
:104CD0000CBCF0B50124E407634000E0F0B50C0D16
:104CE000CF0F661E3605891B640503D3C9434042B6
:104CF00000D30131640D03D0661CF60A07D0E41B13
:104D000000207F00791C89078912803C24031D0D37
:104D1000DF0F6E1E36059B1B6D0503D3DB4352422E
:104D200000D301336D0D03D06E1CF60A07D0ED1BC6
:104D300000227F007B1C9B079B12803D2D032F1BB5
:104D4000661B58D4A446202E46DA20371400BC40F7
:104D50001D00BD40F24033412A4380185941CB0F1A
:104D600005D0C943C04300226442504151416246CC
:104D70004D0D28D10D0D07D100281FD02419404119
:104D80004941013A0D0DF9D0640006D3013000D33A
:104D90000131002C01D140084000013A0BD4941C91
:104DA000E40A04D112051144DB071944F0BDD90708
:104DB000204B194300E0D9070020F0BD0029DDD1C8
:104DC000002CDBD1F0BD0132C6074008CD072843D7
:104DD0004908002EE1D0D9E73C2E29DA203E4037A1
:104DE0001400BC4000D00124F24014431A00BB4020
:104DF0001C43D317ACE7AC46202F08DA203604005A
:104E0000B4400D00B540F84039412843A5E73C2F98
:104E10000CDA203F40360400B44000D00124F840B2
:104E200004430800B1400C43C117EAE71000190021
:104E3000002494E70000F07FF0B50C0D661E3605E7
:104E4000891BE60A6405640D02D0651CED0A04D0D6
:104E5000002001210905803C2403A4461C0D671E87
:104E60003F05DB1BE70A6405640D02D0651CED0AF3
:104E700004D0002201231B05803C240377406444B6
:104E800097B484B296B27443070C7E43150C6F43FB
:104E900080B26843361802D3012000043F18300462
:104EA000350C00197D41844688B29AB250430C0CEF
:104EB00062431F0C7C438EB27E43921902D30126BB
:104EC0003604A4191604170C3618674101BC81B2C8
:104ED0009AB25143040C62431B0C5C4380B25843AA
:104EE000121802D30120000424181004130C4018D7
:104EF00063412D185E410020474106BC88B293B241
:104F000058430C0C6343120C544389B251435B1851
:104F100002D301210904641819041A0C091862410A
:104F20006D1856410020474118BCF902720D11431B
:104F3000F0026A0D1043ED020A0D03D16D194041D4
:104F40004941013B124E9B1B7600B3420ED26D00CD
:104F500007D30130002671416646354301D1400830
:104F600040001B05C918E4072144F0BD0BDA0133EA
:104F700006D1013004D101314F0D01D04908F2E7CB
:104F8000E1070020F0BD013631050020EBE700000D
:104F9000FF030000F0B51C0D671E3F05DB1BE70A91
:104FA0006405640D02D0661CF60A04D000220123B9
:104FB0001B05803C2403D0252D060026F6432E66D3
:104FC0001E096E66CE0FF619B44649004F0D02D089
:104FD0007E1CF60A03D000200021403F3F033E1B09
:104FE000B600B444013F7F05C91B49082E6F013646
:104FF00076089C02950D25437543ED137543AD135B
:1050000001356D10F603761B0CB4CC02450D2C4314
:10501000A2B2B3B25A43270C7B43350C6F43A4B200
:105020006C431B1902D3012424043F191C041D0CDA
:10503000A4187D4124196D41009A91B2ACB261432C
:10504000170C7C432B0C5F4392B25A43A41802D333
:1050500001221204BF182204230C52187B41019C28
:105060006C431B19520ED9010A434401A01A81B2A4
:10507000B2B2514303145A43360C734387B2774399
:10508000D617D21900277E4136049B191704160C37
:105090007F185E417316ED18F301002680337541C9
:1050A000A90F06D16400690AE8055B0A184309D212
:1050B0002FE00422944480337541A90AA8059B0A75
:1050C000184326D3404149412404009A019B0D0016
:1050D0005543641B4343E41A95B286B27543170CDB
:1050E0007E43030C5F4392B25A43B61802D30122A7
:1050F0001204BF183204330C52197B4152429C41B6
:10510000002C02D40022013051414008CA0710434C
:10511000490802B06246D7079210084BD218084BD4
:105120009A4203D212058918C919F0BD0020002A3D
:1051300001DC3900F0BD01331905F5E7FD0300007E
:10514000FE070000002200B5203200F004F808003D
:1051500000BD000000220B150AD410B5944600F0E3
:105160005FF81414013400DA0021CB17144C2047E7
:105170000020002170476244343A0CD40C2A07DA2C
:1051800004009140904052422032D440214310BD4F
:10519000D843D94310BD203207D40C469440524224
:1051A00020321141D040204310BD0800C9172032E1
:1051B00003D452422032104110BD1800190010BD16
:1051C000775100104A00520D144BD21A13DDFF2AFA
:1051D0001EDAD205CB0FDB071A43C300400F0903C9
:1051E000490A084310435B0001D301D001307047E6
:1051F0004308FBD2704702D0C80FC00770470A03AC
:1052000012130132F8D1420F072AF5D1012200E032
:10521000FF22C80F00028018C005704780030000FD
:105220000A0DCC0F531E1B05C91A520503D3C943DF
:10523000404200D30131520D03D0531CDB0A07D08A
:10524000121B00206400611C89078912803A120336
:10525000014BD21A70470000FF0300005143434343
:10526000C9188C46110C83B24B4310B4040C614333
:1052700092B280B2504362431C041B0C001910BC54
:1052800059411304120CC018514161447047000089
:105290004840414048400E4B5B6818470C4B1B6828
:1052A00018470C4A936F9B0802D2094BDB681847DA
:1052B000F0B5146E556E576F166FFFF7F6FF054A7F
:1052C0001466556657671667F0BD014B9B68184713
:1052D00028110020000000D007B548404140484058
:1052E00001E0C04607B54200120E03D0FF2A03D1E9
:1052F000420218D8C00DC0054A00120E03D0FF2A82
:1053000003D14A020FD8C90DC9050122414005D475
:10531000414001D5814207BD884207BD014349187C
:1053200001D0C043001807BD00B5FFF7DBFF804187
:1053300000BDC04600B5FFF7CFFF804100BD491A50
:10534000002807D108467047C10FC90700D5404261
:10535000002817D0F44603B40B4B1B68984706BCD3
:1053600081409E384042803107D20B0607D0490069
:10537000490AC0051043084360470130F8E7490A6D
:105380008902F5E770470000701C0020014B5B6A42
:105390001847000028110020034BDB6FFC4618471C
:1053A0007CDF3D540010000028110020132310B5AD
:1053B00012481C78FFF7A8F80100012C0AD003DD81
:1053C00080220F4800F060F80E48FFF795F80E4B6A
:1053D000186010BD0A4C5422200000F055F80B4B09
:1053E0006365A365E36523666366A366E366236777
:1053F0006367A367E3672362E361E5E75346000061
:10540000281100204C330000701C002011540010A3
:1054100007B5604601880A0A0230DF2AFAD1C9B20C
:10542000820804D3028840880004104300E000682A
:10543000014A5050039007BD28110020C30FDB071D
:1054400041000A0E07D0FF2A08D00909054A891829
:105450001943400770471900002070470249C918D6
:10546000FAE70000000000380000F07F0148042146
:10547000014B1847B00E002019450010014B1B6866
:1054800018470000B00E0020014B5B681847000071
:10549000B00E0020030010B5080011001B689847EB
:1054A00010BDC046F0B546464F46D646C0B5437D12
:1054B00080460E001700002B46D0002A3FDD4B1E11
:1054C0009946244B0125002400209A460DE04B46C6
:1054D0001B5D0D3B5A425341325DDBB20A2A0BD0B1
:1054E0002B00013401359F421ADD002CEFD14346D9
:1054F000325D1B7D0A2AF3D1002BF1D1A04204DAE0
:105500004346211A1B6830189847434650461B688B
:1055100002219847013428002B0001359F42E4DC2A
:10552000874204DD4346391A1B6830189847F6193C
:10553000013E33780D3B5A42534142461375E0BC5D
:10554000BA46B146A846F0BD03681100300098473E
:10555000F5E7C04688860010F0B5C6460B68060021
:105560000C0000B5802B06D05A1C2260E41826716E
:1055700080BCB846F0BD0F4B1D68002D16D00B1D2A
:1055800098460D4F02E02D69002D0FD02B68002B9F
:10559000F9D03B68002B01D0AB42F4D12800414642
:1055A0002268FFF77FFF2D69002DEFD10122002334
:1055B000DBE7C0462018002028180020F0B5DE46A2
:1055C00057464E464546E0B585B017001C0006001C
:1055D0000D00FCF779FE0023314A12184B4180215F
:1055E00009068B4202D301222E4B52422E4908005B
:1055F0008A4602F0C9FD01906B1C03D1300002F015
:1056000053FD0500002C25D1284B9846284B1C68DB
:10561000002C15D0002F20D1264F02E02469002C49
:105620000ED02368002BF9D03B68002B01D0A34299
:10563000F4D120002A003100C0472469002CF0D1A9
:10564000019B002B27D105B0F0BCBB46B246A94652
:10565000A046F0BD184B9846D8E7164B994602ABCA
:10566000DF1D0A239B4602E02469002CE8D0236852
:10567000002BF9D04B461B68002B01D0A342F3D17D
:105680002A0031002000C0475B460122390020007B
:105690003B70C047E8E7504602F046FDD3E7C046FE
:1056A00040420F00FFFFFF7F000F0020A5540010B5
:1056B000201800202818002095540010F0B5CE4680
:1056C000474680B583B06B460600DD1D2870FCF7A9
:1056D000FBFD00231A4A12184B41802109068B4218
:1056E00002D30122174B524217490800884602F0A4
:1056F0004BFD164B81461C68002C14D0144F02E061
:105700002469002C0FD02368002BF9D03B68002BB4
:1057100001D0A342F4D1200001222900FFF7C2FEEC
:105720002469002CEFD14B46002B05D1300003B08B
:10573000C0BCB946B046F0BD404602F0F5FCF5E706
:1057400040420F00FFFFFF7F000F002020180020C5
:105750002818002070B5040002F0A6FC0023010008
:10576000050001222000FFF729FF084B1C68002CD0
:1057700006D06368002B05D098472469002CF8D127
:10578000280070BD2469002CF3D1F9E7201800200F
:105790000A4A1368002B05D10CE01A001B6910326D
:1057A000002B07D09842F8D1002902D10369136079
:1057B000016170470029FCD01060FAE72018002032
:1057C000F0B5CE46474680B5A3B004000D00FCF707
:1057D0007BFD0023294A12184B41802109068B4288
:1057E00002D30122264B5242264F380002F0CCFC55
:1057F00000230600019322002B00234801A9FEF795
:105800004BFE019B8046002B14D1204B1C68002CC2
:1058100006D06368002B0BD098472469002CF8D180
:10582000002E25D1404623B0C0BCB946B046F0BDDD
:105830002469ECE7154B1D689946002D1CD0144CCB
:1058400002E02D69002D0FD02B68002BF9D02368C2
:10585000002B01D0AB42F4D12800019A02A9FFF736
:1058600021FE2D69002DEFD14B4601951C68CEE736
:10587000380002F059FCD5E70195D1E740420F000E
:10588000FFFFFF7F000F0020595500102018002057
:10589000281800200FB400B583B004A901C90191F4
:1058A000FFF78EFF03B008BC04B0184710B500F036
:1058B00029FA10BDF0B5CE464746040080B583B046
:1058C000FCF702FD26000027802336184F411B06F7
:1058D0009F4202D30126194F7642194BB94698468A
:1058E000184D43461C68002C03D116E02469002C97
:1058F00013D02B68002B01D0A342F7D1A368002B53
:10590000F4D0012101A898470028EFDD6B461879F3
:1059100003B0C0BCB946B046F0BD0B4B5A6A9145C6
:1059200007D89B6AB34201D2914502D00120404280
:10593000EEE701200021FCF7D1FCD2E7FFFFFF7F5B
:105940002018002028180020004005407047C0465D
:105950000022014B1A707047AF1C00204B790020C9
:10596000FF2B0BD18B79002B08D1CB79012B05D1E3
:10597000082A03D9024B8A7809301A707047C0464A
:10598000AF1C00200120704770B5012909D11549CD
:105990005379107909781B0203430020994202D001
:1059A00070BD0120FCE75378012B08D0022BF7D102
:1059B000002064220021FDF7C5F90120F0E794786A
:1059C000D278050012021443D20502D5620A934030
:1059D0001D000548FEF790FD7F21030021402800AF
:1059E0009847C046AF1C00205542000001230370B9
:1059F000004870478C8600104B780A781B021343CE
:105A00008A7810B512041A43CB781B0613439622EA
:105A1000D200934200D010BD0348FEF76DFD002177
:105A2000030008009847C04655420000024B18602A
:105A3000024B19607047C046841700208817002069
:105A400010B5024B1878FBF745FD10BDB01C0020C7
:105A5000114B70B51A68002A1AD0EFF3108172B694
:105A600010680028FCD0BFF35F8F00200B4A5960FC
:105A700010701B68BFF35F8F186081F310880024DB
:105A80000025074B1878FBF725FD2900200070BD85
:105A9000FA240025A400F4E7501C0020B11C0020CB
:105AA000B01C002070B5040000200E0001F022FBA5
:105AB000002837D0002001F035FB002832D0FCF759
:105AC00003FC0023194A12184B41802109068B421E
:105AD00016D2174D280002F057FB002822D00020D4
