:020000041000EA
:1000000000B5324B212058609868022188439860DF
:10001000D860186158612E4B002199600221596106
:100020000121F02299502B49196001219960352056
:1000300000F044F80222904214D00621196600F024
:1000400034F8196E01211966002018661A6600F04E
:100050002CF8196E196E196E052000F02FF8012189
:100060000842F9D1002199601B49196000215960AB
:100070001A491B48016001219960EB211966A021F2
:10008000196600F012F800219960164914480160C1
:100090000121996001BC002800D000471248134993
:1000A000086003C880F30888084703B5996A0420EC
:1000B0000142FBD001200142F8D103BD02B5186610
:1000C0001866FFF7F2FF186E186E02BD00000240BE
:1000D000000000180000070000035F00212200005C
:1000E000F4000018222000A00001001008ED00E03C
:1000F00000000000000000000000000074B24E7A12
:1001000000200420F7010010C3010010C5010010F9
:10011000C1010010C1010010C1010010C101001097
:10012000C1010010C1010010C1010010C701001081
:10013000C1010010C1010010C9010010CB01001065
:10014000CD010010CD010010CD010010CD01001037
:10015000CD010010CD010010CD010010CD01001027
:10016000CD010010CD010010CD010010CD01001017
:10017000CD010010CD010010CD010010CD01001007
:10018000CD010010CD010010CD010010CD010010F7
:10019000CD010010CD010010CD010010CD010010E7
:1001A000CD010010CD010010CD010010CD010010D7
:1001B000CD010010CD010010CD010010CD010010C7
:1001C00000BE00BE00BE00BE00BE00BEEFF3058054
:1001D000103800BEF2EB8871EC9200100C93001006
:1001E0003402001090A31AE700201F49086006C8D7
:1001F00081F3088810471D48006800282FD10DA4FE
:100200000ECC002902D000F012F8F9E71849194A7B
:10021000002000E001C19142FCD1174988471749ED
:1002200088471749884700BEFDE701C901C29A42C5
:10023000FBD370470C930010C0000020200F00205B
:100240006CA1001000000420000004206CA100102C
:10025000001004200010042000000000704709482E
:1002600004F042FE0047000008ED00E0000000D06E
:10027000200F0020C41C0020F93700103D0300109F
:10028000ED3800105756000006005250ABB36053D3
:100290005090001006005250861C0302609000101F
:1002A000060052505422A29D70900010050052503A
:1002B000DE65F4686CA10010F8B5C0460648074931
:1002C000091A8B10C90FC91810B5491003D0044B77
:1002D000002B00D0984710BD200F0020200F0020D9
:1002E00000000000054B10B5002B03D00449054861
:1002F00000E000BFFFF7E2FF10BDC04600000000B5
:10030000401C0020708C001000B585B0094803AB7C
:1003100002AA01A901F02CFA002803D106480549D8
:1003200003F0E8FA039A0299019801F0E5F905B0A3
:1003300000BDC046A0860100708C0010F0B5DE46FE
:1003400057464E464546DF4AE0B59146DE4C00230F
:10035000A54412AD2A004946AB810133AB7351C9A4
:1003600051C216938023FE265B0223AF1793D74B0F
:1003700018220021B60538001993189605F076FD6D
:10038000D34B00219846BB602423D24A2BA82A9342
:10039000BE6105F06BFD05F095FFCF4B19209B6802
:1003A00001F08AFCD02380221B0692045A620720A7
:1003B000CA4901F0ADFD0121072001F071FD96232E
:1003C000802241465B005200CA5001F031F8C44B14
:1003D00016AC1093C34B0993C34B9A46C34B0F9370
:1003E000C34B08931FAB9B46C24B1193C24B0D935B
:1003F000C24B0B93C24B0C93C24B0A934B460693D2
:10040000280000F0F1FE2800069908F04DFB0028B6
:1004100018D1A378002BF3D0022B1FD0012B23D0AF
:100420002B00069A43CA43C3D02380221B069204A2
:100430009A6153461B68984602F0EAF9414602F079
:10044000ADFADDE72100280000F0B6FC642002F0E0
:1004500043FBA378002BD3D0022BDFD1E06800F060
:100460007FFF0023A370DBE72378022B03D163799E
:10047000082B00D819E3380000F0FAFF2388012B7D
:1004800000D1BEE32278012A00D170E1B868022BC6
:1004900000D165E20B9908F00DF938616378032B00
:1004A00000D139E300D9F6E0012B00D127E3022B7C
:1004B00010D1954A2379944602009C446646B96857
:1004C000123292005650BA6890498C4613306344F9
:1004D0008000835063790C2B00D1F0E0052003F0FD
:1004E000CBF805F024FC6379089A9B008046D0582D
:1004F000400005F01CFC011C404605F0CAFB844985
:10050000B861A06805F0D9FB05F038FC814602F01F
:100510007FF9804602F0D0FBFA2200230490059177
:1005200092004846002105F091FB049A059B1218A1
:100530004B41802109068B4202D30122754B524266
:1005400001260999404602960091019702F064F94C
:100550005346FA681860A0209046C005844640467D
:100560003B680830B968A27980009B016344091890
:10057000196092022AA959609A607A696649DA601C
:10058000BB683A699946BB690492079380235B0272
:100590001F93131D1B03D2011343604A49441340A8
:1005A0008022D20513435A465360C0231B03219374
:1005B0005B4B1020D3604B1E9941063101F0B8FA15
:1005C0005A46584BD26841461A408023DB021343F7
:1005D0005A46D3600023082248460093083308F0A7
:1005E000EBF80123102241464846009608F0E4F853
:1005F000079E301C05F0C2FB83B207930020002B3E
:100600000ED0180005F093FB011C301C05F03BFBDD
:100610008721C90505F051FB05F0B0FBC0B200020F
:100620005A46079B41461B040343136092683E4BA6
:1006300048461A403D4B13435A4693605B46049A22
:1006400008F012F94B4641461A6801238B401343C8
:100650004A461360364B80219C463A68069E9201BA
:100660006244490413680B42FCD1069653461B684A
:10067000984602F0CDF8414602F090F9210038008A
:1006800000F024FF3B79002B54D00A9805F00EFEB1
:1006900000233B71C4E6042B00D01BE7B968237923
:1006A000194A944602001232634492005350BA68C9
:1006B00013308000835063790C2B00D00EE7FFF7D6
:1006C00023FE0BE7A48C001054FFFCFF3333D33F11
:1006D00000002050FCFF020000400640CD16001034
:1006E000A116001045160010A01C0020F88C001068
:1006F000708D0010DC8C0010EC8C0010C88C001089
:10070000B08C0010B88C00107F200000FF1F00008C
:1007100000007A44FFFFFF7F0000E0AFFFFFFF9F74
:1007200000400040FF7FF0FFFFFF0A3E0000818095
:1007300010000050A3792AAA91460022002B10D065
:10074000069B160098464B46187805F0AFFC01232F
:100750009C46A3790136E1449B02B342F3D8434659
:1007600006930C9805F0A2FD05F022FD58E662788C
:10077000013A032A00D989E6B868119907F09AFF6F
:1007800038616378032B00D104E300D9D7E0012B53
:1007900000D1F2E2022B10D1E14A23799446020003
:1007A0009C446646B968123292005650BA68DD49D8
:1007B0008C46133063448000835063791A000C3AEE
:1007C000012A00D8C8E20F2B00D1C5E2052002F0B3
:1007D00053FF05F0ACFA6379089A9B008046D05825
:1007E00005F0A5FA011C404605F053FACE49B86160
:1007F000A06805F062FA05F0C1FA814602F008F837
:10080000804602F059FAFA220023049005919200E2
:100810004846002105F01AFA049A059B12184B412C
:10082000802109068B4202D30122C04B5242012192
:100830000291099940460091019701F0EDFFA02136
:10084000FE685346C9058C46310018603B68083184
:10085000BA6889009B0163445218A0791A602AAAD9
:100860005A607A6980029860DA60BB688022994693
:100870003B6900200793F82352025B021A921B93F4
:10088000C02380465A46B9691B0304960E911C93F7
:100890001AAB43CB43C240461060079A5846033216
:1008A000D10112039C460A43594642601AAA49C91B
:1008B00049C2424663461A60434648460833049993
:1008C000009207F079FF0E9E301C05F057FA83B2B4
:1008D0000E93404643450DD0180005F028FA011C40
:1008E000301C05F0D0F98721C90505F0E6F905F0BF
:1008F00045FAC0B20E9B00021B041C9A18438C4B95
:10090000049E1A408B4B310013431A90079A1C9394
:1009100048461AAB07F0A8FF4B461A680123B340BC
:1009200013434A461360844B80219C463A68069ED6
:1009300092016244490413680B42FCD195E6042BF2
:1009400000D03AE7B9682379754A9446020012321A
:10095000634492005350BA681330800083502CE7F0
:100960000D9907F0A7FE386163790C2B00D1DEE109
:10097000052002F081FE05F0DAF96379089A9B0000
:100980008046D058400005F0D2F9011C404605F0E1
:1009900080F9FA68B861061CA0209046C00584461C
:1009A00040463B680830B968A27980009B016344E7
:1009B0000918196092022AA959609A607A695F49F8
:1009C000DA60BB683A69994680235B021F93531C27
:1009D00004921B03D2011343594A49441340802215
:1009E000D20513435A465360C0231B032193554B32
:1009F0001020D3604B1E9941063101F099F85B46F7
:100A0000DA68514B41461A408023DB0213435A46B1
:100A1000D3600023082248460093083307F0CCFE39
:100A20000123102200934146484607F0C5FE301CC2
:100A300005F0A4F983B200220793002B0ED0180012
:100A400005F075F9011C301C05F01DF98721C90559
:100A500005F033F905F092F9C2B21202079B414644
:100A60001B0413435A4613609268314B48461A40A0
:100A7000304B13435A4693605B46049A07F0F4FEEA
:100A80004B4641461A6801238B4013434A46136084
:100A9000294B80219C463A68069E92016244490493
:100AA00013680B42FCD10696E8E52100380000F0FF
:100AB00035FDA021C9058C463B68A27923499B01DD
:100AC0006344196092022AA959609A607A69DA60CF
:100AD0006378002B3ED108221D4B80211A60164BF3
:100AE0003A689C469201069E6244490413680B4290
:100AF000FCD106962100380000F06AFDC2E5094AE3
:100B00002379944602009C446646B96812329200EA
:100B10005650BA680249D8E4B9682379014AC0E559
:100B20007F200000FF1F000000007A44FFFFFF7FCE
:100B3000FFFF0A3E00008180100000500000E0AF7F
:100B4000FFFFFF9F00400040FF7FF0FF0CC004400C
:100B500000E00440032B00D108E149D8012B00D16B
:100B6000FDE0022B05D1012204210720109B01F09A
:100B700033F88A49A06805F0A0F805F0FFF881462F
:100B800001F046FE804602F097F8FA220023049016
:100B9000059192004846002105F058F8049A059BFB
:100BA00012184B41802109068B4202D301227C4B53
:100BB000524201210291099940460091019701F0AA
:100BC0002BFE53461860774B80219C463A68069E60
:100BD00092016244490413680B42FCD106965346C5
:100BE0001B68984601F014FE414601F0D7FE81E7EC
:100BF000042BBED1012202210720109B00F0ECFF44
:100C0000B7E70F99B86807F055FD8021C9018C46F8
:100C10003861E378BA6812306344800083506379A6
:100C20001A000C3A012A00D893E00F2B00D190E073
:100C3000052002F021FD05F07AF86379089A9B00FF
:100C40008046D05805F073F8011C404605F021F8A5
:100C5000FA680790B861A0209046C00584464046D7
:100C60003B680830B968A27980009B016344091889
:100C7000196092022AA959609A607A698021DA6023
:100C8000BA6800239146F822490252021A911B9237
:100C9000C02259469C463E69120304961C921AAA29
:100CA00049CA49C10E9262460A60049E3003F101AE
:100CB0000143584641601AA94CC84CC162460E9B7C
:100CC00041461A60634648460833009207F074FDB7
:100CD000079E301C05F052F883B207930020002BCA
:100CE00028D1079B00021B041C9A18432E4B414637
:100CF0001A402E4B1A9013431C93049A1AAB484681
:100D000007F0B2FD4B4641461A6801238B4013435E
:100D10004A461360234B80219C463A68069E920106
:100D20006244490413680B42FCD10696A6E4FFF71F
:100D3000EBFA1DE6180004F0FAFF011C301C04F069
:100D4000A2FF8721C90504F0B8FF05F017F8C0B26B
:100D5000C7E7FFF7D9FA6BE7FFF7D6FA36E50122C6
:100D600008210720109B00F037FF02E7012207202F
:100D70001100109B00F030FFFBE60D4A23799446EA
:100D800002009C446646B968123292005650BA6816
:100D900008490DE5B9682379054AD6E500007A448B
:100DA000FFFFFF7F10000050FFFF0A3E0000818020
:100DB000FF1F00007F200000F0B54E465746454615
:100DC000DE46E0B593B00EAD2B000A000C00C2CA9F
:100DD000C2C312681A602378A6789B466378E768D6
:100DE0000193E37802932379039363799846A37977
:100DF0009946A36804934378442B74D0412B72D056
:100E0000432B73D18378562B00D112E1542B00D0A1
:100E1000EFE0C3793B2B00D0EBE0C3781A00303A07
:100E2000092A00D988E1027911003039092900D94D
:100E300082E1467931003039092900D97CE187798E
:100E400039003039092900D976E1303B9800C018C3
:100E5000303A4000801804F07DFB303E049005914C
:100E6000300004F077FBD04AD04B04F002FB0200C4
:100E70000B000498059904F0D5FA303F04900591D1
:100E8000380004F067FBCA4ACA4B04F0F2FA0200C9
:100E90000B000498059904F0C5FA04F0A3FB0021A7
:100EA000049004F039FF002800D043E1C2490498BF
:100EB00004F038FF002800D03CE15B462B70019B1A
:100EC0006B700023AB70029BEB70039B2B7143464E
:100ED0006B714B46AB71049BAB60230007CD07C31E
:100EE0002A681A600AE0827A3B2A0ED00526B348A7
:100EF00005F0DCF93100B24805F0D8F913B0F0BCC8
:100F0000BB46B246A946A046F0BD8278303AD2B27E
:100F10000692092A00D9EFE0C27811003039C9B22F
:100F20000991092900D9E7E0017908913039C9B25E
:100F30000A91092900D9DFE041790B91303909295B
:100F400000D9D9E081790C913039092900D9D3E051
:100F5000C1790D913039092900D9CDE0017A079185
:100F6000302149428C4607998A46D4446146092972
:100F700000D9C1E0302149428C46407A8444614620
:100F8000092900D9B8E0442B00D1B7E035D8412B6E
:100F900031D1069B042B00D9C8E0382A00D0CDE01F
:100FA000089A312A00D0F7E00B9A944693000C9AE5
:100FB0006344103A5B009B18DAB290460D2A00D9C0
:100FC00004E164230D9A079953438A00891830304D
:100FD0001B1849005B18DAB29146C02A00D9F9E023
:100FE000069B019308230393073B029301339B461F
:100FF00006E004267BE7432B02D0704805F056F943
:10100000032E00D159E7022E61D05B462B70019B65
:101010006B700123AB70029BEB70039B2B714346FB
:101020006B714B46AB71230007CD07C32A681A606A
:1010300064E7837904263B2B00D058E730225242E4
:101040009246C3789A445346DBB2092B00D9A5E0F7
:1010500003799B18DAB2092A00D99FE04279303A25
:101060000492D2B2092A00D998E0180004F072FA6A
:101070004D4A4E4B04F0FDF9060050460F0004F0B7
:1010800069FA02000B003000390004F0CBF90600C9
:1010900004980F0004F05EFA454A464B04F0E9F963
:1010A00002000B003000390004F0BCF904F09AFA99
:1010B0000021071C04F030FE00286BD1381C04F01E
:1010C00063FE404A404B04F02DFA002862D15B4693
:1010D0002B70019BEF606B700223AB70029BEB7077
:1010E000039B2B7143466B714B46AB71230007CDBD
:1010F00007C32A681A6001E70126F8E6069B042B5D
:1011000016D8313A072A43D8089A1300313B012BED
:1011100016D9342A14D0382A16D00824274805F0C6
:10112000C5F82100264805F0C1F8E7E60C24F5E7EC
:101130000624F3E71224F1E70326D8E60D24EDE7B1
:10114000099B0A9A93422BD80B9A944693000C9AC7
:1011500063445B00103A9B18DBB29846102B21D8F1
:10116000642307990D9A8C4653438A0030306244B9
:101170001B1852009B18DBB29946C02B28D8099B3C
:1011800003930A9B0293069B019301239B4637E737
:101190000724C3E71124C1E70E24BFE70226A6E611
:1011A0000924BBE70A24B9E79A9999999999B93F13
:1011B0007B14AE47E17A843F0000C842048D0010E2
:1011C000148D00106666666666660A400F24A5E701
:1011D0000B24A3E71024A1E70122024B00200021E9
:1011E0001A707047BD1C0020F0B587B00590322002
:1011F00005F06CF8059CC0B26073232817D0FF2857
:1012000000D16BE0322005F061F8059CC0B260733C
:10121000FF28F7D100230C2220004749A373237332
:1012200004F02AFE454805F041F807B0F0BD01235F
:10123000A3730023424D20702B7001F0E9FA0400E3
:1012400001F03AFD00233F4A12184B418021090664
:101250008B4202D301223C4B52420121029105A94B
:1012600001913A492000009101F0D6FA0700431C91
:101270003DD0059C0BE02B78DEB2002B0AD132204A
:1012800005F024F8059CC0B26073FF2811D1A37B40
:10129000002BF0D12B78002BC7D000230C2220008C
:1012A0002549A373237304F0E7FD294804F0FEFFEA
:1012B000BBE7227B0132D2B222730B2A1ED8A05484
:1012C0003B28E4D101F0A4FA390001F067FB059B4B
:1012D00020489E731E7304F0E9FFA6E700230C224A
:1012E00020001549A373237304F0C6FD9DE713483E
:1012F00004F0DCFF184804F0D9FFBAE701F088FADF
:10130000390001F04BFB05980C220B4986730673DC
:1013100004F0B2FD114804F0C9FF059B5B7BFF2B75
:1013200000D182E7322004F0D1FF059BC0B2587390
:10133000FF28F7D179E7C046A48C0010188D001063
:10134000BD1C002080841E00FFFFFF7FD91100100C
:10135000648D00105C8D0010208D0010508D0010E9
:1013600030B5002183B0041C04F0D6FC00282BD13A
:10137000201C04F009FD274A274B04000D0004F04F
:10138000D1F8002823D01C23E3206A465071137142
:10139000C046C046C046D02480252406AD02A561C3
:1013A000C046C046C046022201A91C4807F030FCD6
:1013B000C046C046C0466561C046C046C04614200F
:1013C00001F08AFB03B030BD30230020DDE7144A72
:1013D00020002900134B04F095F8002200280ED0BD
:1013E000114B2000290004F044F804F0EFF8C0236A
:1013F0009B019C46604483B21B0AC0B2C5E70B4BFD
:101400002000290004F035F804F0E0F880235B01A7
:10141000EFE7C0466666666666660A4000C003403F
:10142000FCA9F1D24D62004000409F4000408F4037
:1014300010B50C490C4807F07FFA0121122000F08A
:1014400077FB0121132000F073FB112000F034FC26
:10145000D02380221B0692025A6204485A61FFF789
:101460007FFF10BD20A1070000C003403333D33FEE
:10147000124B10B5836004000121806807F0FCF86E
:10148000E060012007F046FA882220600C480D4BEE
:10149000844652011A602168A268E3686244501EC3
:1014A00082410433D2009B18CA020749DB030A4079
:1014B000134321221343636110BDC0460000205036
:1014C0000000E0AF00000340FF7F00FF30B585B0B3
:1014D00004000D000F4803AB02AA01A900F048F96F
:1014E000002803D10C480B4902F004FA039A029930
:1014F000019800F001F9206807F002FAA06807F0EF
:101500003FF9A068E16807F0A7F80023AB7005B0C9
:1015100030BDC04648E80100708C001070B5040072
:101520000D001C201F2100F003FB002200211C20C5
:1015300000F016FB00211C2000F0AAFB07F098FA2F
:101540008023194E9B01326801205340E022D201D2
:101550001340164A1360164B1A68164B5340164A2E
:101560001340164A136007F0D5F920602368144A27
:10157000DB021340134A134363616B79082B10D0CD
:10158000114A9B009958114803F008FD013804F0F6
:10159000CEFB8721C90504F090FB04F0EFFB30611E
:1015A00070BD00233361FBE700C0044000D004405D
:1015B00008C004400B0000010F00000F08D00440D9
:1015C000FF7F00FF21001200708D0010006CDC0214
:1015D000002370B50D00802408210600154A84B050
:1015E0001361154B6400196013682342FCD09368A3
:1015F000234206D180240F4B6400DA689A682242A5
:10160000FBD00E4803AB02AA01A900F0B1F80028F4
:1016100003D10B48094902F06DF9039A0299019828
:1016200000F06AF8306807F06BF90023AB7004B083
:1016300070BDC04600C0044000F0044048E801000E
:10164000708C001070B50D0000220F2106000720DD
:1016500000F098FA01232A68A02093400E49C005A3
:1016600043500E4B80249C469201624464041368EC
:101670002342FCD101221400E868A96884400B6869
:10168000A3430B602A7101F0C3F8310001F086F921
:101690000020002170BDC046440400000C00005032
:1016A000084B10B51C6801F0B3F8210001F076F981
:1016B0000822054B0F211A600720002200F062FA71
:1016C00010BDC046A01C002000E00440074B10B530
:1016D0001C6801F09DF8210001F060F98022044BA4
:1016E0001A60044B7F3A1A6010BDC046A01C00204F
:1016F00080E200E030202050F0B583B005000E00FD
:10170000140000F0F7FA002801D003B0F0BD154F27
:1017100001223B0001210097053001F0BFFD33009D
:101720002A0000940121104801F0ACFF210028009C
:10173000714303F033FC04000C4B002200930221A0
:10174000042001F0ABFD23000022012100940520BC
:1017500001F0A4FD3B00022200210097062001F0C9
:101760009DFDD2E7006CDC0200800240001BB70048
:10177000F0B54E465746DE464546E0B585B0039384
:10178000554B06009A46A0235B00994601910292B0
:1017900001235B429C46E1444B460F2B00D198E06D
:1017A0004E4F4F4B072457449A4569D821003800C3
:1017B000614303F0F3FB864248D0631E9846012C38
:1017C0005ED01D0065433800290003F0E7FB864228
:1017D0005AD0A31E9B46022C5CD02D1B290038003A
:1017E00003F0DCFB864257D0E31E9B46032C6ED0F1
:1017F0002D1B2900380003F0D1FB864250D0231F57
:101800009B46042C52D02D1B2900380003F0C6FB48
:1018100086424DD0631F9B46052C4FD02D1B2900BF
:10182000380003F0BBFB86424AD04346052B4CD020
:101830003800E91F03F0B2FB86421CD006242100C9
:101840003800614303F0AAFB8642B6D10029B4D127
:10185000A0464A46234B01205343019A1360424657
:10186000029B1C60039B1A6005B0F0BCBB46B246ED
:10187000A946A046F0BD0029E0D101239846E8E73B
:10188000194B9C46E24483E70029E2D0A31E9B4605
:10189000022CA2D1012489E70029A5D1D846D8E796
:1018A0000029FBD0231F9B46042CACD103247DE7E9
:1018B0000029F3D0631F9B46052CAFD1042475E7A4
:1018C0000029EBD04346052BB2D105246EE7022454
:1018D0006CE70020C8E7C04670F72E00B0710B001F
:1018E00050F80C00001BB70020D1FFFFD0231B06CF
:1018F0001B688B4A99005258F0B5DE4693465A1E33
:101900009341302257464E4645465B421A401300EB
:10191000844AE0B5944683B063440193824B884681
:1019200008269A463500083DEA0813000199083355
:101930009B005C58002C23D05B46002B2AD001234F
:101940000F27994639002140274213D0534642467B
:101950009A584B46AB401A420CD1072208002A4045
:10196000920090400200EB0870483C339B001A50F4
:101970002800D84724090135002C01D0B542E1D315
:101980000836282ECED103B0F0BCBB46B246A946DD
:10199000A046F0BD0F2318002040234207D0474641
:1019A0000E3BAB406049C959194200D18DE0230973
:1019B000F11F002BE4D00F22100018401A420FD064
:1019C000012345468B40584A52591A4208D10722F2
:1019D0000A4092009040CB08544A3C339B009850F8
:1019E000230AB11F002BCBD00F22100018401A423F
:1019F0000FD0012345468B404B4A52591A4208D119
:101A000007220A4092009040CB08484A3C339B0092
:101A10009850230B711F002BB2D00F2210001840DA
:101A20001A4241D1230C311F002BA9D00F221000E4
:101A300018401A4252D1230DF11E002BA0D00F22C4
:101A4000100018401A425AD1230EB11E002B97D015
:101A50000F22100018401A420FD0012345468B4038
:101A6000314A52591A4208D107220A409200904046
:101A7000CB082E4A3C339B009850240F721E002C3A
:101A800000D17DE701235146404693400958194251
:101A900000D075E70721D3080A40920094403C33F8
:101AA000224A9B009C506BE7012345468B401E4A0F
:101AB00052591A42B6D107220A4092009040CB08F0
:101AC0001A4A3C339B009850ACE707232B409B00FD
:101AD00098403C32154B9200D05068E701234546B0
:101AE0008B40114A52591A42A5D107220A4092004E
:101AF0009040CB080D4A3C339B0098509BE7012354
:101B000045468B40084A52591A429DD107220A4045
:101B100092009040CB08054A3C339B00985093E7D5
:101B20008417002000410140701C0020004001404B
:101B3000094A10B594464024830063441A68C000E3
:101B40006240803414408022520113431C60034BD6
:101B50009C466044416010BD04C00140004001400B
:101B6000074B80009C4660440368C90092000A430A
:101B70005A400C231A4080235B0103431A607047CC
:101B800004C00140D0231B0630B505001C68104876
:101B9000631E9C4184460720302364422840234032
:101BA0008000EC08814020000A4D3C3063448000F6
:101BB000A40041511B19002A04D080229201134332
:101BC000196030BDC022920113431960F9E7C04685
:101BD0000041014000400140F0B51F00D023844681
:101BE0001B061D68C6466B1E9D41254B1600984678
:101BF0006246C3080720302410401A00800081404C
:101C00006D4220482C403C32444492009B0000B579
:101C1000E4181150002E13D080239B012343196038
:101C2000D0231B061C68184DA4002B59002B13D081
:101C3000002F20D02F51002E18D180BCB846F0BD07
:101C4000C0239B0123431960D0231B061C680E4D43
:101C5000A4002B59002BEBD1002FECD000220D203B
:101C60000A492F5100F07EF9002EE6D001210D2007
:101C700000F016F9E1E70D20044900F065FAD9E714
:101C8000004101400040014084170020ED18001081
:101C9000084B80009C466044002905D080234022E8
:101CA0009B0103431A607047C02340229B010343FA
:101CB0001A60F8E704C001400123D02283401206D5
:101CC00093629361094A40219446830063441A68F1
:101CD000C0004A40803111408022520113431960F4
:101CE000034B9C46052360444360704704C0014099
:101CF00000400140024B18688007C00F7047C04683
:101D000000C00640EFF3108072B6034A1368002B40
:101D1000FCD0BFF35F8F70472C0100D0BFF35F8F03
:101D20000022024B1A6080F3108870472C0100D00B
:101D300070B5EFF3108C72B60D4D2B68002BFCD0F4
:101D4000BFF35F8F0724CB08C618C05C01230C408B
:101D5000A3401C000440034207D118433070BFF376
:101D60005F8F2C608CF3108870BD100001F0C2FDF5
:101D70002C0100D0F8B54746CE46884680B5EFF333
:101D8000108C72B6214D2C68002CFCD0BFF35F8FF5
:101D90009A422CD8D4080727055D0619012417405C
:101DA000BC402C421FD007210127894609E0D408F6
:101DB000055D06194C4639001440A1400C0029422B
:101DC00011D001329342F2D201204042BFF35F8F23
:101DD00000220E4B1A608CF3108800280FDBC0BC69
:101DE000B946B046F8BD254310003570EEE7BFF3A5
:101DF0005F8F00232B608CF3108801204042434604
:101E0000002BECD0089801F075FDC0462C0100D0E5
:101E100030B5EFF3108C72B60A4C2368002BFCD05F
:101E2000BFF35F8F072301220B409A40CD08435D2B
:101E300093434355BFF35F8F002323608CF31088D7
:101E400030BDC0462C0100D00021044B044ABFF332
:101E50005F8F02C39342FAD17047C046000100D0A1
:101E6000800100D0044A1078431CDBB2172B00D944
:101E7000102313707047C046200E002010B5064B8B
:101E8000064C82B00100009318221F232000FFF7A8
:101E900071FF02B010BDC046B48D00109417002031
:101EA00001238340002904D0034A1360034A1360CE
:101EB0007047034A1360FBE780E200E000E100E0C6
:101EC00080E100E001238340014A13607047C0466F
:101ED00000E200E0084B10309B688000C358002BE4
:101EE00007D0064A00209B1A2F229A424041C0B2D6
:101EF00070470020FCE7C04600ED00E0240E002003
:101F0000024B10309B688000C058704700ED00E025
:101F100070B50D00EFF3108672B60F4A1368002BF0
:101F2000FCD0BFF35F8F0D4B10309B6884001B59B2
:101F30000B4A934203D09D4201D001F0F3FC074BC2
:101F40009B681D51BFF35F8FBFF35F8F0022024B71
:101F50001A6086F3108870BD240100D000ED00E007
:101F6000CD010010F0B557464E46DE464546E0B579
:101F700085B0060001911700EFF3108B72B6664A28
:101F80001368002BFCD0BFF35F8F0025634B5D57B8
:101F90009A46002D00DAA2E06B00614C02935B19B7
:101FA0009B009846A146C1444B4652469B79103649
:101FB00013705C4BB2009B68009299580B1B2F2B3F
:101FC00034D9594B994200D0A2E0029B42469C462C
:101FD000564B6544AD006353554B0232A218043B87
:101FE0009B1A1B05534A5B0D651913436B80524BBB
:101FF0000121AB80FF23AB71019BEF71AB604B46BE
:102000000B431900474B009A9B689950BFF35F8FB1
:10201000BFF35F8F0022404B1A608BF3108805B02E
:10202000F0BCBB46B246A946A046F0BD01200A005E
:102030008243D379BB422FD845464E4613003F49D1
:102040001B1B5B415943090D384B6353384B023519
:102050006519043B5B1B1B05364D5B0D2B437380E1
:102060000426B446E044131F44441B1B1B055B0DB0
:102070001D434B46997101999D8099604946DF71D6
:102080002F4B01431360BDE75800C0188000201893
:10209000C679BE4229D902000623D356002BF3DAB3
:1020A000101D8246274803900426504676424E442F
:1020B000361A3005400D844666461E489571064323
:1020C0009680029A94466544AA00A4181C4AA371FB
:1020D0002260019B039AE771A280A36092E701F05E
:1020E00021FC002553465D5756E7101D8246908817
:1020F0004005001584464046D44466460430201806
:10210000301AE0260005400D360230430390CBE73D
:1021100001F008FC59E7C046240100D0BE1C002095
:10212000240E002000ED00E0CD01001000A1FFFF13
:10213000540E002000E0FFFF01BDFFFFAAAA00002F
:102140000148804701BD0000F0B5DE4657464E46C7
:102150004546E0B50C0083B0EFF3108972B6584ADB
:102160001368002BFCD0BFF35F8F564B9A680300B7
:1021700010339F00D559544A9046954232D0A5421B
:1021800043D0524EAA1B2F2A2CD8012282409246BD
:1021900051464F4A12681140019151464D4A116013
:1021A000BFF35F8FEFF305829346002A33D10123FB
:1021B0002A009A4393689C4208D177E04B005B1851
:1021C0009B00F3189968A1422AD01A0006215156A3
:1021D0000029F3DA019B002B19D052463E4B1A60BE
:1021E0003B4B1A60374B9B68DD51BFF35F8FBFF3EA
:1021F0005F8F0022324B1A6089F3108803B0F0BC65
:10220000BB46B246A946A046F0BD1500EAE75246D5
:10221000304B1A60E6E79342C9D001F083FBC6E772
:1022200006215956002921DB4A0050188000341835
:102230008046A0689860E079D87106202056987191
:10224000002824DBA488F01A6405241544440019EE
:10225000E0240005400D2402204398801F4B5218B3
:1022600018789200B21890711970B3E75946002996
:102270000FD1FF3191711A49918018490A789A71EA
:10228000184A9B1B5B415A43120D0A70A2E716487D
:10229000E3E7164A1649D21A083A5002400D0143A4
:1022A0009980144952080A43DA8093E7062151566F
:1022B00013000029B8DA5A46002AEAD14546DCE77D
:1022C000240100D000ED00E0CD010010240E00201C
:1022D00000E100E080E100E080E200E0BE1C0020C0
:1022E00001BDFFFFAAAA000001BD00005E0E002094
:1022F00000F0FFFF00F8FFFF70B5EFF30581012448
:102300000443EFF3108C72B6214A1368002BFCD003
:10231000BFF35F8F1F4B05001F4AED1A6D416A43E3
:10232000120D1E4D8900AE6852B27658A6421CD0DE
:102330000621595691421CD012215956914222D061
:102340001E215956914220D02A21595603249142E8
:1023500010D0134B19781A708171BFF35F8F002270
:102360000B4B1A608CF3108870BDAB680D4C5C5041
:10237000EFE700246100091989005B18FF219971BA
:1023800009499980E5E70124F4E70224F2E7C04611
:10239000240100D0240E0020AAAA000000ED00E0D5
:1023A000BE1C0020CD01001001BDFFFF054B064AF9
:1023B0001360064A136053609360D36013615361E6
:1023C000936170478080808000E400E004E400E0D6
:1023D00010B5084B084C82B0010000930022052381
:1023E0002000FFF7C7FC002801DB1F23181A02B0EA
:1023F00010BDC046D08D0010C31C0020024B9C466F
:1024000061448900016070474000003410B5040049
:10241000FFF728FD01002000FFF7F0FFFF232371E5
:10242000BFF35F8F10BDC04610B50400FFF71AFD63
:1024300001002000FFF7E2FFFF23A380BFF35F8FBF
:1024400010BDC04610B504000120FFF717FD044B76
:102450009C46604480002060BFF35F8F10BDC04683
:1024600040000034034B9C46614489000160BFF387
:102470005F8F70474000003483680B4810B5844676
:10248000614462441201090159189B185C684A684A
:102490000120944201D802D00020C0B210BD1A68B9
:1024A0000B689A42F9D8F7E7FFFFFF0F0A4B19684C
:1024B000EFF3108072B60A68002AFCD0BFF35F8F7A
:1024C0001B68BFF35F8F00221A6080F3108840BF43
:1024D000002000217047C046841C0020F8B55746F4
:1024E00045464E46DE46E0B599460CAB1C780DAB32
:1024F0001B78070090469A460568002C44D1AC7BB7
:10250000002C3BD0660029683619033E89194B78A8
:10251000AB73002B00D1EB7300238B704B700B70EF
:102520002E4BE218BB6812019B1842461A604A46BD
:102530005A600A9A9A600B9ADA6000238B704B708B
:102540000B706B7B9B46002B32D022005946A8684B
:102550006B68984700281DD05B46584629685B0089
:102560005B448E19033BB070CA18CB5C002B00D0C3
:1025700073705B4614706B735C451AD0F0BCBB463D
:10258000B246A946A046F8BD660029683619033E42
:102590008919C5E75B465B002A685B44033BD31897
:1025A0009C709119925D002A00D05A705B460B70A6
:1025B0006C7342464B46387D00F008FC051E02D085
:1025C0005346002B04D00E9B002BD7D01D70D5E7AF
:1025D0002100386800F024FEF5E7C046FFFFFF0F3A
:1025E000F0B5DE4657464E4645460023E0B58BB073
:1025F0000893694B8200D45800239B46099000F051
:102600005BFB626806000F00EFF3108572B613687B
:10261000002BFCD0BFF35F8F23689C465B7B994601
:10262000002B00D168E0A2685C4B90464B441B0134
:10263000984443461A685B6810001900801BB94132
:10264000002900DC62E0099800F0C0FB00230022B2
:10265000984600230692079300239A466368BFF3C7
:102660005F8F5A461A6085F310885346002B08D1B5
:102670000028C4D10BB0F0BCBB46B246A946A04668
:10268000F0BD089B414618024B461843D04762688C
:1026900006000F00EFF3108572B61368002BFCD014
:1026A000BFF35F8F002F4FDB33003B4302D0236922
:1026B000002B65D12368D97B002906D01A68480011
:1026C000411852184946033A51709A7B002A01D1A9
:1026D0004A469A734A46DA734B46E168013BCA5C44
:1026E0000132CA545B4623616368BFF35F8F5A4669
:1026F0001A6085F3108882E70023002298460023A1
:1027000006920793002300209A46A7E7002902D1EA
:10271000002800D097E70021604600F0FFFC434608
:102720001A685B680692079343469B689A4643463D
:10273000DB689846E3684B44013B1B7808931B0217
:1027400003432361002089E72369002BB2D0069A56
:10275000079B8021921BBB4109068B4202D30122B9
:102760000F4B52425946049101210391494602916F
:1027700041460191514620000091FFF7AFFEB1E7BD
:1027800000F09AFA32003B0012184B4180210906F2
:102790008B42E7D3E3E7C046601C0020FFFFFF0F3A
:1027A000FFFFFF7F10B5144C6368002B04D00A2193
:1027B0001248FFF723FE10BD2300114A10212068A4
:1027C00000F0C0FB032000F06BFA032000F068FB70
:1027D00003200C4900F0B4FAFFF744FB0A4B9C4677
:1027E00003232375D0231B061B6860446375074BC6
:1027F00080006060DC60DAE76C0E0020841C002042
:1028000079240010E125001040000034601C0020F5
:10281000004870476C0E0020F0B557464E46DE4625
:102820004546E0B585B0019310AB1B7807000393D4
:1028300000239A46994600927A68EFF3108B72B69D
:102840001368002BFCD0BFF35F8F3D68AC7B002C7E
:1028500000D17CE066002B683619033E9B195A783C
:10286000AA73002A00D1EA734A4AA118BA6809017A
:10287000521800980199106051600E9991600F995B
:10288000D1604A469A705A701A706B7B9846002B3A
:1028900000D16CE022004146A8686B689847002888
:1028A00057D04346404629685B0043448E19033B9A
:1028B000B070CA18CB5C002B00D073704346147004
:1028C0006B73444554D0FB681B19013B18787B6837
:1028D000BFF35F8F4A461A608BF31088002C56D0E6
:1028E0005346002B08D10002204305B0F0BCBB4684
:1028F000B246A946A046F0BD039B002B45D00E9BD7
:1029000000200F999847030004000D000B433CD0B2
:10291000002911DA009A019B121BAB41009201932E
:1029200080221206934204D301231B4C5B42009386
:102930000194039B9A467FE700F0BEF98022241899
:102940004D411206009401959542F2D3ECE7002028
:10295000BDE743465B002A684344033BD3189C70A1
:102960009119925D002A00D05A7043460B706C7327
:10297000387D009A019B00F029FA82460028A2D0F7
:102980002100386800F04CFC9DE70020ADE70120F5
:102990004042AAE7FFFFFF0FFFFFFF7FF8B50400EB
:1029A000002931D04268EFF3108572B61368002B0E
:1029B000FCD0BFF35F8F2068CEB2437BB34215D00B
:1029C000FF220A4003685700BA189B18033B9B7804
:1029D000002B0BD12269914218D000206368BFF30D
:1029E0005F8F00221A6085F31088F8BDFF230A0A62
:1029F0001940E368D2B25B18013B19789142ECD1DF
:102A0000310000F00DFCE9E70020EEE72361E4E788
:102A1000407D7047F0B504000D0006267642F7179A
:102A2000C64636196F4100B584B08F4214D811D014
:102A300000F042F932003B00121A8B41002B15DCEA
:102A4000002B3ED02000290000F06AF904B080BCC1
:102A5000B846F0BD8642EBD90026002700F02CF9DD
:102A600032003B00121A8B41002BE9DD0023029358
:102A70000193154B3200009314483B00FFF7CCFE46
:102A80000028DFDB00239846BC46114A114F7B6AC1
:102A90009C4504D8B96A8E42D4D99C45D2D11168DC
:102AA000EFF3108072B60B68002BFCD0BFF35F8F82
:102AB0001368BFF35F8F4146196080F3108820BF11
:102AC000E5E7002ABED0D1E7AD2400106C0E00204F
:102AD000841C00200040054070B5060000F0ECF8B2
:102AE000FA2204000D00002330000021920003F0C0
:102AF000ADF88023001969411B06994202D30120D9
:102B000002494042FFF786FF70BDC046FFFFFF7FCE
:102B1000F0B5EFF30583CE46474680B505000C00BF
:102B200085B0002B12D02C4A0020536A9C4203D857
:102B3000926A0130AA4204D305B0C0BCB946B0467F
:102B4000F0BDE31A5A1E9341D8B2F5E7234E029323
:102B50000193234B0200009330000B00FFF75CFE53
:102B6000031EE0DD20BF7168EFF3108772B60A68BC
:102B7000002AFCD0BFF35F8FDAB294463068427B04
:102B800062451CD0FF2201681A40894651008846E0
:102B900049469044414403398978002912D0F168AC
:102BA0001B0A8A18013A1278DBB29A420FD0736876
:102BB000BFF35F8F00221A6087F31088B3E7FF220C
:102BC0001A40ECE732699342F1D13161EFE7614697
:102BD00000F026FBEBE7C046004005406C0E0020ED
:102BE000AD240010F0B5EFF30582D6464F464646B9
:102BF0001000C0B51038EFF3108872B6214C23686E
:102C0000002BFCD0BFF35F8F0123190081401E4DC4
:102C10001F006963AA461D4D29601D4D2E78AC46E4
:102C20003500C5402F402B4209D1BFF35F8F27608D
:102C300088F31088E0BCBA46B146A846F0BD5346BA
:102C40005F6A144B8500EB589F420ED36246124BCD
:102C50008E43EB581670BFF35F8F0022226088F31B
:102C60001088002BE6D09847E4E70C4B92009C4676
:102C7000624413681360BFF35F8F0023236088F3FF
:102C80001088D7E7280100D0004005403C7005407F
:102C9000C21C0020901C002074160020D03F05406C
:102CA00010B5034B01001800024AFFF741F810BDB0
:102CB000BB1C0020EC8D0010034B596A0A00986A77
:102CC000596A8A42FAD170470040054070B5040045
:102CD0000D00124A536A1900966A536A8B42FAD160
:102CE0003000190024184D41AB4211D80ED02B00F2
:102CF0000A494A6A9A42FCD307D1084A02E0516A5B
:102D0000994202D1916AA142F9D370BDA642EED98F
:102D1000012301246442E5175B42E9E700400540D6
:102D2000064A536A9942FCD807D1044B02E05A6A1A
:102D3000914202D19A6A8242F9D37047004005401D
:102D400070B504000D00EFF3108672B61A4A1368CE
:102D5000002BFCD0BFF35F8F002D1BD02000FFF7AE
:102D6000CFF8164981420AD02000FFF7D1F801219F
:102D70002000FFF795F80123A340114A1360114B7F
:102D8000A400E550BFF35F8F00220B4B1A6086F35F
:102D9000108870BD0121A1400A4BA200D5500A4BFA
:102DA00020001A788A4305491A70FFF7CDF90021EF
:102DB0002000FFF775F8E5E7280100D0E52B0010AB
:102DC0003860054074160020C21C0020F0B54F4644
:102DD000D6464646C0B507002C4C616A0D00A66A6F
:102DE000616AA942FAD18B4208D805D00120E0BC23
:102DF000BA46B146A846F0BDB242F7D9EFF3108A01
:102E000072B6234801680029FCD0BFF35F8F01250B
:102E1000BD4020491D4C8846097889462943C9B2DE
:102E20008C46414660460870391D890065630A5129
:102E30001949B8004350216A0020294219D0616A1B
:102E40000800A66A616A8142FAD18B4219D801D181
:102E5000B24216D8CC4516D00C4B1F221D625D63C2
:102E600001233A4093400D4A0120136043464A46ED
:102E70001A70BFF35F8F0022054B1A608AF3108827
:102E8000B5E70020F5E70120F3E7C0460040054024
:102E9000280100D0C21C0020901C002080E200E02D
:102EA000EFF3108C72B60A490B68002BFCD0BFF30D
:102EB0005F8F01238340074A0748136202789A43D1
:102EC0000270BFF35F8F00230B608CF31088704794
:102ED000280100D000400540C21C002070B505004C
:102EE00014001600002915D00C00002A12D08068AA
:102EF0006B689847296800280ED073009B19620000
:102F0000033B1219CB18033A9C7088188A5C002A7C
:102F100015D10670200070BD63001B197200033BC1
:102F20009219CB18033A9E7088188A5C002A02D145
:102F300004703400EEE75A7004703400EAE75A7007
:102F40000670E7E730B583600023CCB243730133EA
:102F5000047342608373C4730D000068012C06D9AA
:102F6000421C0133DBB2137003329C42F9D1FF21C2
:102F700029404B005B18C01800230338437030BD54
:102F8000F8B505000C1E07D0630001681B19033B50
:102F9000CB185A78002A01D12000F8BD50008018C3
:102FA0000338091800204F78487021005870280015
:102FB000FFF794FF390006002800FFF7E1FF040047
:102FC000002EE9D0002826D031002200A8686B68C6
:102FD0009847296800280FD063001B197200033B33
:102FE0009219CB18033A9E7088188A5C002A00D088
:102FF0005A7004703400CFE773009B196200033BE2
:103000001219CB18033A9C7088188A5C002A00D0E9
:103010005A700670C0E73400BEE7C046F0B55746A8
:103020004546DE464E46E0B50D006B0001685B1973
:10303000DF1E0400C85D83B00192CA19002850D079
:1030400043001B18033BCB185E78B446002E1AD100
:10305000019E002E42D0E67B002E04D073009B1907
:10306000CB18033B5D70A37B002B00D1A573E573E8
:1030700000282FD10023537003B0F0BCBB46B246EA
:10308000A946A046F0BD72006244033A8A185178FE
:103090008846002151708946597032000100200095
:1030A000FFF71CFF43468246002B07D05B002168D8
:1030B0004344033BCB185A78002A16D14246514666
:1030C0002000FFF70BFF2168019BCA19002BC2D11A
:1030D0000028CFD043001B18033BCB180021997068
:1030E000C8E7019B002BB6D1C4E750008018033815
:1030F0000918487883464846487058704146200071
:10310000FFF7ECFE594680462000FFF739FF4146A5
:1031100002002000FFF7E2FE8046CFE7F0B55746F9
:103120004546DE464E46E0B583B00191457B04003E
:103130006B0000685B19DF1EC15DC219002952D007
:103140004B005B18033BC3185E78B446002E1CD1BD
:10315000019E002E44D0E67B002E04D073009B1904
:10316000C318033B5D70A37B002B00D1A573E573EF
:10317000002931D1002328005370617303B0F0BCE3
:10318000BB46B246A946A046F0BD72006244033A6F
:103190008218507880460020507081465870320066
:1031A0002000FFF79BFE43468246002B07D05B00C2
:1031B00021684344033BCB185A78002A17D1424672
:1031C00051462000FFF78AFE019B01002068C219CA
:1031D000002BC0D10029CDD04B005B18033BC31896
:1031E00000209870C6E7019B002BB4D1C2E75000C5
:1031F0008018033809184878834648464870587044
:1032000041462000FFF76AFE594680462000FFF73E
:10321000B7FE414602002000FFF760FE8046CEE781
:1032200070B5040000292CD0437B8B422ED005685A
:1032300048004018033828188278002A21D053000B
:103240009B18033BEA5CEE188A4202D11BE0002A7D
:1032500008D053009B18033BEB185A788A42F6D1EA
:1032600042785A7000230122837043702000FFF7D8
:10327000D5FE617B02002000FFF730FE6073012065
:1032800000E0002070BD43783370EBE701221900A5
:10329000FFF7C4FE60730120F4E7C046F0B5454671
:1032A000DE4657464E46E0B583B001920C9A0500C3
:1032B00088469A4200D976E01A0E93461E023000E4
:1032C000002359460C9A01F0A7FE384B6C009C462F
:1032D0006419A400644463680700834200D26060FC
:1032E0002B1FDBB29946012B37D9C02380229B01CB
:1032F000234312011A602E4BAD0059599A460029FA
:1033000007D0586901F04AFE431C5800C018033822
:10331000FDD2019B22685B015340E0221A408023CA
:103320005B0123431A604A46012A2FD98023802259
:103330009B01234312011A60300000233A005946D2
:10334000676001F069FE53465851012003B0F0BC9C
:10335000BB46B246A946A046F0BD4346012BC4D1A8
:10336000C02303229B0123431A60023AA3681A4236
:10337000FCD0019B22685B015340E0221A4080236D
:103380005B0123431A600A4AAD0092464246216817
:10339000514003220A401A60012243469A40A36822
:1033A0001A42FCD0C2E70020D0E7C04600800040AF
:1033B0009817002010B50C2082B000F0B3F9FEF78A
:1033C00099FC00280ED08A4B8A4A1A605A609A608B
:1033D000DA601A615A619A61DA611A62864A5A623F
:1033E00002B010BD854CA06700F0F2F90122844BB9
:1033F0001A60636C012BFCD10322824B1A607F4A56
:10340000936B012BFCD1013301217F4A7F4800934C
:10341000043300F037F905237D4A009301217D48EC
:1034200000F030F97C4B5A68FF2A02D88022520003
:103430005A608022734B6E4C12011A602169002978
:1034400007D0606901F0AAFD013043001B18033B5F
:10345000FDD2E022704B714819680A4002600222D6
:103460001968514001320A40042102609A681142F1
:10347000FCD080216A4A09011160802252005A6002
:10348000684B2361684B5968FF2900D85A600322B2
:1034900001215B4B1A60644A93681942FCD0E02317
:1034A0001068034061480360126803234A40022108
:1034B00013405D4A036093681942FCD080215C4B45
:1034C0000901196080215B4B4900516063615A4BCF
:1034D0005A68FF2A00D859608022584B12011A609E
:1034E000E169002907D0606901F058FD013043000F
:1034F0001B18033BFDD2E0234F4A11680B40504993
:103500000B6080214F4B090119608021394B490024
:103510005160E3614C4B5A68FF2A00D85960802201
:103520004A4B12011A60216A002907D0606901F034
:1035300035FD013043001B18033BFDD2E023424A16
:1035400011680B4042490B608021424B0901196010
:1035500080235B0053608022264BD20223623E4BC5
:103560005968914200D25A6080223C4B12011A6085
:10357000616A002907D0606901F010FD0130430045
:103580001B18033BFDD2E023334A11680B4034493A
:103590000B608021334B090119608023DB025360EB
:1035A000154B6362304B5A68FF2A02D880225200C2
:1035B0005A6080222D4B12011A60A169002907D0A0
:1035C000606901F0EBFC013043001B18033BFDD2A6
:1035D000E023254A11680B4025490B608021254BCB
:1035E0000901196080235B005360124BA361F7E669
:1035F00098170020006CDC021BB700000080004020
:103600003CB0004030B00040002F685900800240BC
:10361000008C864700C0024030800040309000405F
:1036200030A00040001BB7003C8000403C900040B0
:103630003CA00040405973075480004054B0004003
:103640005490004054A000406080004060B00040B2
:103650006090004060A000406C8000406CB0004072
:103660006C9000406CA000404880004048B0004092
:103670004890004048A00040014B8000C05870476F
:1036800098170020F8B5040021481D0017000E000F
:1036900001F084FC0100380001F080FC069B290445
:1036A0001B0319432368002B20DB1A4B1A4DE21829
:1036B00053425A4180235B019C461203174B6244DC
:1036C0001A60174B1A601700AB689F43FBD1C022EA
:1036D000231D92011A4321232660A06013602368F2
:1036E000002BFCDA0823E1601360F8BD3F23226859
:1036F0001340B342D9D1A3681B051B0D8342D4D11B
:10370000EE22E368D20213408B42CED1EDE7C046F1
:10371000001BB7000040FDBF00C0004000E00040BB
:1037200000F000408023024A9B000343D3627047AD
:103730000080054010B5140080221C4BD2051A6091
:1037400000281AD001231A4A18431A4BDA611A4A80
:1037500042401A62596298628022144BD2051A6064
:103760001649174A1160E022D2041A60002C07D1D2
:103770008022144B12061A6010BD0E4BD861EBE785
:1037800063011B1B9A008023121912015B049A42E9
:1037900008D20D4B1A60074B5A608022094BD205A4
:1037A0001A60E9E7084B094A1A60F4E700B00540DF
:1037B000D3C007B0008005402D3FF84FFCFF01004B
:1037C0000820014000A00540381C0020FFFFFF003A
:1037D000AA23064A1B0113602F230549D360054B1A
:1037E00019605368002BFCDA7047C0460040024065
:1037F00000B0FA00006002402C4B2D4A70B51A60F0
:103800002C4A2D4B2D491A6014008B689C43FBD128
:103810002B4D2C4EB54208D2013E761BB60808CD82
:10382000984723000134B342F9D1FFF7C3FD264A7C
:10383000214B1A60214A9368DB43DB01DD09002B31
:10384000F9D14022214B224C224E9A675A671A67BF
:10385000DA66B44208D223682000002B20D0083456
:10386000FEF7E2FDB442F6D31B4C1C4EC022B168F9
:10387000200002F001FBB460FEF7E6FAFEF796FDC9
:10388000FEF790FF164C174EB44208D2013E361B8D
:10389000B60808CC98472B0001359E42F9D170BD7F
:1038A0000834FEF7B3FDB442D5D3DDE700E00040B5
:1038B000BFCDFBFEFE7F3C0000F0004000C000409A
:1038C000080F0020180F0020FFFFFF0100F001404B
:1038D000000F0020080F00200000002000ED00E095
:1038E000180F0020200F002000BEFDE710B5FFF7E5
:1038F000FBFFC0460FB400B5084883B002F022FCBD
:10390000049B002B07D005A91800019101F0CCFA07
:10391000034802F017FC0120FFF7E6FF108E0010AD
:10392000208E001010B50148FFF7E4FF248E001030
:103930007047C046F8B557464546DE464E46E0B5A8
:1039400098460A9B06009A460D9B0F009346150069
:103950009B0710D10B9B0C9A93420CD213005C4630
:103960000B9A9D1A5D442200434601343900202001
:10397000B047A542F7D10B9C6319002C09D01D005C
:1039800053462A1B013C185D39004346B047002CC2
:10399000F6D10D9B9B070ED55B46EC1A0C9BA34200
:1039A00009D999462A004346390020200134B047FE
:1039B0000135A145F6D82800F0BCBB46B246A94661
:1039C000A046F8BDF0B54F464646D646C0B584B0D1
:1039D00098460EAB1B78129F994694460D9C109BFF
:1039E000119EBA0725D4002E61D19C4200D3C0E0BD
:1039F00001223A4092461F2C00D9B9E00C9A551E7C
:103A0000302201E0202C03D001342A55A342F9D8FA
:103A10005246002A0DD0A6420BD90C9A551E3022D0
:103A2000202C02D155E0202C53D001342A55B44229
:103A3000F9D1FA062DD57A0554D4002C4ED10F9B1E
:103A4000102B00D188E00F9B022B19D030230C9A49
:103A5000012413704B46002B20D02D230C9A1355B4
:103A600001340C9B624600930397434602960194EF
:103A7000FFF760FF04B0E0BCBA46B146A846F0BD0F
:103A800001240C9A6033137030220C9B1B191A709E
:103A90000134202CE5D04B46002BDED17B0730D4FF
:103AA0003B07DED520230C9A13550134D9E70122B8
:103AB00015003D40AA463A421CD04A46002A2BD166
:103AC0000C323A4228D19C42A5D21F2C96D9202EE6
:103AD00015D92024FA06C4D57A0503D4A3421DD0F3
:103AE000B4421BD00F9B102B23D0022B0ED0202CC6
:103AF000B7D0C9E79C429CD21F2C00D87EE7202477
:103B000097E72B230C9A13550134AAE7202CA8D051
:103B10000C9B1B19013438E0013ED4E7631E012CD5
:103B200000D18CE70F9A102A25D0022A2AD01C0037
:103B3000AAE7BB0607D4202C93D00C9B1A1901349A
:103B400078231370D3E7202C00D18AE758220C9BEE
:103B50001B191A700134CAE7BB0604D478230C9AE7
:103B60000124137090E758230C9A012413708BE7FB
:103B7000202400265DE7023CBA06E7D40C9A12190D
:103B80001C00DDE70C9A9246534462221A70AEE79D
:103B900010B5002800D110BD02F088FAFBE7C0463E
:103BA0000B0010B5002802D049681B68984710BD6B
:103BB000F0B5DE4657464E464546E0B59BB09B46BF
:103BC000249B89469846259B0B900C924046424682
:103BD00019009A4601F0ABFC002800D0D8E0012281
:103BE00040465146774B524201F09CFC002800D0E1
:103BF000CEE0012240465146734B524201F07CFC1C
:103C0000002800D0C4E0002200234046514601F0C5
:103C100073FC002800D0B9E1424653460A9209934A
:103C20008023289ADB001A400E92289A1A4201D16A
:103C3000062326930A9A099B1600134300D0C7E077
:103C4000289B002500261B0500D49BE100230D9333
:103C5000269A0D9B9A4200DC9FE1D31A013B2693E2
:103C60008023289ADB001A430023002728920D9313
:103C7000279B0024BB4200D9DC1B0223289A1A4050
:103C80000E92289A134203D07B427B415B421C4038
:103C90000D9B002B07D00A9809992A00330001F0E8
:103CA000CAFB0A900991002200234046514601F0C8
:103CB00023FC002805D08020000684460999614431
:103CC0000991289A414B0B9D13400493269B0A9A15
:103CD0000293099B03940092019349465B46280096
:103CE0000C9A00F08BF90400002F62D0289B220070
:103CF00098061F23C0179843631C984649465B46A5
:103D00006530A8470D9A0025D317D4185C40D30F0F
:103D10009A46013F01E0202D13D00AAA94461F23A2
:103D2000200063440A2101355E1901F037F9303172
:103D3000317020000A2101F031F926000400092E1B
:103D4000E9D805230693002304930A3303935346CB
:103D500005970B9F029312AB009342465B46494680
:103D600038000195FFF72EFE0E9B0400002B20D09B
:103D70000C9BC51A279BAB421BD91E0022005B4639
:103D8000494620200135B8470134AE42F6D810E04C
:103D9000289B42460493279B49460393269B0B98F6
:103DA00002935346009201935B460C9A00F026F969
:103DB000040020001BB0F0BCBB46B246A946A0469A
:103DC000F0BDC046FFFFEF7FFFFFEFFFFFF7FFFFF4
:103DD000734B099F9C467800400D604401F0BAFB8C
:103DE000704A714B01F045FB704A714B01F01AFBB0
:103DF0003B03704A1B0B1A4304000D0030001100F6
:103E00006D4B002201F005FB6C4A6D4B01F031FB5C
:103E100002000B002000290001F004FB01F0B2FBBE
:103E20000D9001F097FB674A674B04000D0001F00D
:103E300020FB0022654B01F0F5FA01F0A3FB644A78
:103E40000600644B2000290001F013FB0400300041
:103E50000D000F9601F07EFB5F4A604B01F009FBFD
:103E600002000B002000290001F0D3FA02000B0031
:103E700006000F0001F0FDFA320004000D003B00C7
:103E80003000390001F0CEFA002210901191544B0D
:103E90002000290001F0CFFA0022524B01F0C2FAB3
:103EA00002000B002000290001F0C5FA00224E4B51
:103EB00001F0B8FA02000B002000290001F0BBFA63
:103EC0000D008021040032003B000020C90501F0F4
:103ED000A0FA02000B002000290001F0A3FA020062
:103EE0000B001098119901F0A6FA0022314B01F055
:103EF00099FA3E4B0F9C9C4664440022230501F036
:103F0000B8FA05000E0002000B000A98099901F0AA
:103F1000F3FA00280AD00D9B2800013B31000D93D5
:103F20000022304B01F087FA05000E00C6270D99DC
:103F30002B0063318F42BF4128997F420437090526
:103F400000D495E6334300D182E6099C284A21003B
:103F5000284B0A9801F0DEFA002808D00022210040
:103F6000254B0A9801F0C8FA002800D070E6269B7D
:103F7000002B00D17CE60E9B5A1E9341269AD31A41
:103F8000269375E6002304270D9371E643460A93B2
:103F900080231B065344099342E6002326935FE6E1
:103FA00001FCFFFFFB799F501344D33FB3C8608BE4
:103FB000288AC63F0000F03F0000F83F61436F636E
:103FC000A787D23F71A379094F930A400000E03FD1
:103FD0001655B5BBB16B0240EF39FAFE422EE63FF3
:103FE00000002C400000244000001840FF030000A7
:103FF0002D431CEBE2361A3F80842E41F0B54E462D
:10400000DE4657464546E0B597B09946209E219F2B
:10401000229B8346984607910C923B003200300069
:10402000390001F084FA002800D0ADE1012230000F
:104030003900CC4B524201F05FFA002800D003E176
:10404000012230003900C84B524201F06BFA0028BF
:1040500000D0D9E0002230003900C44B01F062FAF0
:10406000002800D0BBE0002230003900C04B01F036
:1040700043FA002800D0B2E00022002330003900CB
:1040800001F03AFA002800D0D3E000230D93249BDE
:104090005B0501D40623984608AB9C4617220024F2
:1040A00030234146624404E0013413550139202C89
:1040B00001D00929F8D888463000390001F062FAA9
:1040C0004246AC4BD2009B181A685B680500089208
:1040D000099301F03FFA02000B003000390001F0B3
:1040E00098F9089A099B01F0C4F90A900B9101F024
:1040F0006DFA824601F02AFA02000B000A980B9929
:1041000001F087F900229C4B0A900B9101F00AFA0A
:10411000002800D1E2E001239C46E244504601F031
:1041200015FA02000B000898099901F0EBF9002834
:1041300002D000239A4601354346002B00D18BE084
:1041400008AB17269C4608956644554614E00123A3
:104150005B4243440A2128009A4600F01FFF0134C5
:1041600030313719397028000A2100F017FF092D66
:1041700000D8D0E0D0460500202CE8D10EAB984600
:104180000323249A1340012B00D0E8E0239A202334
:10419000002A1DD00D9A002A00D0FDE024990C328F
:1041A0000A4215D0239A013A2392239A9A4200D8C0
:1041B00005E108AA9446172130226144202B07D03C
:1041C00023980133CA54834200D1E9E0202BF7D170
:1041D000249A01930392239A434602921EE0249B61
:1041E00058460493239B00960197039343460C9AE9
:1041F000029307994B46FFF7DBFC17B0F0BCBB46B8
:10420000B246A946A046F0BD249B5B070ED403220C
:104210005A4B249901920391239902910093584695
:104220004B460C9A0799FFF785FBE6E70422544BAF
:10423000EFE73B0032000020002101F0EAF8012303
:1042400006000F000D9322E7249B0393239B029308
:10425000042301934B4BE1E7280001F07BF90200B6
:104260000B003000390001F0D4F8434B0022060067
:104270000F0001F041F90EAB984600280AD1002248
:10428000300039003C4B01F04DF9002802D1EB071A
:1042900000D50135202C00D172E708AA94461723D7
:1042A000280063440A2101341E1900F04FFE30310A
:1042B000280031700A2100F049FE051EEAD10323CF
:1042C000249A1340012B6DD0202C48D00D9B002B3D
:1042D00014D02D224146631C0A5579E700220A9822
:1042E0000B99254B01F008F9002800D024E753462C
:1042F000002B30D101239C46E2441DE7249B5B0741
:1043000024D4249A2300120700D461E720224146D6
:1043100001330A555CE75746089D202C00D12DE754
:10432000220030214046002F09D00132B154202A0A
:1043300000D123E7831A013BE318002BF5D10EAB24
:1043400098462E234146541C8B54A3E72B2241460A
:10435000631C0A553CE7DB0700D4EDE6CAE72023DF
:1043600036E7C046FFFFEFFFFFFFEF7F65CDCD4192
:1043700065CDCDC1E88F00100000E03F388E001001
:10438000308E0010408E0010249B0393239B0293D9
:10439000032301930C4B41E7239A013A239217E739
:1043A000040091E7239B002B8ED00D9B002B08D19E
:1043B0000C2224992300114200D1F6E6F2E61C00FB
:1043C00082E72300EEE6C0463C8E0010F0B5DE46E4
:1043D00057464E464546E0B5A1B01C002A9B924682
:1043E0000993B94AB94B81468B461A60002900D11E
:1043F0002BE120780027002800D12DE1B44B5E4648
:104400000893B44B0C9309E03A00534631007D1CED
:10441000C8472F0001342078002871D02528F3D117
:1044200010239B460C3B9846023B00229C460134DD
:10443000207825000300203BDBB2102B03D808991D
:104440009B00CB589F460300303B092B6BD90023C0
:1044500098462A2800D18AE000230A932E2800D10A
:1044600076E00300683BDBB2122B1CD89A499B0014
:10447000CB589F46012301341A43D9E763460134E0
:104480001A43D5E7434601341A43D1E75B4601346A
:104490001A43CDE7082301341A43C9E780235B00A0
:1044A00068781A43013567280AD824281DD90300E3
:1044B000253BDBB2422B18D80C999B00CB589F466A
:1044C0000300693BDBB20F2B0FD80121834C9940CD
:1044D000A4460C400B946446214200D002E20A2B11
:1044E00000D1E1E0072B00D1B8E07B1C98463A00F0
:1044F000534631006C1CC8472078474600288DD1B0
:10450000B3463C00BA4501D853465F1E53463A00B5
:1045100059460020C847200021B0F0BCBB46B24637
:10452000A946A046F0BD002301009800C01801353F
:10453000400040182978030008003038303B092833
:10454000F3D99846002308000A932E2800D088E764
:1045500080236878DB001A430300303B691C092B79
:1045600000D807E12A2800D116E10D0079E7099B60
:1045700002CB8846002903DB60780993651C6BE752
:1045800002210A4341464942884660780993651CE6
:1045900062E768786C2800D123E280235B001A432D
:1045A000013580E780239B0068781A4301357AE75C
:1045B0006878682800D11AE2802301351A4372E72F
:1045C000462800D18BE10721099B0492424607331C
:1045D0008B43190003920A9A484602920CC9009232
:1045E000019309913A0053463100FFF707FD6C1C17
:1045F000070010E77B1C98463A00534631002520FF
:10460000C84747466C1C06E7920700D431E2099B75
:104610003A0001CB31009B46C0B25346C8474346DF
:104620007C1C4744012B00D8FBE2A8464D462200E3
:104630005346013431002020A847BC42F7D1A94697
:104640005B46454609936C1CE5E6254B2078994668
:104650000027002800D0D1E6002453E7099B190069
:1046600008C98846002B00D1A6E021210A439346C1
:1046700010A98C461F220F21624409958C46150013
:104680000B9C02E0202C0CD0130060461840010067
:104690003731092800D80739013429551A090F2B59
:1046A000F0D8099D0B9490E0099B02CB12930A9BD2
:1046B0008B46002B7AD108780221494200281AD073
:1046C00001315C4659440FE0CD430010341C0020FA
:1046D000488E0010D88E00108C8E00104190000083
:1046E000313900108C4203D063780134002BF9D1AA
:1046F0005B46E31A0B9380231100DB0019400991FC
:104700001A4204D00A9B0B99994200D90B930223B9
:10471000190011400D91134200D18BE1002800D106
:1047200073E1099B002B00D142E10A9B3A009C46B1
:104730005B46BC44DB1B64469B464B460994A9463A
:104740001D0009E053463100571CA8475B46D85D61
:10475000002800D155E13A009442F3D12B004D4698
:104760009946099F0D9B002B00D04EE1129B6C1CBB
:10477000099350E6002304009800C018013140005E
:1047800000190C78030020003038303B0928F3D999
:1047900020000D000A9364E6099B023501CBC1435A
:1047A000C91708400A90099328785AE60878002823
:1047B000A1D00A9B591E83E71021100088431131B4
:1047C00008438346520500D452E75B46069308230C
:1047D00005930A9B3A00049310230393002302934A
:1047E0000B9B3100019318AB009348465346FFF7EB
:1047F000E9F8434607006C1C09930CE620230100EE
:104800009943472904D180231B011A43022398436B
:10481000452801D120231A430721099B04924246CF
:1048200007338B43190003920A9A484602920CC937
:104830000092019309913A0053463100FFF7B8F90D
:104840006C1C0700E7E5622800D1F6E16F2800D173
:1048500032E1582800D1CFE010239A43063B0D9354
:10486000692800D024E10B92530546D501230B9A09
:104870009A430B92692840D064283ED00B9A80233B
:1048800011009B0019408B461A4200D0DCE18023C6
:1048900014005B001C401A4200D07BE213005B0650
:1048A00000D48BE1FF22099B02CB11408B46099378
:1048B0005B46002B00D08CE10B9A1033110099431A
:1048C0000B91520500D484E100240B9B06934346D0
:1048D00005930A9B04930D9B0393002361E120231E
:1048E0001A4370E610230D937828ACD10C231100E5
:1048F00099430B915205B9D4BCE70B9A8023110060
:104900009B0019408B461A4200D0D8E08023140047
:104910005B001C401A4200D0E2E113005B0600D5A8
:1049200027E1130009991B0600D495E208C91BB2C0
:10493000D8171A18424092B209919346DA0F13928F
:10494000002B09D1802310220B99DB000B409143EF
:104950000B91002B00D01BE10B9A6123920600D52E
:104960004123DBB210A90A3B1F228C461293434617
:104970006244A84614970D9D5F461593B3461600F2
:104980000AE03033DBB201343355AF4200D24EE19E
:10499000202C00D14BE107002900380000F0FEFA7E
:1049A000CBB20929EDD9129A94466344DBB2EAE707
:1049B0005B46DB1B9B460B9B4C4699465346AA46DF
:1049C0001D003A002B003100A0475B460137D85D3F
:1049D0000028F6D14B460B932B00A14655469A462C
:1049E000C0E6C0239B00A8781A4302355BE5C023CC
:1049F000A8781A43023556E520231A43103B0D933D
:104A000074E72B004D469946ACE60B9BBB46984598
:104A100000D8ABE647445C46A8464D46FF1A220044
:104A20005346013431002020A847BC42F7D1A946A3
:104A300045469BE60B9A531C904500D822E243461C
:104A4000DB199C1A4B46A9461D003A005346013714
:104A500031002020A847A742F7D12B004D469946A8
:104A6000434601330B935B461878002800D058E684
:104A70007CE64346012B00D802E27C1E4444A84653
:104A80004D463A005346013731002020A847A7423F
:104A9000F7D1A9464546099B220001CB3100984633
:104AA000C0B25346C8474346671C09936C1CB2E426
:104AB000642800D1D7E619E708230D9316E70722EB
:104AC000099B07339343013294469C446246099202
:104AD0000CCB9C46DB17109311931098119903008F
:104AE00053400E9364460B0063400F930E9B0F9C44
:104AF0001B1A8C410E930F946346DB0F1393002314
:104B00009B4663461A433BD00B9A6123920600D51D
:104B10004123DBB20A3B1293434610A91F228C4665
:104B2000002415934B466244B1461497169527000E
:104B30000E9C0F9D90460D9E17930CE03032D2B222
:104B400043460137DA55AB4500D177E1202F00D13C
:104B500077E104000D00320000232000290000F05E
:104B60005BFAD2B2092AE9D9129B9C466244D2B2BE
:104B7000E6E7FF22099908C913401A000991DCE60B
:104B80000B9A10231100994300240B915205BBD5B9
:104B90000B9B0693434605930A9B04930D9B03933B
:104BA000139B029318AB3A000194009331005346D3
:104BB0004846FEF707FF6C1C07002CE413001B0699
:104BC00000D458E1099B04CB1204120C93460993BC
:104BD0006EE60B9A6123920600D5412310A91F228D
:104BE0008C46DBB262440A3B139714965F4616006C
:104BF000AB4612930D9D08E03033DBB201343355E0
:104C0000AF421DD3202C1BD007002900380000F034
:104C1000C5F9CBB20929EFD9129A94466344DBB2A5
:104C2000ECE75B46270009936C1CFFF7F4FB159B30
:104C300045465E469846149FAAE702230D9355E623
:104C40005D46139F149E40E60722099B073393435A
:104C5000013294469C44624609921A685B681000CF
:104C60009B4613005A46134307D10B9A1033110089
:104C700099430B91520500D526E60B9A61239206C3
:104C800000D54123DBB210A90A3B1F228C461293A8
:104C9000434662441397159500245D460700B346CA
:104CA00090460D9E14930DE03032D2B2434601344B
:104CB0001A550023AB4200D1D4E0202C00D1D4E01F
:104CC00007000D00320000233800290000F0A4F98D
:104CD000D2B2092AE8D9129B9C466244D2B2E5E7D7
:104CE000099B1A0008CA1592DA179C185440DA0F6B
:104CF0001492002B08D1802310220B99DB000B406B
:104D000091430B91002B2BD10B9A6123920600D576
:104D1000412310A91F228C46DBB262440A3B129742
:104D200013965F461600AB4609930D9D08E030339D
:104D3000DBB20137F355AC420ED3202F0CD0040068
:104D40002900200000F02AF9CBB20929EFD9099AED
:104D500094466344DBB2ECE75D46139EBB46129F6C
:104D60000B9B3A000693434605930A9B310004933C
:104D70000D9B48460393149B6C1C02935B46019366
:104D800018AB00935346FEF71DFE159B07000993D1
:104D9000FFF741FB099B10CB1493002C08D1802313
:104DA000DB0011001340102291430B91002B2BD1FB
:104DB0000B9A6123920600D5412310A91F228C462D
:104DC000DBB262440A3B129713965F461600AB466D
:104DD00009930D9D08E03033DBB20137F355AC4247
:104DE0000ED3202F0CD004002900200000F0D6F8AC
:104DF000CBB20929EFD9099A94466344DBB2ECE7B8
:104E00005D46139EBB46129F0B9B3A00069343469A
:104E100005930A9B310004930D9B4846039300239E
:104E200002935B46019318AB00935346FEF7CAFD0D
:104E3000149B070009936C1CFFF7EDFAA64200D8FB
:104E400084E6159B0E940F959846179B3C004E46A2
:104E5000169D9946149F9BE608C9D8171A18424018
:104E600009916AE5BE4200D827E7149B5E46984642
:104E7000139F159D29E5099B04CB9346099317E5DC
:104E80003C0008E60B93F0E500B585B003910121E5
:104E900002900093034813004A4202A9FFF796FAD2
:104EA00005B000BDA13B001010B5094A030014680D
:104EB00084B0002C08D0012200910648524203A978
:104EC000A047012004B010BD01F03CF90020F9E733
:104ED000341C0020913B001001480421014B18476D
:104EE000A00E0020094F0010142310B501001888EF
:104EF00004331B88984710BD162310B5010018888D
:104F000002331B88984710BDF8B54746CE4680B59A
:104F10000F1E19D0142399460433040000250126DE
:104F200098464B461888434621681B88984701C419
:104F3000431E9841013540420640AF42F1D1300056
:104F4000C0BCB946B046F8BD0126F8E7124A936FD7
:104F50009B0815D29066D166002905D0FFE7FFE7D0
:104F6000FFE7516F106F704704B580210906C21723
:104F70005140002800D0C84303F032FE002104BD98
:104F8000F0B5146E556E576F166FFFF7E3FF14669A
:104F9000556657671667F0BD000000D0114A936F41
:104FA0009B0813D210665166002905D0FFE7FFE782
:104FB000FFE7516F106F704704B5002801D0002043
:104FC000C04303F00DFE002104BDC046F0B5146ED1
:104FD000556E576F166FFFF7E5FF146655665767F6
:104FE0001667F0BD000000D094464A4A926F9208BE
:104FF000624601D228E0C046F0B5464E346E756E6A
:10500000776F366F00F020F89446424A1466556672
:10501000576716676246F0BD94463E4A926F920803
:10502000624601D254E0C046F0B53A4E346E756E19
:10503000776F366F00F04CF89446364A1466556622
:10504000576716676246F0BD002B24DB11D000299C
:105050003EDA00B5C943404200D1013100F038F8D2
:10506000C943404200D10131DB43524200D10133F8
:1050700000BD002AEBD1002801D1002905D0002075
:10508000C90FC90701D1C043410800B503F098FD1D
:105090000022002300BD00B500290ADBDB43524299
:1050A00000D1013300F014F8C943404200D101316E
:1050B00000BDC943404200D10131DB43524200D11F
:1050C000013300F005F8DB43524200D1013300BD4B
:1050D000002923D1002B18D1002A0CD0BC460D4F3B
:1050E00038667A6600210023FFE7FFE7FFE77A6F63
:1050F000386F67467047002801D00748010000B5A7
:1051000003F05EFD0022002300BD02000B00002022
:1051100000217047000000D0FFFFFFFF002B00D0F0
:10512000BFE0130C28D1002AE7D080B4114F3966B4
:105130007A66FFE7FFE730B4040C7B6F396F1B041E
:1051400023433B667A66FFE7FFE7FFE7C04684B28A
:105150007B6F3D6F1B0423433B667A66FFE7FFE7E7
:10516000C04600232C042D0C7A6F386F001969415A
:10517000B0BC7047000000D0F0B594460025140E76
:1051800001D112020835140F01D112010435940F18
:1051900001D192000235D40F01D152000135D40B58
:1051A0000134254F7C66254C3C660E0C93B2FFE71C
:1051B000FFE7FFE73C6F6643360C7703BE46734359
:1051C000DF0B5B04C01AB941130C7343DB18C91A17
:1051D000CE086643360CB64493B273431F0F1B01CF
:1051E000C01AB941130C73431F0B1B05C01AB941F8
:1051F000860D8F023E436643360C092D24DB520A8E
:105200007243801A7703460A6643360C16235B1BEB
:10521000DE40DF40BF1964466643821B704604359A
:1052200006330100D940A840C01900D30131A24281
:1052300006D20023F0BD0000000000D0FFFFFFFFFA
:10524000121B0130F3D3F1E709277F1BFE406446B0
:10525000A2B27243801A00D20139220C7243130C9D
:105260001204821A99410B0070460435133701006D
:10527000F940A840801900D30131002B02D1A2428D
:105280000AD2F0BD013000D30131121BFAD2013B2A
:10529000F8D1A24200D2F0BD013000D30131121B7F
:1052A000F7E7F0B51C0C00D080E00CB400251C0A18
:1052B00004D11B02160E3343120208351C0B04D115
:1052C0001B01160F3343120104359C0B04D19B00C4
:1052D000960F334392000235DC0B02D192185B41EA
:1052E00001351C00971864410134464F7C66464CDA
:1052F0003C660E0CFFE7FFE7FFE7C0463C6F6643E6
:10530000360C7703BE4697B27743C01B00D20139F3
:10531000C01B00D201399FB27743C91BC91B170CB0
:1053200077437E04FF0B801BB941CE086643360CE1
:105330000C2D33DBB644120B1F053A431B0B97B2FF
:105340007743C01B00D201399FB27743C91B170CAA
:1053500077433E043F0C801BB941860D8F023E43CC
:10536000664329277F1BFE400C3D7746AF40BF199F
:1053700030BCA2B2ABB272437343801A9941220C83
:105380007243130C1204801A994102000B0001377A
:10539000001BA941F9D2781E0021F0BD0C277F1B0C
:1053A000FE4077467F0BAF40FF19E0E700245D1C0D
:1053B00007D0144F7D663966FFE7FFE7FFE7FFE799
:1053C0003C6F95B29EB265436643401BB141150CDC
:1053D0001E0C6543664336042F0C3E432D04401BD0
:1053E000B141994204D202000B0020000021F0BD1F
:1053F00001D19042F7D3801A994101349942F2D3F6
:10540000F6E70000000000D0FFFFFFFF48404140EA
:10541000484018B41B4B5B68FC46019308BD04DF91
:10542000C356001018B4174B1B68FC46019308BD07
:1054300000DFCD5600109446134A926F920809D2AD
:10544000624618B40F4BDB68FC46019308BD0CDFC5
:10545000855900100C4AF0B5146E556E576F166FD3
:105460006246FFF7EEFF084A1466556657671667EF
:10547000F0BD18B4034B9B68FC46019308BD08DFE0
:105480002958001028100020000000D0FFB550401F
:105490004240504059404B40594000E0FFB5154F45
:1054A0004C00640D03D0BC4204D10C0314D800207E
:1054B000090D09055C00640D03D0BC4204D11C0336
:1054C0000AD800221B0D1B0501264B4009D44B4076
:1054D00003D58B4200D18242FFBD9942FCD190425C
:1054E000FFBD0B43DB1803431343F5D0C9434918F1
:1054F000FFBD0000FF07000000B5FFF7CFFF8041B0
:1055000000BDC04600B5FFF7C9FF01D9002000BDAE
:10551000012000BD00B5FFF7B9FF01D9002000BD93
:10552000012000BD00B5FFF7B1FF804100BD0120A3
:1055300040054A00121804D85A00121801D8002059
:1055400070470120704700207047000000210028AC
:1055500005D17047C1174840401AFAD0C90713B5A2
:10556000064B1B6898470CBC441CA2401005120B4C
:105570000349091B09051943114310BD801C002074
:105580001F04000010B54C00620D8023D218DB0010
:10559000D21A5B057E2A10DD9E3A13DACC17090376
:1055A000490819435242D140640001341532202A7F
:1055B00005DAD0400843604310BD002010BD084606
:1055C000604310BDC80FC018013810BD18B4044B9B
:1055D0005B6AFC46019308BD24DF355B00100000C8
:1055E0002810002018B4044BDB6FFC46019308BD63
:1055F0007CDFB55B0010000028100020132370B57D
:105600001D78012D15D010DD1C48FFF775FC1C4CD2
:1056100001008022200000F02FFC022D06D0194846
:10562000FFF762FC184B186070BD154C174BA36454
:10563000F5E7164B124C23606360A360E3602361BF
:105640006361A361E36123626362A362E362236334
:105650006363A363E36323646364A364E364236514
:105660006365A365E36523666366A366E3662367F4
:105670006367A367E367A364D1E7C04653440000B0
:10568000281000204C330000801C00209156001090
:1056900007B5604601880A0A0230DF2AFAD1C9B28A
:1056A000820804D3028840880004104300E00068A8
:1056B000014A5050039007BD281000200FB403BCCE
:1056C0000CBCF0B50124E407634000E0F0B50C0D1C
:1056D000CF0F661E3605891B640503D3C9434042BC
:1056E00000D30131640D03D0661CF60A07D0E41B19
:1056F00000207F00791C89078912803C24031D0D3E
:10570000DF0F6E1E36059B1B6D0503D3DB43524234
:1057100000D301336D0D03D06E1CF60A07D0ED1BCC
:1057200000227F007B1C9B079B12803D2D032F1BBB
:10573000661B58D4A446202E46DA20371400BC40FD
:105740001D00BD40F24033412A4380185941CB0F20
:1057500005D0C943C04300226442504151416246D2
:105760004D0D28D10D0D07D100281FD0241940411F
:105770004941013A0D0DF9D0640006D3013000D340
:105780000131002C01D140084000013A0BD4941C97
:10579000E40A04D112051144DB071944F0BDD9070E
:1057A000204B194300E0D9070020F0BD0029DDD1CE
:1057B000002CDBD1F0BD0132C6074008CD072843DD
:1057C0004908002EE1D0D9E73C2E29DA203E4037A7
:1057D0001400BC4000D00124F24014431A00BB4026
:1057E0001C43D317ACE7AC46202F08DA2036040060
:1057F000B4400D00B540F84039412843A5E73C2F9F
:105800000CDA203F40360400B44000D00124F840B8
:1058100004430800B1400C43C117EAE71000190027
:10582000002494E70000F07FF0B50C0D661E3605ED
:10583000891BE60A6405640D02D0651CED0A04D0DC
:10584000002001210905803C2403A4461C0D671E8D
:105850003F05DB1BE70A6405640D02D0651CED0AF9
:1058600004D0002201231B05803C240377406444BC
:1058700097B484B296B27443070C7E43150C6F4301
:1058800080B26843361802D3012000043F18300468
:10589000350C00197D41844688B29AB250430C0CF5
:1058A00062431F0C7C438EB27E43921902D30126C1
:1058B0003604A4191604170C3618674101BC81B2CE
:1058C0009AB25143040C62431B0C5C4380B25843B0
:1058D000121802D30120000424181004130C4018DD
:1058E00063412D185E410020474106BC88B293B247
:1058F00058430C0C6343120C544389B251435B1858
:1059000002D301210904641819041A0C0918624110
:105910006D1856410020474118BCF902720D114321
:10592000F0026A0D1043ED020A0D03D16D194041DA
:105930004941013B124E9B1B7600B3420ED26D00D3
:1059400007D30130002671416646354301D1400836
:1059500040001B05C918E4072144F0BD0BDA0133F0
:1059600006D1013004D101314F0D01D04908F2E7D1
:10597000E1070020F0BD013631050020EBE7000013
:10598000FF030000F0B51C0D671E3F05DB1BE70A97
:105990006405640D02D0661CF60A04D000220123BF
:1059A0001B05803C2403D0252D060026F6432E66D9
:1059B0001E096E66CE0FF619B44649004F0D02D08F
:1059C0007E1CF60A03D000200021403F3F033E1B0F
:1059D000B600B444013F7F05C91B49082E6F01364C
:1059E00076089C02950D25437543ED137543AD1361
:1059F00001356D10F603761B0CB4CC02450D2C431B
:105A0000A2B2B3B25A43270C7B43350C6F43A4B206
:105A10006C431B1902D3012424043F191C041D0CE0
:105A2000A4187D4124196D41009A91B2ACB2614332
:105A3000170C7C432B0C5F4392B25A43A41802D339
:105A400001221204BF182204230C52187B41019C2E
:105A50006C431B19520ED9010A434401A01A81B2AA
:105A6000B2B2514303145A43360C734387B277439F
:105A7000D617D21900277E4136049B191704160C3D
:105A80007F185E417316ED18F301002680337541CF
:105A9000A90F06D16400690AE8055B0A184309D218
:105AA0002FE00422944480337541A90AA8059B0A7B
:105AB000184326D3404149412404009A019B0D001C
:105AC0005543641B4343E41A95B286B27543170CE1
:105AD0007E43030C5F4392B25A43B61802D30122AD
